:02000002D0002C
:1040000000400D0080B40D00000006000C0005010A
:08401000040115050000000089
:10401800E8A20D0009480A49884208B505D0094AAE
:10402800824202D0121A04F013FB0748074A002103
:10403800121A04F018FB014808BD00BF20E0032055
:10404800A0B30D00D8E00320D8E00320F0E7032058
:1040580070B502F045FD074C074BE41AA40800258B
:104068001E46A54204D056F8253098470135F8E792
:1040780070BD00BF94B30D0044B30D0000F034BE12
:1040880008B500F075FEBDE8084002F0F7BC02F084
:1040980037BA02F035BA02F03BBA02F039BA00007A
:1040A80008B5034A00210C2002F096F9FEE700BF8C
:1040B80051610D000078B0FA80F040097047012383
:1040C800037070477047000008B502F045F8034BCD
:1040D8001860BDE8084002F003BA00BF34E70320C7
:1040E80038B584690A4B036005467CB16368013BB7
:1040F80063605BB9236820469B689847A368013BC7
:10410800A3601BB923682046DB689847284638BD5A
:10411800BCAF0D0010B50446FFF7E2FF204610BD06
:1041280010B50446FFF7DCFF20461C2103F027FCEE
:10413800204610BD03682BB14268934202D218464C
:1041480004F06BBA0020704738B50568044645B1DD
:1041580043689D4205D2284604F0C0FA0130054460
:104168002560204638BDF8B504460F46466821B993
:104178000368721C42609955F8BD084604F0AEFA0F
:10418800A368451CAA199A4208D820682A463946C5
:10419800304404F05DFA63681D446560F8BD0000B2
:1041A80070B504464068A6682568054A0B46311A6A
:1041B800284402F0B5F9636801301844606070BDA6
:1041C8004FA30D0070B504464068A6682568054AE7
:1041D8000B46311A284402F0A3F9636801301844E9
:1041E800606070BD52A30D0010B5086804F012FAA3
:1041F8000022002351EC100B4FF0010404F02AF9BF
:1042080008B14FF00004014B1C7010BD81E303207E
:1042180008B5086804F001FA014B188008BD00BF12
:10422800DCE0032008B5086804F0F7F9014B1880B2
:1042380008BD00BFC8E3032008B5086804F0EDF91D
:10424800014B188008BD00BF14E1032000000000E6
:10425800F8B52B4C2B4E2C4D2046032101F06CF960
:104268002046012101F06DF905221146204601F092
:1042780060F9204601F062FD306803F02FFE1EA3AE
:10428800D3E9002303F07EFE04F074F928601220BD
:1042980003F0F1FA07EE900AF8EEE77AC6ED007A35
:1042A80002F030FD0746306803F018FE41EC100BB1
:1042B8000221384602F05CFBD5ED007A9FED137AB7
:1042C80077EEC77AF2EE046A87EEA67A204685ED85
:1042D800007A01F0BFFB286803F000FE41EC100BE8
:1042E8002046022102F044FB2046BDE8F84001F0D8
:1042F80025BD00BFAFF300809A9CC9999CC9E93FCE
:10430800E0E00320C0E3032018E103200000484256
:1043180008B5084B0220198803F0C4FA064B03209D
:10432800198803F0BFFA054B04201988BDE8084036
:1043380003F0B8BADCE00320C8E3032014E103204B
:1043480008B5112003F097FA07EE900A024BF8EE31
:10435800E77AC3ED007A08BDC4E30320034B1A785B
:10436800034B02B101221A70704700BF81E303209A
:1043780080E3032008B500234377006803F067F85B
:10438800BDE8084001F030BE2DE9F0418E188EB02E
:10439800B14280460D4617460591069680F0EC809E
:1043A8000B88ADF8123005A8FFF7CEFE03689E42D1
:1043B80040F2E28005A8FFF7BDFEBDF8123047F2D3
:1043C80076229342C4B200F09E800DD847F2612253
:1043D800934264D047F26422934239D046F6705231
:1043E800934240F0BB802FE047F26472934241D081
:1043F80047F27672934200F0978047F261729342D7
:1044080040F0AC806CE005A8FFF794FEC5B205A8A3
:10441800FFF79AFE059C5A49204604F055F90146D3
:10442800002800F0A5805749204604F04DF90028DF
:1044380000F09D805449204604F046F9002800F019
:10444800968005A8FFF780FE059B9E42DBD893E087
:104458000AAB079307A8102300254C490993089530
:10446800FFF781FE07A82146FFF79AFE204603F0D2
:10447800EFF925E005A8FFF767FE03689E427BD9A0
:10448800A4B20121204603F0B9F905A8FFF752FEAE
:10449800011C18BF0121204603F0C1F96CE00AABEA
:1044A80007933B49102307A8002509930895FFF7B0
:1044B8005AFE07A82146FFF773FE204603F0DBF9F2
:1044C800014607A8FFF77EFE089B0295013B009373
:1044D800079B01952A461421404600F051FA4BE00B
:1044E80005A8FFF731FE03689E4245D9A4B2012111
:1044F800204603F083F905A8FFF71CFE0146204675
:1045080003F0D0F938E00EAD204605F8104D01F063
:104518006DFD0346284623B11E4A934201D09847B1
:104528002AE001F05FFD27E005A8FFF70DFE059BD7
:104538000A935D1B7D1B20460B950C958DF81C403E
:1045480001F05EFD03460AA907A823B1124A934267
:1045580001D0984710E001F046FD0DE0002302214C
:104568000091B8F81A20029301931946B4E7012183
:10457800284603F043F964E70EB0BDE8F08100BFB8
:1045880056A30D0059A30D005DA30D0061A30D00F6
:1045980064A30D00ED5F0D00EF5F0D002DE9F04104
:1045A8008EB004AF0546052207F10C01006802F041
:1045B800FFF9002800F01981052801D0002019E131
:1045C800B7F80D20B7F80F40130A43EA0222230A6E
:1045D80043EA042492B2A4B2A7F80D20A7F80F402A
:1045E800002AEBD03B7BF3B901F0F8FC6B7FE86065
:1045F800B7F80F209BB9B7F80D1001290FD1042A7D
:1046080001D0C82ADAD1012468616C77284600F005
:10461800BBFAFFF759FD01F0E7FC2046EAE0501F1E
:1046280018BF0120E6E0B4F5806F03D92846FFF7EC
:10463800A1FEDAE004F1080323F00703E846ADEB36
:10464800030D04AE22463146286802F0B1F98442CF
:104658004FF0000440F0C480B7F80F30F45401F074
:10466800BDFC3B7BE860112B72D006D8062B20D00E
:104678000F2B60D0022B09D0AEE0292B25D0372B89
:1046880000F0B080142B40F0A78054E06B7F43B952
:1046980001236B77284600F077FAFFF715FD01F044
:1046A800A3FC0023C821B7F80D20029301930091C1
:1046B80006E0C823B7F80D2000930294019423461E
:1046C8001946284600F05CF98CE0AB681BB920203D
:1046D80001F016FFA860B7F80F40FE613444A64207
:1046E8003C6201D300207EE020223146A86804F015
:1046F80012F807F11C00FFF727FD0368A34207D251
:10470800F86918B13B6A984271D3002084B200E07E
:104718005024286802F09BFE2B68AA685A631C87FD
:1047280000236B7701F05AFCA0F59C5008382861EB
:10473800E860686156E0FB68B7F80F20C3F30F2301
:104748006B8331462846FFF71FFE00236B8349E041
:10475800B7F80F303C7133449E427E61BB6141D251
:104768003068B86007F11400FFF7EEFC7A69B7F813
:104778000F30FA61961B9E1B204ABB683E6293422B
:104788007E621DD00BD802F1FD3202F10222934263
:1047980028D107F11C01381D01F025FC22E0184A38
:1047A800934213D002F19F6202F5003202F5807243
:1047B800934217D107F11C01381D01F014FC11E0D8
:1047C80007F11C01381D01F00EFC0BE007F11C017C
:1047D800381D01F008FC05E02846FFF7CBFD01E095
:1047E800204600E00120C54604E0012002E003F075
:1047F80018FF8BE72837BD46BDE8F0817274630067
:1048080061636F6E2DE9F04104468AB00D46FFF7EB
:104818005BFC637F022B00F09D80237F628B01335A
:10482800DBB22377002A41D1022B3FD8206802F05F
:104838003AFC40B1002D40F08F80206802F01EFE47
:10484800002800F3898001F0C9FB0646206802F0C1
:104858002AFC677F012F05462AD120B966612046C8
:10486800FFF788FD72E0E36844F63822F31A9342B2
:1048780004D92046FFF77EFD002567E042F210725A
:10488800934203D82369F31A93420FD9636940F618
:10489800B832F31A934209D9002302930193009383
:1048A8001A460621204600F06BF8666101254DE0A6
:1048B800002FFBD1626950B1B61A40F6B8339E4258
:1048C800F4D9206802F0C3FD3D4667773EE0B21A8E
:1048D80041F288339A42E9D9206802F0B8FDD4F849
:1048E80000E0DEF834C0BEF83880BCF1000F06D016
:1048F8002B4642466146704602F002FC0EE01F4B12
:1049080004930EF120070FCF05AD0FC53B682B7040
:104918004246634604A9704602F01CFD431E5D42F0
:104928005D410DB9666111E0676801262683384646
:1049380003F0D4FE00238DE80900029332463B467B
:104948000221204600F01CF823696361237F013BA4
:1049580023770EE000250CE02046FFF71FFE0546F2
:1049680000287FF46AAF206802F071FD01F03CFB7B
:10497800ECE728460AB0BDE8F08100BFD0AE0D00D4
:104988002DE9F04F83B000AF044600683D6B8946BF
:1049980016469B46EA4602F086FB002860D019F0CE
:1049A800FD0F00F0A080B9F1060F00F09C80637F36
:1049B800012B55D116B9668B002E56D0A9F10C03E0
:1049C800082B5AD97A6BBBF1000F14BFA8464FF0D9
:1049D8000008002ABA6B08F1050314BF90464FF08F
:1049E8000008984408F1070323F00703AA18ADEB61
:1049F800030DC2F3072376BA43EA0223C7F804D0AB
:104A08008DF80090ADF80160ADF80330BBF1000FF0
:104A180052D0002D50D02A4659460DF1050003F01A
:104A280017FE681D7B6B002B48D10025454551D2E8
:104A3800C5EB08027B682068B2F5806F28BF4FF489
:104A48008062591902F019FB0646002001F0C4FAE9
:104A5800002E3DD1206802F0FAFC667701F0C4FA16
:104A68000C37D546BD46BDE8F08F238B01339BB28A
:104A780003B901232383268BA0E7E36822699342C5
:104A880038BF134603F1420801F0A8FAC0EB08004A
:104A980000280ADB00212046FFF7B4FE01F09EFA49
:104AA800C0EB08000028F5DA8CE7217F002989D1BE
:104AB8002046FFF7A7FE85E70520B3E7BB6B002B71
:104AC800B3D01A467B68796B184403F0C1FDACE794
:104AD8003544ABE703D02046FFF74CFCC0E701F0B4
:104AE8007DFA2061BCE7002E7FF46CAF63E700001D
:104AF800F0B5ADF22C4D0AAB002406460D460793DF
:104B080007A84FF4806317498DED050A09930894A7
:104B1800FFF729FB294607A8FFF742FB9DED050A89
:104B2800089B0999079D10EE100ACF1A1D4403F03F
:104B3800D5F90D4ACDE900013946284601F0F0FCC7
:104B4800089B0294013018440890013800900194A1
:104B5800079B224614213046FFF712FF0DF22C4D19
:104B6800F0BD00BF67A30D006AA30D0008B5044B94
:104B7800044893ED000A0121FFF7BAFF08BD00BF02
:104B880018E1032060E303201FB5002249230093A6
:104B980002920192034B1121FFF7F2FE05B05DF876
:104BA80004FB00BF04A30D001FB50023029301936B
:104BB80000931A4610210348FFF7E2FE05B05DF89E
:104BC80004FB00BF60E3032030B5ADF2244D08AB11
:104BD80000240546059305A84FF4806307930694BF
:104BE800FFF7C1FA069B0294013B00930194059BD1
:104BF80022460E212846FFF7C3FE0DF2244D30BD94
:104C080008B50021022002F04DFE0021032002F029
:104C180049FEFF21042002F045FE0A4B93ED007A7D
:104C2800094BD3ED007AB4EEE77AF1EE10FA07DD1E
:104C380042F2107001F0E4FE04490548FFF7C4FF92
:104C480008BD00BFC4E3032020E0032070A30D00CB
:104C580060E303202DE9F04114468CB00546043486
:104C680040F6B8300F46984601F0B6F90FCC01AEC1
:104C78000FC623686F60337001F0B0F9A0F59C503F
:104C8800083801AF2861E86068610FCF07AE0FC62A
:104C98003B68337007AF0FCF2C684FF0000EC4F895
:104CA80034E0A4F8388020340FC43368237042F20B
:104CB80027367446286802F0CAFB6C7701F08EF933
:104CC80007466B7F012B09D001F088F9C01BB04261
:104CD80004D800212846FFF795FDF2E76B7F012BEA
:104CE800E8D10CB0BDE8F08100B5002189B01220F0
:104CF80002F084FD0021112002F080FD0121022034
:104D080002F07CFD0121032002F078FD012104203E
:104D180002F074FD01233C220221104800F00AFF32
:104D28007C23009363229623A72102A801F070FF39
:104D380041F6907302AA0A490A48FFF78BFF01F06F
:104D4800E1FF4FF4165101F0D1FF074A07486421EB
:104D580001F0D4F809B05DF804FB00BFE0E00320DF
:104D68009AA30D0060E30320754B0D001CE103209E
:104D780008B500210C48FFF745FDFFF769FA0B4815
:104D880001F0DEF8FFF710FFFFF7E8FAFFF7D8FAAF
:104D9800074B1B781BB1BDE80840FFF731BFBDE8E2
:104DA8000840FFF7B5BA00BF60E303201CE1032009
:104DB80080E3032010B53421044602F0E0FD2046CC
:104DC80010BD000070B5184D184E01F035F9284691
:104DD80002F0F0FB05F11C00002401F0D5FE32467C
:104DE80013496C6328462C8702F0C4FD114B5C60A4
:104DF8009C60DC601C615C611C835C831C775C7755
:104E08000D4C1D6040224FF0FF338021204600F0FA
:104E1800EFFD32462046094902F0ACFD0848BDE8DE
:104E2800704001F010B800BF84E30320D8E00320ED
:104E38001D410D0060E30320E0E00320CD400D009C
:104E48001CE103202DE9F04F85B01E46BDF938302E
:104E5800BDF83CA015469A1A002AB8BF52420092E3
:104E6800721A002AB8BF524201920C46009A019960
:104E78008A42814605DD32461E46134622462C46A6
:104E88001546B44205DD2A461D46134622463446D9
:104E980016465A1B002AB8BF5242C4EB06089D4268
:104EA800B4BF01234FF0FF331FFA88F8029303922F
:104EB8000FFA88F7022297FBF2F7B4421FDC019A37
:104EC800009B9342D9F80030C8BF2246D3F818B0E7
:104ED800C8BF29465346DCBF2A4621464846D8471C
:104EE800039BFF1ABBB21FB2002F05DA029A08EB28
:104EF800030715442DB23FB2013424B2DDE705B0F3
:104F0800BDE8F08F10B404682469A4465DF8044B2A
:104F1800604730B40468BDF808500295A46BA446F5
:104F280030BC604730B40468BDF808500295E46BA3
:104F3800A44630BC604770B40468BDF90C50BDF895
:104F4800106004960395246CA44670BC60477047B3
:104F58002DE9F3411C460368BDF820805B690546CE
:104F68001646013C34440F4624B298472B68CDF8C6
:104F7800048000949C6A28463B4632463946A0473E
:104F88002B68DB6A284602B0BDE8F04118472DE9D6
:104F9800F3411D460368BDF820805B690446174647
:104FA8000E4698478DE8800122686B1E3344956A47
:104FB80020461BB23A463146A8472368DB6A20469A
:104FC80002B0BDE8F04118472DE9F3471E460368D3
:104FD800BDF928805B69BDF82C900C46054617463C
:104FE80098472644B4422A680BDACDF80090D2F8E4
:104FF80020A0214643463A4628460134D04724B2E9
:10500800F0E7D36A284602B0BDE8F047184713B561
:10501800B0F90E200468019100920022B0F90C301A
:10502800246C1146A04702B010BD2DE9F743994200
:10503800904607460E461C46BDF92850BDF82C90F0
:1050480002680BD1A845C2BF4346A8461D466B1C43
:10505800CDF82890C8EB0303946B0CE0A84513D156
:105068009942C4BF0B462646CDF82890C8BF1C46B7
:10507800631CD46B9B1B1BB2424631463846A44680
:1050880003B0BDE8F0436047536998473B688DE833
:10509800200238469D6A424623463146A8473B6867
:1050A800DB6A384603B0BDE8F04318472DE9F347FB
:1050B8001E460368BDF82C805B69BDF9289004463C
:1050C8000D46174698472368CDF80080D3F824A0EA
:1050D8003A46334629462046D0472368CDF8008013
:1050E80009F1FF323A44D3F824A029463346204632
:1050F80012B2D0472368CDF80080D3F820A03A46F2
:105108004B4629462046D0472368CDF80080711EBB
:10511800294420461D6A3A464B4609B2A8472368E7
:10512800DB6A204602B0BDE8F0471847704701F037
:105138000301012941760389428904D0032902D059
:105148008381C28170478281C381704730B50181F4
:105158000024094D42818181C2814FF6FF710122ED
:10516800446005604476048244820276C18281826A
:105178008276C476C46130BDC4A30D002DE9F04F1A
:1051880091B09146C26905911E46BDF868300293F8
:105198000446BDF86CA09DF87050002A40F0B78016
:1051A800B0F90C308B4240F34581B0F90E304B45D5
:1051B80040F34081062313FB0513002B40F33A818B
:1051C80009EBC503002B40F33581C37E1BB9AF2E15
:1051D80084BF0136F6B2236820465B6998470523E9
:1051E8000C93002303931FFA89F3079308339BB2A8
:1051F8000E9305231A46039BDDF81C80CDF8248006
:1052080012FB06338D4ACDF82880D35C0893BDF88D
:1052180014300493049A039BAFB203FB07231BB219
:105228000B932BB20693BDF80C20049B13FA82F360
:105238001BB20D93089BD90710D5012D236803D104
:10524800D3F818B0029B12E0029A0192069A0092D3
:10525800D3F81CB01346BDF9282017E0029B53452C
:1052680017D0012D236808D1D3F818B053460FFA88
:1052780088F20D992046D8470BE0069A0092CDF89F
:1052880004A0D3F81CB01346BDF924200B9920467E
:10529800D847089B5B0808930A9B3B449BB20A9338
:1052A800099B3B449BB2099308F101080E9B1FFA26
:1052B80088F84345BED1039B01335BB203930C9B33
:1052C800013B13F0FF030C9393D1029B534500F06D
:1052D800AA80012D23680AD10499CDF800A00531D0
:1052E8001D6A4A46082309B22046A8479BE0049A4B
:1052F800CDF804A007EB87010A44FF001146009788
:10530800DE694A462B4609B22046B0478BE0137A3D
:10531800F61A5368F6B203EBC60613680B93B37814
:1053280096F906A00793F3780C93012D96F90530AA
:10533800089394BF00230FFA8AF3B6F800B08EBF23
:1053480004931E460493036888BFBDF920605B6917
:105358009847ABB20693BDF814300593059A069B9F
:1053680006FB0326B3B20A931FFA89F300260993B2
:105378005344B04603960F930C9BF2B29A4252D212
:10538800049BBDF81810DDF82890F31813FB01F3FF
:1053980009990B441BB20D930F9B1A4413B24FF09B
:1053A800000A0E9307995FFA8AF208EB020391420A
:1053B800DBB232D95A0707D10B9A0BF1010312F865
:1053C8000B2003921FFA83FB039B1B061AD5012DA2
:1053D8000CD1059B089A991823680E9A9B69514429
:1053E8001F4609B2029B2046B8470BE00299226883
:1053F80001912BB20093D2690FFA89F11746204622
:105408000D9AB847039B5F00FBB20393069B994430
:105418000AF1010A1FFA89F9C4E7079B98445FFA61
:1054280088F80136A8E72368DB6A204611B0BDE892
:10543800F04F184711B0BDE8F08F00BF14A40D005D
:105448007FB5C26904460B46002A2DD10A2905D129
:105458000282438A027E03EBC2032EE00D2965D047
:10546800817E007E69B1B4F91050062111FB00510C
:10547800B4F90C50A942C1BF2282628A02EBC00271
:1054880062820290E08A0190A08AB4F9122000900A
:10549800B4F910102046FFF771FE237E228A03EB31
:1054A800430302EB430340E00A2908D100230382A7
:1054B800017E927A438A01FB0233638236E00D292A
:1054C80034D0157AA94231D3517A99422ED35168F2
:1054D8005D1B01EBC505A97811B3E87800B3A67E7A
:1054E800207E8EB195F905603144B4F9106000FB57
:1054F8000161B4F90C60B14206DD00212182927A83
:10550800618A02FB001262820290E08A0190A08AFE
:105518000090B4F91220B4F910102046FFF72EFEBF
:105528002979227E238A01FB02332382012004B0D9
:1055380070BD018242827047002908BF01210176AF
:105548007047C18281827047407E704700F074BD09
:10555800F0B5447EBDF81460022C09D0032C10D09D
:10556800012C40F09D800489013CA21A12B20CE083
:105578004489013CA21A0489E41A611A12B209B2D8
:105588008EE04489E41A611A09B2002AC0F28780C1
:10559800B0F90840944240F3CD800029BEBF5B18A3
:1055A8001BB20021B0F90A40CD18A542C4BF631A46
:1055B8001BB2002B40F3BE80C9B2056A076BCC084A
:1055C80005FB042211F00701DBB207EB02052FD01F
:1055D800C1F10804E4B25849A342095D0DD2C3EBF6
:1055E800040C4FF0FF0E4EFA0CFE012E0EEA0101DC
:1055F80005D00AD3022E0FD0F0BD012E04D117F822
:1056080002E041EA0E010BE004D217F802E02EEAAC
:10561800010105E0022E07D117F802E081EA0E0128
:10562800A342B954C0F08680026A1B1BDBB2154442
:10563800072B1AD9022E0AD11A462978C94329708C
:10564800083A016AD2B2072A0D44F6D81FE0012EA3
:105658000CBFFF2400241A462C70083A016AD2B203
:10566800072A0D44F8D803F00703002B62D0334A09
:10567800012ED35C03D005D3022E5BD10CE02A782F
:10568800134302E02A7822EA03032B70F0BD13F0DB
:1056980007034FD0294AD35C2A785340F5E7F0BD79
:1056A800002A46DBB0F90A40944243DD0029BCBF1A
:1056B800C9180BB2B0F90840B8BF0021CD18A542EF
:1056C800C4BF631A1BB2002B34DD056B006A0824C3
:1056D80092FBF4F400FB0411681802F007020121A0
:1056E80001FA02F28E42D2B203D00CD3022E16D0A7
:1056F800F0BD013B1BB25D1C1CD010F8011B11430F
:1057080000F8011CF5E7D243D2B2013B1BB25C1C86
:1057180010D010F8011B114000F8011CF5E7013BFF
:105728001BB2591C06D010F8011B514000F8011C8F
:10573800F5E7F0BDF0BD00BF2CE0032024E0032016
:10574800F0B5447EBDF81450022C08D0032C0FD0BD
:10575800012C60D10489E41AA21A12B20CE004895F
:10576800013C611A4489E41AA21A09B212B252E041
:105778004489013C611A09B200294BDBB0F90A409F
:105788008C4240F3CF80002ABCBFD21813B2B0F9C4
:105798000840B8BF0022D618A642C4BFA31A1BB23D
:1057A800002B40F3BF80066B006A082491FBF4F4D9
:1057B80000FB0422B01801F00701012202FA01F1EE
:1057C8009542C9B203D00DD3022D18D0F0BD013BCC
:1057D8001BB25D1C00F0A68010F8012B0A4300F8EC
:1057E800012CF4E7C943C9B2013B1BB25C1C00F0B1
:1057F800998010F8012B0A4000F8012CF4E7013BCE
:105808001BB25A1C00F08E8010F8012B4A4000F899
:10581800012CF4E7F0BD0029C0F28380B0F90840FC
:105828008C427FDD002ABEBF9B181BB20022B0F954
:105838000A40D618A642C4BFA31A1BB2002B71DDBA
:10584800D2B2066A076BD40806FB041112F00702ED
:10585800DBB207EB01062ED0C2F10804E4B2324AEB
:10586800A342125D0DD2C3EB040C4FF0FF0E4EFAAB
:105878000CFE012D0EEA020205D00AD3022D0FD02C
:10588800F0BD012D04D117F801E042EA0E020BE049
:1058980004D217F801E02EEA020205E0022D06D133
:1058A80017F801E082EA0E02A3427A543AD3026A58
:1058B8001B1BDBB21644072B1AD9022D0AD11A4634
:1058C8003178C9433170083A016AD2B2072A0E44C6
:1058D800F6D81DE0012D0CBFFF2400241A463470B1
:1058E800083A016AD2B2072A0E44F8D803F007032F
:1058F800C3B10E4A012DD35C03D005D3022D11D1BB
:105908000BE0327813430AE0327822EA030306E018
:1059180013F0070306D0054AD35C3278534033703E
:10592800F0BDF0BDF0BD00BF2CE0032024E0032053
:10593800F8B50E1E054614461F4657DB036A9E42FD
:1059480054D2002A52DB436A9A424FD2FFF7FCFD39
:10595800022809D0032810D0012813D12B6A013B53
:105968001B1B34461EB20DE0296A6A6A0139013AE6
:105978008E1B141B36B224B204E06B6A013B9B1BDE
:1059880026461CB2012F03D010D3022F1FD0F8BD1A
:105998002B6A082194FBF1F103FB0166296B04F0E3
:1059A80007048B5DA7401F438F55F8BD296A286BF4
:1059B800082394FBF3F301FB036604F00704835DFB
:1059C800012101FA04F423EA04048455F8BD296A84
:1059D800082394FBF3F301FB0366296B04F0070427
:1059E8008B5D012202FA04F45C408C55F8BD00007E
:1059F8002DE9F04104460F46154609B212B20026B9
:105A08009846FFF7A3FBFF22114B236005FB07F025
:105A180084F82A2084F82E2084F82C2084F82B205F
:105A28002762656284F8286084F8296084F82F600A
:105A380084F82D80C008FEF72CFB226A636A206375
:105A48005A43D208314602F00EFE2046BDE8F081E6
:105A58001CA90D00026A436A006B5A43D208002150
:105A680002F001BEF8B590F82F3005460F4623B175
:105A78001048BDE8F84000F025BE0826802495F9B6
:105A88002B00002180B201F0CAFE95F92A0017EA1E
:105A9800040118BF012180B201F0C1FE95F92B0065
:105AA800012180B201F0BBFE013E4FEA5404E6D169
:105AB800F8BD00BF14E7032038B590F92A30013348
:105AC80004460D461DD090F92E00012180B201F048
:105AD800A6FE94F92C00002180B201F0A0FE94F9F2
:105AE8002E00002180B201F09AFE29462046FFF7D9
:105AF800B9FF94F92E00012180B2BDE8384001F0C9
:105B08008EBE01F017FF94F9281001F0EBF901F0AF
:105B180011FF036800219B68984701F00BFF036899
:105B280029469B68984701F005FFBDE8384001F019
:105B3800E0B9000070B504461E4684F8291090F9B3
:105B48002A3080F8282001330D4625D090F92C0002
:105B5800012180B201F052FE94F92E00012180B299
:105B680001F04CFE94F82F305BB994F92A0001211A
:105B780080B201F043FE94F92B00012180B201F0BC
:105B88003DFE94F82F305BB16B4800F03BFD0421DB
:105B9800694800F083FD03E001F0CCFE01F098F9BC
:105BA800FEB194F92D0000281BDB012180B201F021
:105BB80025FE94F92D00012180B201F030FE01206C
:105BC80000F01EFF94F92D00002180B201F027FE9D
:105BD8000A2000F015FF94F92D00012180B201F090
:105BE8001EFEAE212046FFF767FFD5212046FFF7AE
:105BF80063FF80212046FFF75FFFA8212046FFF7BB
:105C08005BFF616A0139C9B22046FFF755FFD3210E
:105C18002046FFF751FF00212046FFF74DFF4021A6
:105C28002046FFF749FF8D212046FFF745FF012D4C
:105C38000CBF102114212046FFF73EFF20212046EB
:105C4800FFF73AFF00212046FFF736FFA121204643
:105C5800FFF732FFC8212046FFF72EFF236A802B6B
:105C680012D1636A202B0FD1DA212046FFF724FFD7
:105C780002212046FFF720FF81212046FFF71CFF65
:105C88008F212046FFF718FF236A802B15D1636AFE
:105C9800402B12D1DA212046FFF70EFF12212046B1
:105CA800FFF70AFF81212046FFF706FF012D0CBFF1
:105CB8009F21CF212046FFF7FFFE236A602B15D1D5
:105CC800666A102E12D1DA212046FFF7F5FE02216E
:105CD8002046FFF7F1FE81212046FFF7EDFE012D5A
:105CE8000CBF3146AF212046FFF7E6FED9212046FA
:105CF800FFF7E2FE012D0CBF2221F1212046FFF71C
:105D0800DBFE2046DB21FFF7D7FE20464021FFF7C8
:105D1800D3FE2046A421FFF7CFFE2046A621FFF799
:105D2800CBFE20462E21FFF7C7FE2046AF21BDE857
:105D38007040FFF7C1BE00BF14E70320F8B521216A
:105D48000446FFF7B9FE00212046FFF7B5FE216A99
:105D58000139C9B22046FFF7AFFE22212046FFF7DE
:105D6800ABFE00212046FFF7A7FE636A402B03D154
:105D780007212046FFF7A0FE636A202B03D10321E9
:105D88002046FFF799FE636A102B03D101212046B4
:105D9800FFF792FE94F92A30013301D100253BE048
:105DA80094F92E00012180B201F039FD94F92C00FC
:105DB800012180B201F033FD94F92E00002180B258
:105DC80001F02DFD0025216A636AAAB24B43B2EBAC
:105DD800D30F05F1010505D2236B2046995CFFF727
:105DE80041FEF0E794F92E00012180B2BDE8F840A9
:105DF80001F015BD01F09EFDAF19226B0368BFB21B
:105E08009B68D15D01369847102EF3D11035ADB29D
:105E180001F090FD01F06DF8226A636A5343B5EB17
:105E2800D30F0DD201F086FD94F9281001F05AF82D
:105E380001F080FD036840219B6898470026D9E758
:105E4800F8BD00F0F9B84FF0FF33C0F840327047A2
:105E580070B5054600F0C2F8002406462819242229
:105E6800002102F000FC2E512434B4F5107FF5D146
:105E78000023C5F8403270BDD0F840320F2B08DC43
:105E88000023242202FB0301496829B10133102BA6
:105E9800F8D14FF0FF307047184670472DE9F843A6
:105EA8009846D0F84032002B05468946174601DA55
:105EB800FFF7CEFF2846FFF7DFFF041E1ADBCFB13E
:105EC80024266643AB199DF820201A73099A5A6153
:105ED8000122C3F810905F60C3F808801A7700F0B9
:105EE8007DF8A851D5F840320133C5F84032204634
:105EF800BDE8F8834FF0FF30BDE8F88307B500230D
:105F080001930093FFF7CAFF03B05DF804FB0F2964
:105F180038B5044613D8D0F8403283B1242202FBA6
:105F280001F52844436853B1002102F09CFB00F0BE
:105F380055F86051D4F84032013BC4F8403238BDBE
:105F48002DE9F041054605F5117700F047F80126DF
:105F58002B1D4FF0000E4FF0020C1A68C3F81CE01E
:105F6800E2B153F8048CDC68C8EB0002A24215D3F6
:105F7800B2FBF4F104FB018243F8042C1A7E6AB1E7
:105F8800196909B9DE6109E05A69914206D90132F5
:105F98009142DE615A6198BFC3F81CC02433BB42EA
:105FA800DBD12C460026236A6BB1227B636812B1D1
:105FB800A068984700E09847236A022B03D131462E
:105FC8002846FFF7A4FF0136102E04F12404EAD175
:105FD800BDE8F08100F030B800F012BD00F0BCB8A8
:105FE80000F02AB870477047704700007F289ABFB2
:105FF800024B53F820000020704700BF6CAB0D0027
:106008007F289ABF024B53F820000020704700BF3A
:106018006CA90D0000F010B808B5024B1B689B680E
:10602800019308BD6802030008B5024B1B68DB68D2
:10603800019308BD6802030008B5024B1B681B6882
:10604800019308BD2C02030008B5024B1B685B686E
:10605800019308BD2C02030008B5024B1B689B681E
:10606800019308BD2C02030008B5024B1B68DB68CE
:10607800019308BD2C02030008B5024B1B681B697D
:10608800019308BD2C02030008B5024B1B685B692D
:10609800019308BD2C02030008B5024B1B689B6ADC
:1060A800019308BD2C02030008B5024B1B681B6B4B
:1060B800019308BD2C02030008B5024B1B689B6FB7
:1060C800019308BD2C02030008B5024B1B681B682E
:1060D800019308BD3002030008B5024B1B681B6919
:1060E800019308BD3002030008B5024B1B685B69C9
:1060F800019308BD3002030008B5024B1B68DB6939
:10610800019308BD3002030008B5024B1B681B6AE7
:10611800019308BD3002030008B5024B1B685B6A97
:10612800019308BD3002030008B5024B1B685B6988
:10613800019308BD6C02030008B5024B1B685B683D
:10614800019308BD1802030008B5024B1B68DB6801
:10615800019308BD1802030008B5024B1B685B6970
:10616800019308BD1802030008B5024B1B689B6821
:10617800019308BD4802030008B5024B1B681B6960
:10618800019308BD4802030008B5024B1B685B6910
:10619800019308BD4802030008B5024B1B681B6B3E
:1061A800019308BD4802030008B5024B1B685B6CED
:1061B800019308BD4802030008B5024B1B685B69E0
:1061C800019308BD6402030008B5024B1B681B6AF3
:1061D800019308BD6402030008B5024B1B689B6A63
:1061E800019308BD6402030008B5024B1B681B68D5
:1061F800019308BD3C02030008B5024B1B68DB682D
:10620800019308BD3C02030008B5024B1B681B69DB
:10621800019308BD3C02030008B5024B1B685B698B
:10622800019308BD3C02030008B5024B1B689B693B
:10623800019308BD3C02030008B5024B1B68DB69EB
:10624800019308BD3C02030008B5024B1B681B6A9A
:10625800019308BD3C02030008B5024B1B689B6A0A
:10626800019308BD3C02030008B5024B1B68DB68BC
:10627800019308BD2802030008B5024B1B689B69FF
:10628800019308BD2802030008B5024B1B68DB69AF
:10629800019308BD2802030008B5024B1B681B6A5E
:1062A800019308BD2802030008B5024B1B685B6A0E
:1062B800019308BD2802030008B5024B1B689B6ABE
:1062C800019308BD2802030008B5024B1B68DB6A6E
:1062D800019308BD2802030008B5024B1B681B6B1D
:1062E800019308BD2802030008B5024B1B685B6BCD
:1062F800019308BD2802030008B5024B1B681B6CFC
:10630800019308BD2802030008B5024B1B689B696E
:10631800019308BD3802030008B5024B1B68DB690E
:10632800019308BD3802030008B5024B1B681B6ABD
:10633800019308BD3802030008B5024B1B689B6A2D
:10634800019308BD3802030008B5024B1B681B6B9C
:10635800019308BD3802030008B5024B1B689B6B0C
:10636800019308BD3802030008B5024B1B681B687F
:10637800019308BD4C02030008B5024B1B685B681B
:10638800019308BD4C02030008B5024B1B681B694A
:10639800019308BD4C02030008B5024B1B685B69FA
:1063A800019308BD4C02030008B5024B1B689B69AA
:1063B800019308BD4C02030008B5024B1B68DB695A
:1063C800019308BD4C02030008B5024B1B681B6A09
:1063D800019308BD4C02030008B5024B1B685B6BB8
:1063E800019308BD6002030008B5024B1B681B6DD2
:1063F800019308BD6002030008B5024B1B685B6887
:10640800019308BD2002030008B5024B1B685B69B5
:10641800019308BD2002030008B5034B1B68D3F89D
:106428008830019308BD00002002030008B5034B23
:106438001B68D3F89430019308BD000020020300C4
:1064480008B5024B1B685B68019308BD4002030056
:1064580008B5024B1B689B68019308BD4002030006
:1064680008B5024B1B68DB68019308BD40020300B6
:1064780008B5024B1B681B69019308BD4002030065
:1064880008B5024B1B685B69019308BD4002030015
:1064980008B5024B1B689B69019308BD40020300C5
:1064A80008B5024B1B68DB69019308BD4002030075
:1064B80008B5024B1B681B6A019308BD4002030024
:1064C80008B5024B1B681B6B019308BD4002030013
:1064D80008B5024B1B685B6B019308BD40020300C3
:1064E80008B5024B1B689B68019308BD4402030072
:1064F80008B5024B1B68DB6B019308BD440203001F
:1065080008B5024B1B681B68019308BD1C020300F9
:1065180008B5024B1B685B68019308BD1C020300A9
:1065280008B5024B1B68DB69019308BD1C02030018
:1065380008B5024B1B681B6B019308BD1C020300C6
:1065480008B5024B1B68DB6B019308BD1C020300F6
:10655800002211464068FFF7ABBF00221146406891
:10656800FFF7B6BF00224068FFF7AABF002281F0FC
:1065780001014068FFF794BF00231A461946406896
:10658800FFF786BF00231A4619464068FFF778BF11
:10659800002211464068FFF76BBF00221146406891
:1065A800FFF756BF002202214068FFF759BF0023BA
:1065B8001A464068FFF744BF024B03225A60024A5A
:1065C8001A607047CCE3032074AD0D00704710B516
:1065D8001021044601F0D3F9204610BD70B5084BD0
:1065E8000360044600250E4640F80C5FFFF7D4FD13
:1065F80030462671FFF780FDA560204670BD00BFBC
:10660800A8AD0D004FF6FF710079FFF75DBD0000E2
:10661800054A0023995C814202D00133082BF9D145
:10662800581CC0B2704700BFB0AD0D00400830B56F
:106638001860002418688842E5B206D90134082C8D
:1066480002D040081860F5E70725024B5B5D137020
:1066580030BD00BFB0AD0D0070B588B0067902FB43
:1066680001F504461422002103A801F0FCFF0B23C6
:1066780003A930460022ADF80C30FFF74DFD02AB00
:106688000DF1070229460498FFF7D0FF20799DF8FD
:106698000710FFF721FD029808B070BD38B5044611
:1066A8000846A5684DB1FFF7B3FF012225FA00F1AE
:1066B8002046BDE83840FFF7CFBF2079BDE8384015
:1066C800FFF70ABD08B50079FFF70EFDC0B208BD97
:1066D8000079FFF719BD0000044B00204FF6FF7248
:1066E800187058809A80FFF787BE00BFD4E3032054
:1066F800024800230360FFF757BD00BFDCE3032017
:10670800F8B506460D468F180024BD420CD03368F4
:1067180015F8011B9B6830469847002801DB0444A4
:10672800F3E7002C08BF04462046F8BD70B50546BF
:106738000C46084649B101F0D1FF2B6802462146B4
:106748002846DB68BDE87040184770BD03689B6841
:10675800184738B50D210546FFF7F8FF0A2104460A
:106768002846FFF7F3FF204438BD30B58BB00B4601
:1067780000218DF82410012A98BF0A220DF1230464
:10678800B3FBF2F505FB123303F0FF03092B94BFAB
:1067980030333733DBB2214604F801392B46002D5C
:1067A800EED1FFF7C3FF0BB030BD10B42AB90368B0
:1067B8005DF8044B9B68C9B21847D2B25DF8044B28
:1067C800FFF7D3BFFFF7F1BF2DE9F04107460E46AB
:1067D80015462AB90368C9B29B68BDE8F041184755
:1067E8000A2A02D1002901DA04E0D2B2BDE8F04158
:1067F800FFF7BBBF2D21FFF7A9FF2A4604467142C8
:106808003846FFF7B2FF2044BDE8F0812DE9F04794
:1068180057EC106B82460D4610EE102A3B4610EEE0
:10682800100A394601F048FE08B1484912E027F03D
:1068380000494FF0FF32464B3046494601F03CFED6
:1068480068B94FF0FF32424B3046494601F016FE18
:1068580028B940495046FFF769FFBDE8F0874FF077
:1068680060423D4B3046394601F01CFE08B13B49B9
:10687800F0E74FF060423A4B3046394601F0F4FDFC
:106888000028F4D1002200233046394601F0ECFDFF
:1068980040B12D215046FFF759FF07F10043044648
:1068A8001F4600E004462F494FF0000800205FFA19
:1068B80088F39D4206D900222B4B01F08DFC08F18C
:1068C8000108F4E732463B4601F0AAF90F460646AE
:1068D80001F030FE0A22014680465046FFF745FF88
:1068E80004447DB3404601F0D7FA02460B463046D1
:1068F800394601F093F906460F4650461B49FFF703
:1069080015FF0444184B00223046394601F03AFB83
:106918000F46064601F0E6FD0A220146804650462B
:10692800FFF752FF0444404601F0C6FA02460B4600
:106938003046394601F072F9013D15F0FF0506466B
:106948000F46DFD12046BDE8F08700BFB8AD0D0087
:10695800FFFFEF7FC2AD0D00FFFFEF41BCAD0D00A3
:10696800FFFFEFC10000E03F00002440C0AD0D0074
:1069780038B5C9B20546FFF749FF04462846FFF770
:10698800E8FE204438BD10B50446FFF7E5FBE0609B
:10699800236820465B699847002808DAFFF7DCFB84
:1069A800E368C01AA3689842F2D34FF0FF3010BDD5
:1069B8002DE9F04180460D468F180C46BC42A4EBE9
:1069C800050607D04046FFF7DEFF002802DB04F883
:1069D800010BF3E73046BDE8F0810000014B024AA5
:1069E8001A607047E0E3032076AE0D00024B1A6888
:1069F800024B1A60704700BF34E00320E4E3032031
:106A08000021FFF701BD10B58368044613B10322C6
:106A180001469847204610BD10B50446FFF7F3FF1E
:106A2800204610BD0348044A04490023836000F04F
:106A3800A1BF00BFE8E30320D8E00320216A0D00CE
:106A480008B50C4B33B100F05DF903681B69984732
:106A5800002809DC084B63B100F0D6F903681B690C
:106A68009847002803DC08BDAFF30080F2E7AFF3D6
:106A7800008008BD000000000000000008B5FFF716
:106A8800DFFFFFF769FB014B186008BD34E70320FF
:106A980007B5002300931A466FF07701FFF7C6FC8D
:106AA80003B05DF804FB000007B543880A2B08D043
:106AB800502B09D1094B1B683BB103B05DF804EBBF
:106AC8001847FFF7E5FF06E0002300931A466FF02A
:106AD8007701FFF7ABFC03B05DF804FBF8E3032094
:106AE80010B5FFF729FB044601F0C6FD074B13B1AB
:106AF8002046AFF3008000210448FFF7F9FC00218D
:106B08000348BDE81040FFF787BC00BF0000000045
:106B1800B16A0D00704710B51821044600F02FFF28
:106B2800204610BDF0B5037D062B8DB00E4600F152
:106B380004074FF0000402D000F1080518E00CAD7E
:106B4800394605F8304D2F232A460A20FFF734FB33
:106B5800284601F0C3FD33680246DB682946304603
:106B680098470FE024B12E213046FFF7EFFD04448B
:106B780015F8011D0A223046FFF724FEBD420444E1
:106B8800F0D120460DB0F0BD10B5054B04461122DA
:106B980040F8043B002101F066FD204610BD00BF0F
:106BA800D0AE0D000346074A10B543F8042B01F197
:106BB800100251F8044B43F8044B9142F9D10A787A
:106BC8001A7010BDD0AE0D00037D042B01D14068B2
:106BD80008E0062B0AD1436853B1836843B1C36800
:106BE80033B10069003018BF01207047002070479A
:106BF8001846704710B59DF8084044EA032343EA55
:106C0800024242EA016104234160037510BD00009D
:106C180037B5044D05609DF818500095FFF7EAFF59
:106C280003B030BDD0AE0D0037B50D788B784A78FB
:106C3800C97800912946FFF7DDFF03B030BD4174E4
:106C48007047704708B50021007CFFF7ADFB30EABC
:106C5800200028BF4FF0FF3008BD08B50121007C97
:106C6800FFF7A2FB30EA200028BF4FF0FF3008BD35
:106C780008B5007CFFF790FB20EAE07008BD08B576
:106C8800007CFFF781FB20EAE07008BD007CFFF77D
:106C98009BBB10B51421044600F071FE204610BDC0
:106CA80038B50446007C0D46FFF776FB002801DC6A
:106CB800607C28B12946207CFFF77EFB20EAE07043
:106CC80038BD000010B50446002363604FF47A73A2
:106CD800A360054B236001230846217463741146A1
:106CE800FFF742FB204610BDE4AE0D000022007CF9
:106CF800FFF742BB10B514220446002101F0B3FC93
:106D0800204610BD30B50E4D87B001A8FFF7F2FF41
:106D1800296811F0010410D12846FDF7CBF960B1BC
:106D280001AA21460748FFF7CDFF2846FDF7C7F916
:106D3800054A0649034800F01DFE024807B030BD69
:106D4800FCE3032000E40320D8E003204B6C0D0093
:106D580070474174704708B5007CFFF77DFA20EA58
:106D6800E07008BD08B5007CFFF74EFA20EAE07035
:106D780008BD08B5007CFFF757FA30EA200028BFA5
:106D88004FF0FF3008BD08B5007CFFF745FA30EA40
:106D9800200028BF4FF0FF3008BD007CFFF74CBA39
:106DA80010B51421044600F0EAFD204610BD70B568
:106DB800457C04460E4625B9007CFFF74DFA0028AD
:106DC80005DD3146207CBDE87040FFF715BA28463E
:106DD80070BD000010B504460846114600226260E6
:106DE8004FF47A72A260054A22600122207462740C
:106DF8001A46FFF7F9F9204610BD00BF14AF0D0081
:106E0800007CFFF721BA000038B50C4D296811F055
:106E1800010411D12846FDF74DF968B1084A094B1C
:106E280009482146FFF7D6FF2846FDF748F9074AE3
:106E38000749054800F09EFD034838BDACE403202F
:106E4800B0E4032028E4032014E40320D8E003205E
:106E5800596D0D007047F8B5064615460C468F1853
:106E6800BC4206D0336814F8011B9B68304698472B
:106E7800F6E72846F8BD0022007CFFF70DBA00218E
:106E8800007CFFF711BA0021007CFFF715BA00213A
:106E9800007CFFF719BA0021007CFFF71DBA10B576
:106EA8001421044600F06BFD204610BD10B50446C1
:106EB8004FF47A730846A3600021044B2074616084
:106EC8002360FFF719FA204610BD00BF44AF0D003C
:106ED80000231A461946007CFFF7C6B90022007C39
:106EE800FFF7CAB9C9B2FFF7F9BF0022007CFFF764
:106EF800CBB90121FFF7F9BF0021007CFFF7F4B9F6
:106F0800002211464068FFF7D3BA002211464068B4
:106F1800FFF7DEBA00224068FFF7D2BA002281F0FC
:106F280001014068FFF7BCBA00231A4619464068B9
:106F3800FFF7AEBA00231A4619464068FFF7A0BA11
:106F4800002211464068FFF793BA002211464068B4
:106F5800FFF77EBA002202214068FFF781BA0023BA
:106F68001A464068FFF76CBA38B5054688B1046818
:106F78004CB1A3681BB10322214620469847102133
:106F8800204600F0FCFC28461421BDE8384000F0FB
:106F9800F6BC38BD10B103685B681847704710B578
:106FA80003680446BBB15868FFF7DEF878B9236870
:106FB8005A7C12B95868FFF7DFF823685868FFF75A
:106FC800E3F820680023236028B1FFF7CDFF20688D
:106FD80008B1FFF7C9FF204610BD000038B50C4BBB
:106FE80003600446D0F8CC0108B1FDF756F8D4F890
:106FF800C45135B12846FFF7D2FF0421284600F0D6
:10700800BEFCA06808B1FFF7C5FF204638BD00BF29
:107018006CAF0D0038B50D4C0D4B236000250223D5
:1070280004F5E4706360A560C4F8C451C4F8C8519D
:10703800FFF7BAF8074BC4F8CC5123602046064A3C
:107048000649BDE8384000F095BC00BF34E5032090
:1070580054B00D006CAF0D00D8E00320E56F0D00B3
:1070680037B502AC036804F8011DDD6B01224FF04F
:10707800FF332146A84703B030BD10B40368DC6B6A
:107088004FF0FF33A4465DF8044B604737B502ACB8
:10709800036804F8011DDD6B214613460122A84749
:1070A80003B030BD704738B543691A68002A0446F2
:1070B80005DAB3F88620B3F884309A4201D0012566
:1070C8000BE003681B699847002814BF01250025B9
:1070D80003D123682046DB6A9847284638BD4369B0
:1070E8001868C043C00F704770470020704710B53C
:1070F8001421044600F043FC204610BDFCF7CBBF2A
:107108002DE9F0439846036893B0DB6A0C460646BF
:107118001746984712AB002543F8485D2A4629468A
:107128002046FEF781FF00283ADB009B002B39D070
:107138005B69002B36D006A8FFF726FD009B5C692B
:107148006378022B01D1211D13E00A2B14D11122DF
:10715800294601A801F087FAA36833BBE36823BB7B
:107168004FF6FF702569FFF72FF885421DD104F10E
:10717800140106A8FFF758FD06A8FFF725FD88B1FA
:10718800336807ADD3F82090184B0C930FCD0DAC96
:107198000FC42B6823703A4643460CA93046C847AB
:1071A80004461CE04FF0FF3419E004F1080301AD78
:1071B8001834186859682A4603C20833A34215468A
:1071C800F7D1062301A90CA80DAD8DF81430FFF7EF
:1071D800E9FC0FCD07AC0FC42B682370CCE70098EF
:1071E800FEF71AFF204613B0BDE8F083D0AE0D00BD
:1071F8007FB5164600224260029203925A1C04464A
:107208000D4608D04FF47A72B3FBF2F1029102FBFB
:1072180011314A43039260690823009341F2050241
:107228006B4440F6FF710068FFF76EF8002808DB32
:1072380060690023324629460068FFF785F8002870
:1072480004DAFFF77DF903686360002004B070BDBD
:1072580010B5036804469B689847A368013BA36080
:107268002BB923682046DB68BDE81040184710BDDD
:1072780070B504464D69054B44F8043B8C35064609
:107288000FCD0FC42B682370304670BDD0AE0D00F3
:1072980010B54369B3F88620B3F884309A4204469F
:1072A80005D06269B2F884301344187910BD0368B8
:1072B8001B6998470028F4D14FF0FF3010BD10B576
:1072C8004369B3F88620B3F884309A42044608D05C
:1072D8006269B2F88430591C1344A2F884101879F2
:1072E80010BD03681B6998470028F1D14FF0FF30A3
:1072F80010BDF8B543691746B3F88620B3F8843053
:107308009A4205460E4606D103681B69984710B98C
:107318004FF0FF3414E06969B1F88430B1F8864061
:10732800E41ABC4228BF3C46194422460431304680
:1073380001F08EF96A69B2F884302344A2F88430E7
:107348002046F8BD42690023A2F884304269A2F8B9
:10735800863070472DE9F041984603680D468AB09B
:10736800DB6A0646174698472B7D7469042B0CBFC9
:1073780002200A2006220121FEF7EEFF2060736931
:107388001C68002C5BDB3046FFF7DCFFB8F1000F10
:1073980017D0002303A95FFA88F00393ADF81030E3
:1073A800FEF7C2FE002849DB70690623009341F20C
:1073B8000B0203AB40F6FF710068FEF7A5FF00283B
:1073C8003CDB1C242246002103A801F04CF92B7D4C
:1073D8008DF80C40042B0CD1022338468DF80D3063
:1073E800FEF7FAFEADF80E006868FEF7EDFE0490B1
:1073F80013E00A2338468DF80D30FEF7EDFE05AC94
:10740800ADF80E002B1D05F11407186859682246BF
:1074180003C20833BB421446F7D173691C2203A97F
:107428001868FEF781FF002808DB2C1D0FCC766951
:107438008C360FC623683370012404E00446336891
:107448003046DB6A984720460AB0BDE8F08110B59F
:10745800436904461868002801DBFEF75DFF63698D
:107468004FF0FF321A606069112200218C3001F060
:10747800FAF82046BDE81040FFF764BF30B542690E
:10748800B2F886308BB004461BB1B2F884209A4219
:1074980040D06369186800283FDBB3F886507F2D19
:1074A8003BD8191DC5F1800208232944FEF744FF83
:1074B80000280CDD6369B3F886200AB9A3F8842094
:1074C8006269B2F886301844A2F8860025E0FFF712
:1074D80037F803680B2B20D0FFF732F803680B2B23
:1074E8001BD02023002502930395FFF729F8036892
:1074F80001930E4B009302AA2B460D493220FEF74A
:1075080073FF63691868FEF707FF63694FF0FF327E
:107518001A6002E0FFF716FFBBE76269B2F886302F
:10752800B2F88400181A0BB030BD00BF07B00D00C8
:1075380000B00D0010B5002304460160A0F88430A7
:10754800A0F886308830FFF71FFB204610BD0000EA
:107558004FF47A7270B500238260144A4360026067
:10756800436183610446A0200E46FCF790FD054662
:1075780010B13146FFF7DEFF1420FCF788FD034603
:1075880028B1012242608260094A02600561A0694F
:107598006561A36128B14368013B43600BB9FFF7FC
:1075A80057FE2046FFF7CEFE204670BDBCAF0D004B
:1075B800A0AF0D0010B54FF0FF310446FFF7C8FF2C
:1075C800204610BD10B504460068002801DBFEF710
:1075D800A3FE204610BD10B504692046FFF7F2FF50
:1075E80024B12046BDE81040FCF755BD10BD00226F
:1075F80011464068FEF73CBF002211464068FEF77E
:1076080057BF002211464068FEF762BF002240685B
:10761800FEF756BF002281F001014068FEF740BF27
:1076280000231A4619464068FEF732BF00231A465F
:1076380019464068FEF724BF002211464068FEF74D
:1076480007BF002202214068FEF70ABF00231A463E
:107658004068FEF7F5BE0000024B04225A60024A59
:107668001A60704704E7032020B00D0000231A4673
:107678004068FEF7E5BE002202214068FEF7F0BE32
:10768800002211464068FEF7E3BE0022114640681A
:10769800FEF7EEBE00231A4619464068FEF7F0BE14
:1076A80000231A4619464068FEF7F2BE002281F010
:1076B80001014068FEF7F4BE00224068FEF700BFF3
:1076C800002211464068FEF703BF002211464068B9
:1076D800FEF7EEBE2DE9F043002495B016460D46A0
:1076E8000746FFF751FA214620220CA8009400F023
:1076F800BAFF40230C9321466B460CAA3046FEF78E
:1077080093FC0446002844D1024601216868FEF72C
:10771800AFFE0221804622466868FEF7A9FE009E59
:1077280081462146002E34D0002932D17368022BBD
:1077380002D00A2B09D02AE0B8F1000F27D07169CE
:1077480038460431FFF770FA20E0B9F1000F1ED077
:107758007469112201A800F086FF06238DF8143001
:1077680001AD04F108031834186859682A4603C2A1
:107778000833A3421546F7D101A906A807ADFFF7BC
:1077880011FA0FCD3C1D0FC42B6823700121F66937
:10779800C8E70098FEF740FC384615B0BDE8F0830E
:1077A800024B034A1A6000225A6070470CE7032014
:1077B80054B00D0010B504460F48FEF789FF28B1F4
:1077C800A4F10B03022B01D8002010BD00F0B2F881
:1077D800FFF792FB08B1012CF6D9FFF715FBFFF76D
:1077E8000FFB18B1A4F10903012BEDD9232C8CBF91
:1077F8000020012010BD00BF14E70320232838B55E
:1078080004460D460AD8FF2908D0FFF7D3FF28B150
:1078180029462046BDE83840FEF71EBC38BD38B5BD
:1078280004460D46FEF720FCFF2810D0062804D891
:107838004D2323FA00F0C30709D42046FFF7BAFF07
:1078480028B129462046BDE83840FEF715BC38BDAA
:1078580010B50446FEF708FC0438C0B2012808D960
:107868002046FFF7A7FF20B12046BDE81040FEF7ED
:107878000BBC002010BD0D2810B504469CBF0E346B
:10788800A4B22046FFF796FF50B103212046FEF729
:10789800DBFB032804D12046BDE81040FEF704BCFA
:1078A800002010BD38B504460D46FFF783FFF0B140
:1078B80004212046FEF7C8FB042805D1A9B22046BA
:1078C800BDE83840FEF7E8BB02212046FEF7BCFBC6
:1078D80002280CD12046FEF7C7FB012801D0042856
:1078E80005D129462046BDE83840FEF7E5BB38BD3E
:1078F80070B50C4C0C4E0D4D00212046FEF76EFE67
:1079080020460B4C3246294600F034F80121204627
:10791800FEF764FE324629462046BDE8704000F076
:1079280029B800BF14E70320D8E00320D5650D006F
:1079380024E7032038B50B4D296811F001040FD155
:107948002846FCF7B7FB58B121460748FFF7AEFABF
:107958002846FCF7B4FB054A0549034800F00AF835
:10796800014838BD38E703203CE70320D8E003206E
:107978005D6E0D000B460146184600F057BEFCF739
:107988008ABB0000184B1A68D1075CBF01221A6035
:10799800164B1A68D2075CBF01221A60144B1A688A
:1079A800D0075CBF01221A60124B1A68D1075CBF6E
:1079B80001221A60104B1A68D2075CBF01221A60B4
:1079C8000E4B1A68D0075CBF01221A600C4B1A686C
:1079D800D1075CBF01221A600A4B1A68D2075CBF44
:1079E80001221A60704700BF6CE7032068E7032094
:1079F80064E7032060E703205CE7032058E70320DF
:107A080054E7032050E70320244B1A68D0075CBFD3
:107A180001221A60224B1A68D1075CBF01221A6042
:107A2800204B1A68D2075CBF01221A601E4B1A68E5
:107A3800D0075CBF01221A601C4B1A68D1075CBFD3
:107A480001221A601A4B1A68D2075CBF01221A6019
:107A5800184B1A68D0075CBF01221A60164B1A68C7
:107A6800D1075CBF01221A60144B1A68D2075CBFA9
:107A780001221A60124B1A68D0075CBF01221A60F3
:107A8800104B1A68D1075CBF01221A600E4B1A68A6
:107A9800D2075CBF01221A60704700BF9CE7032031
:107AA80098E7032094E7032090E703208CE703205E
:107AB80088E7032084E7032080E703207CE703208E
:107AC80078E7032074E7032070E70320244B1A6843
:107AD800D0075CBF01221A60224B1A68D1075CBF2D
:107AE80001221A60204B1A68D2075CBF01221A6073
:107AF8001E4B1A68D0075CBF01221A601C4B1A681B
:107B0800D1075CBF01221A601A4B1A68D2075CBF02
:107B180001221A60184B1A68D0075CBF01221A604C
:107B2800164B1A68D1075CBF01221A60144B1A68F9
:107B3800D2075CBF01221A60124B1A68D0075CBFDB
:107B480001221A60104B1A68D1075CBF01221A6023
:107B58000E4B1A68D2075CBF01221A60704700BF3B
:107B6800CCE70320C8E70320C4E70320C0E70320CD
:107B7800BCE70320B8E70320B4E70320B0E70320FD
:107B8800ACE70320A8E70320A4E70320A0E703202D
:107B9800184B1A68D1075CBF01221A60164B1A6885
:107BA800D2075CBF01221A60144B1A68D0075CBF69
:107BB80001221A60124B1A68D1075CBF01221A60B1
:107BC800104B1A68D2075CBF01221A600E4B1A6864
:107BD800D0075CBF01221A600C4B1A68D1075CBF42
:107BE80001221A600A4B1A68D2075CBF01221A6088
:107BF800704700BFECE70320E8E70320E4E7032031
:107C0800E0E70320DCE70320D8E70320D4E70320DC
:107C1800D0E7032081F0004102E000BF83F0004379
:107C280030B54FEA41044FEA430594EA050F08BF0F
:107C380090EA020F1FBF54EA000C55EA020C7FEAD3
:107C4800645C7FEA655C00F0E2804FEA5454D4EB50
:107C58005555B8BF6D420CDD2C4480EA020281EA1A
:107C6800030382EA000083EA010180EA020281EA52
:107C78000303362D88BF30BD11F0004F4FEA0131A4
:107C88004FF4801C4CEA113102D0404261EB4101B3
:107C980013F0004F4FEA03334CEA133302D0524239
:107CA80063EB430394EA050F00F0A780A4F10104F5
:107CB800D5F1200E0DDB02FA0EFC22FA05F280182F
:107CC80041F1000103FA0EF2801843FA05F3594115
:107CD8000EE0A5F120050EF1200E012A03FA0EFC94
:107CE80028BF4CF0020C43FA05F3C01851EBE371BE
:107CF80001F0004507D54FF0000EDCF1000C7EEBDB
:107D080000006EEB0101B1F5801F1BD3B1F5001F18
:107D18000CD349085FEA30004FEA3C0C04F1010437
:107D28004FEA445212F5800F80F09A80BCF1004F60
:107D380008BF5FEA500C50F1000041EB045141EAE2
:107D4800050130BD5FEA4C0C404141EB010111F4E3
:107D5800801FA4F10104E9D191F0000F04BF01468E
:107D68000020B1FA81F308BF2033A3F10B03B3F16C
:107D780020020CDA0C3208DD02F1140CC2F10C02FC
:107D880001FA0CF021FA02F10CE002F11402D8BF5A
:107D9800C2F1200C01FA02F120FA0CFCDCBF41EA26
:107DA8000C019040E41AA2BF01EB0451294330BDF5
:107DB8006FEA04041F3C1CDA0C340EDC04F11404D2
:107DC800C4F1200220FA04F001FA02F340EA0300A9
:107DD80021FA04F345EA030130BDC4F10C04C4F1EF
:107DE800200220FA02F001FA04F340EA03002946CF
:107DF80030BD21FA04F0294630BD94F0000F83F419
:107E0800801306BF81F480110134013D4EE77FEAFB
:107E1800645C18BF7FEA655C29D094EA050F08BF47
:107E280090EA020F05D054EA000C04BF1946104628
:107E380030BD91EA030F1EBF0021002030BD5FEA6C
:107E4800545C05D14000494128BF41F0004130BD94
:107E580014F580043CBF01F5801130BD01F00045E8
:107E680045F0FE4141F470014FF0000030BD7FEA5B
:107E7800645C1ABF194610467FEA655C1CBF0B4656
:107E8800024650EA013406BF52EA033591EA030F6D
:107E980041F4002130BD00BF90F0000F04BF002165
:107EA800704730B54FF4806404F132044FF0000598
:107EB8004FF0000150E700BF90F0000F04BF002111
:107EC800704730B54FF4806404F1320410F0004577
:107ED80048BF40424FF000013EE700BF42004FEA72
:107EE800E2014FEA31014FEA02701FBF12F07F43EF
:107EF80093F07F4F81F06051704792F0000F14BFEC
:107F080093F07F4F704730B54FF4607401F000452F
:107F180021F0004120E700BF50EA010208BF704786
:107F280030B54FF000050AE050EA010208BF70477B
:107F380030B511F0004502D5404261EB41014FF4E4
:107F4800806404F132045FEA915C3FF4DCAE4FF0E8
:107F580003025FEADC0C18BF03325FEADC0C18BFCF
:107F6800033202EBDC02C2F1200300FA03FC20FA20
:107F780002F001FA03FE40EA0E0021FA02F114446D
:107F8800C1E600BF70B54FF0FF0C4CF4E06C1CEA82
:107F980011541DBF1CEA135594EA0C0F95EA0C0FF7
:107FA80000F0DEF82C4481EA030621EA4C5123EA6A
:107FB8004C5350EA013518BF52EA033541F4801199
:107FC80043F4801338D0A0FB02CE4FF00005E1FB4C
:107FD80002E506F00042E0FB03E54FF00006E1FB96
:107FE80003569CF0000F18BF4EF0010EA4F1FF04D9
:107FF800B6F5007F64F5407404D25FEA4E0E6D4119
:1080080046EB060642EAC62141EA55514FEAC52029
:1080180040EA5E504FEACE2EB4F1FD0C88BFBCF5A5
:10802800E06F1ED8BEF1004F08BF5FEA500E50F156
:10803800000041EB045170BD06F0004646EA01011C
:1080480040EA020081EA0301B4EB5C04C2BFD4EB4E
:108058000C0541EA045170BD41F480114FF0000E47
:10806800013C00F3AB8014F1360FDEBF002001F0B5
:10807800004170BDC4F10004203C35DA0C341BDC2F
:1080880004F11404C4F1200500FA05F320FA04F001
:1080980001FA05F240EA020001F0004221F0004135
:1080A80010EBD37021FA04F642EB06015EEA430EA8
:1080B80008BF20EAD37070BDC4F10C04C4F12005D8
:1080C80000FA04F320FA05F001FA04F240EA02008B
:1080D80001F0004110EBD37041F100015EEA430E5C
:1080E80008BF20EAD37070BDC4F1200500FA05F27C
:1080F8004EEA020E20FA04F301FA05F243EA0203FB
:1081080021FA04F001F0004121FA04F220EA020009
:1081180000EBD3705EEA430E08BF20EAD37070BD4F
:1081280094F0000F0FD101F00046400041EB01012F
:1081380011F4801F08BF013CF7D041EA060195F011
:10814800000F18BF704703F00046520043EB0303CB
:1081580013F4801F08BF013DF7D043EA06037047B8
:1081680094EA0C0F0CEA135518BF95EA0C0F0CD0C3
:1081780050EA410618BF52EA4306D1D181EA030109
:1081880001F000414FF0000070BD50EA410606BF03
:108198001046194652EA430619D094EA0C0F02D148
:1081A80050EA013613D195EA0C0F05D152EA03368D
:1081B8001CBF104619460AD181EA030101F00041AB
:1081C80041F0FE4141F470014FF0000070BD41F0F4
:1081D800FE4141F4780170BD70B54FF0FF0C4CF4CE
:1081E800E06C1CEA11541DBF1CEA135594EA0C0FED
:1081F80095EA0C0F00F0A7F8A4EB050481EA030E3A
:1082080052EA03354FEA013100F088804FEA033320
:108218004FF0805545EA131343EA12634FEA0222EE
:1082280045EA111545EA10654FEA00260EF00041AF
:108238009D4208BF964244F1FD0404F5407402D201
:108248005B084FEA3202B61A65EB03055B084FEA92
:1082580032024FF480104FF4002CB6EB020E75EB8F
:10826800030E22BFB61A754640EA0C005B084FEAB7
:108278003202B6EB020E75EB030E22BFB61A754634
:1082880040EA5C005B084FEA3202B6EB020E75EB7F
:10829800030E22BFB61A754640EA9C005B084FEAF7
:1082A8003202B6EB020E75EB030E22BFB61A754604
:1082B80040EADC0055EA060E18D04FEA051545EAF3
:1082C80016754FEA06164FEAC30343EA52734FEA9C
:1082D800C2025FEA1C1CC0D111F4801F0BD141EA15
:1082E80000014FF000004FF0004CB6E711F4801F7A
:1082F80004BF01430020B4F1FD0C88BFBCF5E06F5A
:108308003FF6AFAEB5EB030C04BFB6EB020C5FEA69
:10831800500C50F1000041EB045170BD0EF0004EBE
:108328004EEA113114EB5C04C2BFD4EB0C0541EAF0
:10833800045170BD41F480114FF0000E013C90E6ED
:1083480045EA060E8DE60CEA135594EA0C0F08BFB1
:1083580095EA0C0F3FF43BAF94EA0C0F0AD150EAB0
:1083680001347FF434AF95EA0C0F7FF425AF104643
:1083780019462CE795EA0C0F06D152EA03353FF46B
:10838800FDAE1046194622E750EA410618BF52EAE8
:1083980043067FF4C5AE50EA41047FF40DAF52EABC
:1083A80043057FF4EBAE12E74FF0FF3C06E000BF59
:1083B8004FF0010C02E000BF4FF0010C4DF804CD66
:1083C8004FEA410C7FEA6C5C4FEA430C18BF7FEA26
:1083D8006C5C1BD001B050EA410C0CBF52EA430C54
:1083E80091EA030F02BF90EA020F0020704710F1D4
:1083F800000F91EA030F58BF994208BF90422CBF63
:10840800D8176FEAE37040F0010070474FEA410C5B
:108418007FEA6C5C02D150EA013C07D14FEA430C79
:108428007FEA6C5CD6D152EA033CD3D05DF8040BEA
:10843800704700BF8446104662468C46194663461C
:1084480000E000BF01B5FFF7B7FF002848BF10F1F3
:10845800000F01BD4DF808EDFFF7F4FF0CBF012038
:1084680000205DF808FB00BF4DF808EDFFF7EAFFB4
:1084780034BF012000205DF808FB00BF4DF808ED6F
:10848800FFF7E0FF94BF012000205DF808FB00BF64
:108498004DF808EDFFF7CEFF94BF012000205DF8EE
:1084A80008FB00BF4DF808EDFFF7C4FF34BF0120FB
:1084B80000205DF808FB00BF4FEA410C7FEA6C5CC6
:1084C80002D150EA013C0AD14FEA430C7FEA6C5CC6
:1084D80002D152EA033C02D14FF0000070474FF03E
:1084E800010070474FEA410212F5001215D211D56A
:1084F8006FF47873B3EB625212D94FEAC12343F099
:10850800004343EA505311F0004F23FA02F018BF1A
:10851800404270474FF00000704750EA013005D1E3
:1085280011F0004008BF6FF0004070474FF00000A6
:10853800704700BF4A0011D212F5001211D20DD5B2
:108548006FF47873B3EB62520ED44FEAC12343F051
:10855800004343EA505323FA02F070474FF00000FB
:10856800704750EA013002D14FF0FF3070474FF0AA
:10857800000070474FEA4102B2F1E04324BFB3F56F
:10858800001CDCF1FE5C0DD901F0004C4FEAC00282
:108598004CEA5070B2F1004F40EB830008BF20F066
:1085A8000100704711F0804F21D113F13872BCBF20
:1085B80001F00040704741F480114FEA5252C2F175
:1085C8001802C2F1200C10FA0CF320FA02F018BFBE
:1085D80040F001004FEAC1234FEAD32303FA0CFC11
:1085E80040EA0C0023FA02F34FEA4303CCE77FEAA0
:1085F800625307D150EA01331EBF4FF0FE4040F4EA
:108608004000704701F0004040F0FE4040F4000098
:10861800704700BF002100F0AFBE0A22002100F021
:1086280039BF0A22002100F035BF000010B5054C03
:1086380013462CB10A4601460220AFF3008010BD54
:10864800204610BD0000000000487047A0E003204D
:1086580010B5431E0A44914204D011F8014B03F8A7
:10866800014FF8E710BD02440346934202D003F8D5
:10867800011BFAE77047000038B5124B1C68A36B62
:108688000546D3B91820FDF73BFF43F20E33A0632C
:1086980003804AF6CD33438041F2342383804EF27F
:1086A8006D63C3804DF6EC630381052343810B237F
:1086B800838101220023C0E90423A36B00221D61EA
:1086C8005A6138BD9CE0032010F8012B11F8013BDA
:1086D800012A28BF9A42F7D0D01A7047034613F8E8
:1086E800012B002AFBD1181A0138704730B582B126
:1086F800451E013915F8013F11F8014FA34206D173
:10870800EC431444E04201D0002BF3D11C46181B63
:1087180030BD104630BD10B5034642B111F8014BCB
:1087280003F8014B013A002CF7D11A4400E010BDC0
:10873800934202D003F8014BFAE710BD70B5044626
:108748000D4645EC104B164601F092FC51EC100B0F
:108758007EB1C5F30A53C3F16B03002B09DD1B057A
:1087680003F17F55002405F5401522462B46FFF7F7
:1087780009FC70BD000000002DE9F04F9DB00023FA
:1087880002900C46139218934FF0000A4FF0000B1A
:108798001791179B1A780D2A05D8092A13D2002A8F
:1087A80000F0AC8112E02B2A04D02D2A04D0202A14
:1087B8000CD108E0002200E001220C925A1C17920A
:1087C8005B782BB99AE101331793E2E700230C9306
:1087D800179D2B78302B5CD16B78582B01D0782BD8
:1087E8004CD10C9B019318AB0093A94A029819AB82
:1087F80017A900F0A4FE10F00706044600F08785CC
:10880800062E05D10135002317950C9300F07FBD86
:10881800189A3AB135211AA801F017FD189902984B
:1088280001F094F9062E22D8DFE806F0040D0818A6
:108838001D0D04004FF0000BDA4618E0DDF868A0C3
:10884800DDF86CB013E01B9B199ADDF868A023F4DF
:10885800801302F2334243EA025B08E0DFF834B2E5
:108868004FF0000A03E06FF0004B4FF0FF3A21078A
:1088780040F14D854BF0004B00F049BD179B5A1C49
:1088880017925B78302BF9D0002B00F0408501233C
:1088980000E000234FF000080693179B0793CDF8DC
:1088A8001480CDF810800A22179D2E78A6F1300387
:1088B800D9B209290ED804990829DDBF059902FB08
:1088C8000133059302FB0838049B013501330493F7
:1088D8001795E9E70298FFF7B7FE07680298FFF7D0
:1088E800B3FE0068FFF7FAFE394602462846FFF74E
:1088F800FDFE074628B100203346049D0246014686
:1089080057E00298FFF7A0FE0068FFF7E7FE179B05
:108918001A181792049A1B5C002A42D11046302B71
:1089280005D1179B5A1C179201305B78F7E7A3F122
:108938003102082A43D8179A0792024600200546B2
:10894800303B00F1010126D00A4405EB000C294612
:108958000A2661450ED0013101F1FF3EBEF1080F34
:1089680003DC059F77430597F3E71029D8BF06FB7B
:1089780008F8EEE72844082800F1010505DC059809
:108988000A2101FB0033059304E0102DDCBF0A2106
:1089980001FB08380021179B581C17905B78084684
:1089A80002E0049D38463A46A3F130010929C7D9A7
:1089B8000121652B01D0452B51D16DB904E0652B00
:1089C80040F0B3840022012128B9069B002B00F057
:1089D8009580054600E00025179C631C1793637873
:1089E8002B2B06D02D2B02D00026039606E0012360
:1089F80000E000230393A31C1793A378A3F1300688
:108A0800092E2BD8302B04D1179B5E1C17965B7848
:108A1800F8E7A3F13106082E21D8A3F1300E179BF1
:108A28004FF00A0C1F46179B5E1C17965B78A3F144
:108A38003009B9F1090F04D80CFB0E3EAEF1300E27
:108A4800F1E7F61B082E44F61F6902DCF145A8BFC2
:108A5800F146039E2EB1C9F1000902E017944FF0C8
:108A68000009002D53D1002840F05184069A002AAD
:108A780040F04D84002941D14E2B20D002DC492BF7
:108A88000AD03BE0692B07D06E2B18D036E000BF28
:108A9800ECB10D000000F07FA84917A800F080FF96
:108AA80060B3179BA649013B17A8179300F078FFFE
:108AB80010B9179B01331793DFF8A0B21AE0A14948
:108AC80017A800F06DFFC8B1179B1B78282B0FD192
:108AD8001AAA9D4917A800F076FF052808D11B9B04
:108AE800DDF868A043F0FF4B4BF4E00B00F00FBC3F
:108AF800DFF86CB24FF0000A00F009BC139B179422
:108B0800002B00F00F8400230C9300F002BC049BA0
:108B18000598002B08BF2B46102D2C46C2EB0909DF
:108B2800A8BF10240493FFF7B7F9092C82468B4697
:108B380013DD864B03EBC40353E91223FFF722FA34
:108B4800064640460F46FFF7A7F902460B46304651
:108B58003946FFF765F882468B460F2D36DCB9F1AA
:108B6800000F00F0D48324DDB9F1160F07DC774D30
:108B780005EBC90952465B46D9E9000114E0C5F185
:108B88002503994522DC714CC5F10F0504EBC5019D
:108B9800C5EB090552465B46D1E9000104EBC50463
:108BA800FFF7F0F9D4E90023FFF7ECF982468B468A
:108BB800ADE319F1160F09DB644DA5EBC909D9E935
:108BC800002350465946FFF707FBEFE72C1B4C44A0
:108BD800002C57DD14F00F010AD05C4B03EBC101E8
:108BE80052465B46D1E90001FFF7CCF982468B4635
:108BF80034F00F0400F0B880B4F59A7F0BDD002440
:108C0800254605940494029ADFF850B12223136094
:108C18004FF0000A87E14E4E002324115046594672
:108C280098463746012C0BDDE20704D5D6E9002328
:108C3800FFF7A8F9012308F1010864100836F1E7E5
:108C48000BB182468B46ABF1547B07EBC807524603
:108C58005B46D7E90001FFF795F921F000438B4601
:108C68000A461B0D3B491B058B428246C7D8A1F516
:108C780080118B4286BFDFF8ECB04FF0FF3A02F16B
:108C8800547B71E070D0644214F00F020AD02F4B6D
:108C980003EBC20350465946D3E90023FFF79CFA79
:108CA80082468B4624115FD01F2C04DD0024254604
:108CB8000594049430E114F0100F0CBF00236A23CC
:108CC800254E0393504659460023002C09DDE20740
:108CD80004D5D6E90023FFF755F9012364100836B7
:108CE800F3E70BB182468B46039BEBB1CBF30A53F8
:108CF800C3F16B03002B594616DD1F2B0EDD342BF9
:108D0800DEBF203B4FF0FF3202FA03F34FF0000AB8
:108D1800CCBF4FF05C7B03EA010B05E04FF0FF325C
:108D280002FA03F303EA0A0A0022002350465946CE
:108D3800FFF790FB0028B9D118E000BFC3AD0D00C4
:108D480014B20D00B9AD0D0000B20D0048B20D000F
:108D580010B30D000000A07C20B20D000000F07FD1
:108D68000000F8FFFFFFEF7F00230393059B0093AC
:108D7800049A079902982B4600F03AFF05900028BC
:108D88003FF43DAFB9F1000FC9F10003A8BF0023BC
:108D98000D93002429EAE97312932546059B02984E
:108DA800596800F09EFE049000283FF42CAF059B04
:108DB8001A69023203F10C0192000C30FFF748FCEB
:108DC8001AAA19A94BEC10AB0298CDE908AB01F02F
:108DD800C4F9189000283FF416AF0121029800F05A
:108DE80092FF054600283FF40EAF199B03991A9E7F
:108DF800002BADBF0D9A129ADDF8348002EB030800
:108E0800B8BFD21AA3EB01033344B549A8BF129ADD
:108E1800013B8B42C6F1360680F28A80C91A1F29A7
:108E2800C8BFB04F4FF00109D4BF09FA01F3FF1AC8
:108E3800A6EB0106D9BF0693002709FA07F7CDF874
:108E4800189008EB0609039BC84516441E44434680
:108E5800A8BF4B46B342A8BF3346002BC2BFC3EBE3
:108E68000909F61AC3EB08080D9B002B64D1B9F168
:108E7800000F7ADC129B002B40F08180002E00F35B
:108E88008880B8F1000F00F38E80049A1899029830
:108E980001F08FF8044600283FF4B5AEC368079385
:108EA8000023C360294601F068F8002880F2898011
:108EB800079B002B40F00482BAF1000F40F00082BB
:108EC800CBF31303002B40F0FB812BF000431B0D69
:108ED8001B05B3F1D66F40F2F3816369002B6CD0A8
:108EE80021460122029800F0F7FF2946044601F0C6
:108EF80044F8002840F3E4812BF00043039A1B0D4B
:108F08001B05002A00F08C80B3F1D66F00F388802F
:108F1800B3F15C7F00F3D681029A22234FF0000A56
:108F28004FF0000B1360059B002B40F0DC81EEE155
:108F380001230027069384E729461A46029800F081
:108F48007DFF054600283FF45EAE0146189A029858
:108F580000F0E2FE079000283FF455AE18990298F9
:108F680000F0F4FD079B189381E74A461899029888
:108F780000F0B2FF189000287FF47CAF43E6129A05
:108F88000499029800F05AFF049000287FF476AF05
:108F980039E632460499029800F09EFF04900028B2
:108FA8007FF46FAF2FE629464246029800F094FFFF
:108FB800054600287FF469AF25E62369012B8FDC7D
:108FC8007EE161D1079ACBF3130322B346498B4262
:108FD8005A462ED1039B514663B1444B1340B3F11B
:108FE800D46F07D81B0DC3F16B034FF0FF3000FAA5
:108FF80003F301E04FF0FF338B421AD13C498A4218
:1090080002D101333FF4FFAD384B134003F5801B09
:109018004FF0000A54E163B9BAF1000F09D16BE7C8
:10902800A3F580136FEA135B6FEA0B5B4FF0FF3A0F
:1090380046E117B117EA0B0F02E0069B13EA0A0F85
:1090480000F03E81079B039A5046594653B1FFF7FB
:1090580075FB02460B46DDE90801FEF7E1FD824695
:109068008B462DE1FFF76AFB02460B46DDE9080156
:10907800FEF7D4FD0022002382468B46FFF7EAF96B
:1090880000287FF449AF1BE12946204601F0B3F8D8
:1090980057EC106B00224FF0804310EE100A39464F
:1090A800FFF7ECF9002842D0079B23B14FF00008E6
:1090B800DFF8409011E0BAF1000F03D1CBF31303AE
:1090C8003BB91BE0BAF1010F03D1BBF1000F3FF42C
:1090D80023AFDFF824904FF000080026054F39E051
:1090E80002FCFFFFE2FBFFFFFFFF0F000000F07F25
:1090F800FFFFEF7F0000F03F0000F0BF0022984B19
:1091080030463946FFF7B0F940B9304639460022B3
:10911800944BFEF737FF06460F4601E0914F0026B5
:1091280007F1004314961593DDE9148912E08D4B7D
:10913800304639460022FEF725FF079B06460F46B4
:1091480023B901F100430E900F9301E0CDE90E67BA
:10915800DDE90E892BF000431B0D1B050693069ACB
:10916800814B9A422BD1DDE90823ABF1547B4BECC0
:1091780010ABCDE90A2300F07BFF404653EC102BDF
:109188004946FEF7FFFE52465B46FEF749FD21F0D1
:1091980000431B0D754A1B05934282460CD9744B3C
:1091A8000B9A9A4203D10A9B01333FF42CADDFF8A6
:1091B800C0B14FF0FF3A72E001F1547B38E0039BF5
:1091C80033B3069BB3F1D46F22D85DA3D3E9002350
:1091D80030463946FFF752F9A8B139463046FFF70D
:1091E800A9F9002808BF0120FEF756FE079B06468E
:1091F8000F4623B901F100431090119301E0CDE926
:109208001067DDE91089069A09F1D663C2EB0309F4
:109218009DED080B00F02CFF404653EC102B4946FF
:10922800FEF7B0FEDDE90823FEF7FAFC82468B461E
:10923800039BA3BB2BF000431B0D069A1B059A4208
:10924800D8462CD139463046FFF74CF9FEF734FEA4
:109258000B46024639463046FEF7E0FC079B0646B9
:109268000F462BB9BAF1000F02D1CBF3130383B128
:1092780035A3D3E9002330463946FFF7F5F800282F
:1092880031D133A3D3E9002330463946FFF70AF931
:1092980004E031A3D3E90023FFF7E6F818BB1899D7
:1092A800029800F053FC0499029800F04FFC2946FC
:1092B800029800F04BFC2146029800F047FC6DE54F
:1092C800039B83B12B4B0B9300230A9350465946BB
:1092D800DDE90A23FEF756FE82468B4619B910B916
:1092E800029A222313601899029800F02FFC04991F
:1092F800029800F02BFC2946029800F027FC0599FB
:10930800029800F023FC2146029800F01FFC139BF2
:1093180013B1139A179B13600C9B1BB152460BF1A8
:10932800004307E052465B4604E000252A46012137
:10933800FFF741BB43EC102B1DB0BDE8F08F00BF19
:109348000000C0FFFFFFDF419535A094FFFFDF3F1E
:1093580035E5AF350000E03F9535A094FFFFCF3FDE
:109368000000F03F0000E03F0000E07FFFFF9F7C2F
:10937800FFFFEF7F00005039024B0A46014618688C
:10938800FFF7FAB99CE003202DE9F04780464048F2
:10939800D0F800900F463D4615F8014B09EB040044
:1093A800407800F0080000F0FF0608B12F46F2E709
:1093B8002D2C03D1BD1C7C78012603E02B2C04BF87
:1093C8007C78BD1C13B1102B0AD15BE0302C57D12F
:1093D800287800F0DF0058284DD16C78102302352A
:1093E800002E14BF4FF0004C6FF0004C0027BCFB60
:1093F800F3FA384603FB1ACC09EB040E9EF801E099
:109408001EF0040F01D0303C0BE01EF0030E1BD001
:10941800BEF1010F0CBF4FF0370E4FF0570ECEEBD9
:109428000404A34210DDB7F1FF3F0AD0504506D827
:1094380001D1644503DC03FB0040012701E04FF044
:10944800FF3715F8014BD7E77B1C0CD1002E4FF0E6
:10945800220314BF4FF000406FF00040C8F80030FE
:109468002AB9BDE8F08706B1404272B107B1691E5A
:109478001160BDE8F0873024002BB1D10823AFE795
:109488000A23ADE7302CA3D0AAE7BDE8F08700BFD8
:1094980038E0032013460A46014602480068FFF7F1
:1094A80073BF00BF9CE00320F0B506694B11B342BF
:1094B80000F1140527DA11F01F0105EB860605EB0C
:1094C800830201D1294616E0141D55F82320C1F165
:1094D800200ECA402B46B44209D2276807FA0EF775
:1094E8003A4343F8042B54F8042BCA40F3E71A60B4
:1094F80052B1043308E0B2420B4605D252F8043B9D
:1095080041F8043BF7E72B465B1B9B10036103B94B
:109518004361F0BDA0F13003092B01D820380AE0DF
:10952800A0F16103052B01D8473804E0A0F14103FD
:10953800052B02D82738C0B27047002070472DE9A4
:10954800F04F8BB08A46904606930290FFF77CF85E
:10955800036803931846FFF7C1F8039B019003447F
:109568004FF0000B13F8013C0793DAF80030023390
:109578001F4613F8010B302802D10BF1010BF7E756
:10958800FFF7C8FF0446E0B9019A03993846FFF788
:10959800ADF8002834D1019BF85CFE18FFF7BAFF3C
:1095A80080B33346187830281F4603F10103F9D0F9
:1095B800FFF7B0FFB0FA80F56D0934464FF0010BA4
:1095C80001E000252C463A46164601323078FFF76E
:1095D800A1FF0028F8D1019A03993046FFF786F8D1
:1095E80050B954B9019BF418224616460132307816
:1095F800FFF790FF0028F8D134B1A41BA40003E0C2
:109608003E4600E0044601253378502B01D0702BEC
:109618002AD173782B2B08D02D2B03D0711C4FF037
:10962800000905E04FF0010901E04FF00009B11C05
:109638000878FFF76FFF431EDBB2182B14D8A0F190
:10964800100211F8010FFFF765FF431EDBB2182B5C
:1096580004D80A2303FB0202103AF2E7B9F1000F1B
:1096680000D05242144400E03146CAF800102DB12F
:10967800BBF1000F14BF002006207CE1F31B013B67
:109688002946072B02DD01315B10FAE7029800F04A
:1096980028FA019B00F1140A4FF00009C3F10103F5
:1096A8000546CDF810A0CB460893B7422FD2731EBB
:1096B8000593079A16F8013C93420BD0BBF1200F93
:1096C80016D1049BC3F8009004334FF000090493AB
:1096D800CB460DE0059B089A13449F42EED81846E6
:1096E800019A03990993FFF701F8099B68B1E5E727
:1096F80016F8010CFFF70EFF00F00F0000FA0BF050
:10970800059B49EA00090BF1040B1E46CDE70498B6
:1097180040F8049BCAEB00008010286147014846C6
:1097280000F0A4FAD8F80060381AB04226DD871B8A
:109738003946284600F0A3FDC8B17B1E591103F035
:109748001F024FF001095AF8211009FA02F20A42E1
:109758000ED04B4502DC4FF0020909E0B91E28463D
:1097680000F08DFD0028F6D04FF0030900E0814697
:1097780039462846FFF798FE3C440CE009DA371AC8
:1097880029463A46029800F0A7FBE41B054600F17B
:10979800140A4FF00009D8F808309C4208DD0298F6
:1097A800294600F0D3F9149A00231360A320E2E0BD
:1097B800D8F80400844253DA041BA6422EDCD8F8F9
:1097C8000C30022B1AD0032B1CD0012B1DD1A64222
:1097D8001BD1012E0BDC069AD8F804301360012344
:1097E8002B61CAF80030149B62201D60C3E0711E13
:1097F800284600F044FD0028EDD106E0159B002B1B
:10980800E9D002E0159B002BE5D10298294600F02B
:109818009DF9149A002313605020ACE0671EB9F13B
:10982800000F06D13FB13946284600F028FD814691
:1098380001E04FF001097A11012307F01F0703FA2D
:1098480007F75AF8223021461F42284618BF49F028
:109858000209361BFFF728FE0227D8F8044000E06B
:109868000127B9F1000F00F08180D8F80C30022BE5
:109878000ED0032B10D0012B76D119F0020F73D024
:10988800DAF8000049EA000919F0010F07D16BE086
:10989800159BC3F101031593159B002B64D0D5F8D4
:1098A80010A005F114034FEA8A0903EB090100200F
:1098B8001A68B2F1FF3F02D001321A6020E043F883
:1098C800040B9942F4D8AB689A4512DB6968029890
:1098D800013100F006F92A69023205F10C018346CC
:1098E80092000C30FEF7B4FE2946029800F02EF9DB
:1098F8005D462B695A1C05EB83032A6101225A61D4
:10990800022F05F1140211D1D8F80030013B9E4214
:1099180027D17111012306F01F0603FA06F652F843
:1099280021301E420CBF022701271AE02B699A45F5
:109938000ADA01212846FFF7B7FDD8F808300134C4
:109948009C423FF72CAF0BE016F01F0608D091445D
:10995800C6F1200659F8040C00F088F9B042E8DB9B
:10996800012747F0200701E047F01007149B1D600E
:10997800069B38461C600BB0BDE8F08FC2F10802A8
:10998800920070B5C2F120064368056803FA06F430
:109998002C43D340046040F8043F8842F4D370BDA0
:1099A80030B5036811F8014B01334CB11A78A2F1B4
:1099B8004105192D98BF2032A242F3D0002030BDB6
:1099C8000360012030BD2DE9F04F0B68D0F800B0DE
:1099D8005E1102EB860613F01F0385B018BF04362C
:1099E800351F174600228246019346F8042CA846E4
:1099F8002C46009291461BF8011F00293CD00846CE
:109A080003920291FFF786FD039A00BB0299202971
:109A180016D8009B9945EEDD444505D2072A03DC9C
:109A280041462046FFF7AAFFBC4223D90023A4F1F0
:109A3800040844F8043CCDF8009044461A46DAE796
:109A4800292948D10BF10103CAF8003014E001328A
:109A5800082A09F1010906DDBC42CCD9002344F8E3
:109A6800043C0122043C216800F00F0040EA011088
:109A78002060C0E70822BEE7B9F1000F2BD04445AB
:109A880005D2072A03DC41462046FFF777FFBC4290
:109A98000CD93B4654F8042B43F8042BA542F9D2C1
:109AA800002243F8042B9D42FBD20BE0019B4BB1F3
:109AB800C3F120024FF0FF33D34056F8042C134073
:109AC80046F8043C2B6843B9BD4202D101232B6000
