:02000002D0002C
:1040000000400D00A07A0D00000006000C00050124
:08401000040115050000000089
:10401800F8700D0009480A49884208B505D0094AD0
:10402800824202D0121A03F01FF80748074A0021FB
:10403800121A03F024F8014808BD00BF14E3032056
:10404800007A0D008CE303208CE30320F0E70320C3
:1040580070B501F085FD074C074BE41AA40800254C
:104068001E46A54204D056F8253098470135F8E792
:1040780070BD00BF007A0D00BC790D0000F022B8B9
:1040880008B500F035F8BDE8084001F037BD01F08B
:10409800B9BA01F0BFBA01F0BDBA000008B5034AC9
:1040A80000210C2001F02AFAFEE700BFF5520D00AE
:1040B8000078B0FA80F04009704701230370704718
:1040C8007047000010B50021112002F0EBF801F054
:1040D80035FE4FF4165101F025FE01233C22022142
:1040E8000248BDE8104000F0FFBE00BF90E3032087
:1040F800F8B5294C2DED028B2046032100F0F6FB84
:104108002046012100F0F7FB05221146204600F069
:10411800EAFB204600F0ECFF112002F0EDF808EE73
:10412800100A01F00BFEF8EEC87A054617EE900A61
:1041380002F0F0FB06460F4647EC106B02212846BA
:1041480001F080FC204600F05FFE11A3D3E90023B4
:104158003046394602F032FC02F028FFDFED0F7AD4
:1041680007EE100A77EE677AB2EE047AC7EE876A2E
:1041780016EE900A02F0CEFBBDEC028B41EC100B60
:1041880020460221BDE8F84001F05CBCAFF3008096
:104198009A9CC9999CC9E93F90E3032000004842D2
:1041A80010B53421044602F006F9204610BD00007F
:1041B80010B501F033F80C4B0C4C00221A705A80E1
:1041C8004FF6FF729A80032001F0A0F94022802167
:1041D80020464FF0FF3300F0E5FD2046044A05492C
:1041E800BDE8104002F0E2B8C4E3032090E30320E6
:1041F8008CE30320C9400D002DE9F04F85B01E4621
:10420800BDF93830BDF83CA015469A1A002AB8BF47
:1042180052420092721A002AB8BF524201920C46CA
:10422800009A01998A42814605DD32461E461346A8
:1042380022462C461546B44205DD2A461D4613463D
:104248002246344616465A1B002AB8BF5242C4EBCF
:1042580006089D42B4BF01234FF0FF331FFA88F8C8
:10426800029303920FFA88F7022297FBF2F7B442FF
:104278001FDC019A009B9342D9F80030C8BF224640
:10428800D3F818B0C8BF29465346DCBF2A46214692
:104298004846D847039BFF1ABBB21FB2002F05DA66
:1042A800029A08EB030715442DB23FB2013424B239
:1042B800DDE705B0BDE8F08F10B404682469A446B2
:1042C8005DF8044B604730B40468BDF808500295A7
:1042D800A46BA44630BC604730B40468BDF80850ED
:1042E8000295E46BA44630BC604770B40468BDF91D
:1042F8000C50BDF8106004960395246CA44670BC5D
:10430800604770472DE9F3411C460368BDF82080DB
:104318005B6905461646013C34440F4624B298476B
:104328002B68CDF8048000949C6A28463B463246A8
:104338003946A0472B68DB6A284602B0BDE8F04141
:1043480018472DE9F3411D460368BDF820805B69D5
:10435800044617460E4698478DE8800122686B1E72
:104368003344956A20461BB23A463146A84723682B
:10437800DB6A204602B0BDE8F04118472DE9F34753
:104388001E460368BDF928805B69BDF82C900C4671
:104398000546174698472644B4422A680BDACDF8F2
:1043A8000090D2F820A0214643463A4628460134D8
:1043B800D04724B2F0E7D36A284602B0BDE8F047F8
:1043C800184713B5B0F90E20046801910092002235
:1043D800B0F90C30246C1146A04702B010BD2DE98D
:1043E800F7439942904607460E461C46BDF92850A9
:1043F800BDF82C9002680BD1A845C2BF4346A84619
:104408001D466B1CCDF82890C8EB0303946B0CE099
:10441800A84513D19942C4BF0B462646CDF828902B
:10442800C8BF1C46631CD46B9B1B1BB2424631465B
:104438003846A44603B0BDE8F0436047536998473F
:104448003B688DE8200238469D6A4246234631463D
:10445800A8473B68DB6A384603B0BDE8F043184715
:104468002DE9F3471E460368BDF82C805B69BDF94A
:10447800289004460D46174698472368CDF80080D3
:10448800D3F824A03A46334629462046D047236825
:10449800CDF8008009F1FF323A44D3F824A0294628
:1044A8003346204612B2D0472368CDF80080D3F8AF
:1044B80020A03A464B4629462046D0472368CDF8E7
:1044C8000080711E294420461D6A3A464B4609B2AF
:1044D800A8472368DB6A204602B0BDE8F0471847C2
:1044E800704701F00301012941760389428904D00C
:1044F800032902D08381C28170478281C3817047BA
:1045080030B501810024094D42818181C2814FF675
:10451800FF71012244600560447604824482027679
:10452800C18281828276C476C46130BD14710D0067
:104538002DE9F04F91B09146C26905911E46BDF82C
:10454800683002930446BDF86CA09DF87050002AAC
:1045580040F0B780B0F90C308B4240F34581B0F998
:104568000E304B4540F34081062313FB0513002B07
:1045780040F33A8109EBC503002B40F33581C37E34
:104588001BB9AF2E84BF0136F6B2236820465B699B
:10459800984705230C93002303931FFA89F3079385
:1045A80008339BB20E9305231A46039BDDF81C8043
:1045B800CDF8248012FB06338D4ACDF82880D35CD1
:1045C8000893BDF814300493049A039BAFB203FB1D
:1045D80007231BB20B932BB20693BDF80C20049B48
:1045E80013FA82F31BB20D93089BD90710D5012D3E
:1045F800236803D1D3F818B0029B12E0029A019203
:10460800069A0092D3F81CB01346BDF9282017E08B
:10461800029B534517D0012D236808D1D3F818B051
:1046280053460FFA88F20D992046D8470BE0069AB0
:104638000092CDF804A0D3F81CB01346BDF924208D
:104648000B992046D847089B5B0808930A9B3B4474
:104658009BB20A93099B3B449BB2099308F101085A
:104668000E9B1FFA88F84345BED1039B01335BB20A
:1046780003930C9B013B13F0FF030C9393D1029B14
:10468800534500F0AA80012D23680AD10499CDF87A
:1046980000A005311D6A4A46082309B22046A847EA
:1046A8009BE0049ACDF804A007EB87010A44FF00B9
:1046B80011460097DE694A462B4609B22046B047A4
:1046C8008BE0137AF61A5368F6B203EBC606136842
:1046D8000B93B37896F906A00793F3780C93012D02
:1046E80096F90530089394BF00230FFA8AF3B6F8B9
:1046F80000B08EBF04931E460493036888BFBDF9BB
:1047080020605B699847ABB20693BDF814300593F7
:10471800059A069B06FB0326B3B20A931FFA89F390
:10472800002609935344B04603960F930C9BF2B2AC
:104738009A4252D2049BBDF81810DDF82890F3185D
:1047480013FB01F309990B441BB20D930F9B1A44F9
:1047580013B24FF0000A0E9307995FFA8AF208EB3A
:1047680002039142DBB232D95A0707D10B9A0BF1F7
:10477800010312F80B2003921FFA83FB039B1B060D
:104788001AD5012D0CD1059B089A991823680E9A01
:104798009B6951441F4609B2029B2046B8470BE06B
:1047A8000299226801912BB20093D2690FFA89F11C
:1047B800174620460D9AB847039B5F00FBB2039348
:1047C800069B99440AF1010A1FFA89F9C4E7079B75
:1047D80098445FFA88F80136A8E72368DB6A204620
:1047E80011B0BDE8F04F184711B0BDE8F08F00BF19
:1047F80064710D007FB5C26904460B46002A2DD1AD
:104808000A2905D10282438A027E03EBC2032EE005
:104818000D2965D0817E007E69B1B4F9105006215A
:1048280011FB0051B4F90C50A942C1BF2282628A1F
:1048380002EBC00262820290E08A0190A08AB4F979
:1048480012200090B4F910102046FFF771FE237E65
:10485800228A03EB430302EB430340E00A2908D111
:1048680000230382017E927A438A01FB023363822A
:1048780036E00D2934D0157AA94231D3517A9942BC
:104888002ED351685D1B01EBC505A97811B3E878F3
:1048980000B3A67E207E8EB195F905603144B4F947
:1048A800106000FB0161B4F90C60B14206DD002123
:1048B8002182927A618A02FB001262820290E08A67
:1048C8000190A08A0090B4F91220B4F91010204683
:1048D800FFF72EFE2979227E238A01FB02332382E9
:1048E800012004B070BD018242827047002908BFD0
:1048F800012101767047C18281827047407E7047EE
:1049080000F08CBCF0B5447EBDF81460022C09D0D0
:10491800032C10D0012C40F09D800489013CA21A80
:1049280012B20CE04489013CA21A0489E41A611A03
:1049380012B209B28EE04489E41A611A09B2002A57
:10494800C0F28780B0F90840944240F3CD80002936
:10495800BEBF5B181BB20021B0F90A40CD18A542B2
:10496800C4BF631A1BB2002B40F3BE80C9B2056AEC
:10497800076BCC0805FB042211F00701DBB207EB3B
:1049880002052FD0C1F10804E4B25849A342095DD9
:104998000DD2C3EB040C4FF0FF0E4EFA0CFE012EA5
:1049A8000EEA010105D00AD3022E0FD0F0BD012E68
:1049B80004D117F802E041EA0E010BE004D217F81F
:1049C80002E02EEA010105E0022E07D117F802E005
:1049D80081EA0E01A342B954C0F08680026A1B1B0B
:1049E800DBB21544072B1AD9022E0AD11A462978A8
:1049F800C9432970083A016AD2B2072A0D44F6D889
:104A08001FE0012E0CBFFF2400241A462C70083A20
:104A1800016AD2B2072A0D44F8D803F00703002B25
:104A280062D0334A012ED35C03D005D3022E5BD16A
:104A38000CE02A78134302E02A7822EA03032B7059
:104A4800F0BD13F007034FD0294AD35C2A785340AE
:104A5800F5E7F0BD002A46DBB0F90A40944243DD91
:104A68000029BCBFC9180BB2B0F90840B8BF002173
:104A7800CD18A542C4BF631A1BB2002B34DD056BE9
:104A8800006A082492FBF4F400FB0411681802F091
:104A98000702012101FA02F28E42D2B203D00CD3EE
:104AA800022E16D0F0BD013B1BB25D1C1CD010F8C5
:104AB800011B114300F8011CF5E7D243D2B2013BB8
:104AC8001BB25C1C10D010F8011B114000F8011C2F
:104AD800F5E7013B1BB2591C06D010F8011B5140E9
:104AE80000F8011CF5E7F0BDF0BD00BF1CE3032092
:104AF80014E30320F0B5447EBDF81450022C08D00E
:104B0800032C0FD0012C60D10489E41AA21A12B226
:104B18000CE00489013C611A4489E41AA21A09B21A
:104B280012B252E04489013C611A09B200294BDBF8
:104B3800B0F90A408C4240F3CF80002ABCBFD2189B
:104B480013B2B0F90840B8BF0022D618A642C4BFB5
:104B5800A31A1BB2002B40F3BF80066B006A08241F
:104B680091FBF4F400FB0422B01801F007010122C4
:104B780002FA01F19542C9B203D00DD3022D18D023
:104B8800F0BD013B1BB25D1C00F0A68010F8012BA4
:104B98000A4300F8012CF4E7C943C9B2013B1BB230
:104BA8005C1C00F0998010F8012B0A4000F8012CD9
:104BB800F4E7013B1BB25A1C00F08E8010F8012B61
:104BC8004A4000F8012CF4E7F0BD0029C0F28380C8
:104BD800B0F908408C427FDD002ABEBF9B181BB28B
:104BE8000022B0F90A40D618A642C4BFA31A1BB2C5
:104BF800002B71DDD2B2066A076BD40806FB0411DC
:104C080012F00702DBB207EB01062ED0C2F108044E
:104C1800E4B2324AA342125D0DD2C3EB040C4FF04A
:104C2800FF0E4EFA0CFE012D0EEA020205D00AD341
:104C3800022D0FD0F0BD012D04D117F801E042EA92
:104C48000E020BE004D217F801E02EEA020205E09A
:104C5800022D06D117F801E082EA0E02A3427A5427
:104C68003AD3026A1B1BDBB21644072B1AD9022D52
:104C78000AD11A463178C9433170083A016AD2B26A
:104C8800072A0E44F6D81DE0012D0CBFFF2400248E
:104C98001A463470083A016AD2B2072A0E44F8D884
:104CA80003F00703C3B10E4A012DD35C03D005D32B
:104CB800022D11D10BE0327813430AE0327822EA50
:104CC800030306E013F0070306D0054AD35C3278E5
:104CD80053403370F0BDF0BDF0BD00BF1CE30320AE
:104CE80014E30320F8B50E1E054614461F4657DB8D
:104CF800036A9E4254D2002A52DB436A9A424FD238
:104D0800FFF7FCFD022809D0032810D0012813D191
:104D18002B6A013B1B1B34461EB20DE0296A6A6AE6
:104D28000139013A8E1B141B36B224B204E06B6AB7
:104D3800013B9B1B26461CB2012F03D010D3022F28
:104D48001FD0F8BD2B6A082194FBF1F103FB016623
:104D5800296B04F007048B5DA7401F438F55F8BDEE
:104D6800296A286B082394FBF3F301FB036604F01C
:104D78000704835D012101FA04F423EA040484553D
:104D8800F8BD296A082394FBF3F301FB0366296B3A
:104D980004F007048B5D012202FA04F45C408C5590
:104DA800F8BD00002DE9F04104460F46154609B24A
:104DB80012B200269846FFF7A3FBFF22114B23608F
:104DC80005FB07F084F82A2084F82E2084F82C208C
:104DD80084F82B202762656284F8286084F82960AB
:104DE80084F82F6084F82D80C008FFF750F9226AF4
:104DF800636A20635A43D208314602F040F92046DC
:104E0800BDE8F0816C760D00026A436A006B5A4374
:104E1800D208002102F033B9F8B590F82F300546D2
:104E28000F4623B11048BDE8F84000F0B5BC08268D
:104E3800802495F92B00002180B201F044FA95F9FD
:104E48002A0017EA040118BF012180B201F03BFAD9
:104E580095F92B00012180B201F035FA013E4FEAA5
:104E68005404E6D1F8BD00BF14E7032038B590F923
:104E78002A30013304460D461DD090F92E00012139
:104E880080B201F020FA94F92C00002180B201F0E0
:104E98001AFA94F92E00002180B201F014FA29467A
:104EA8002046FFF7B9FF94F92E00012180B2BDE832
:104EB800384001F008BA01F059FA94F9281001F0C5
:104EC8002DF801F053FA036800219B68984701F018
:104ED8004DFA036829469B68984701F047FABDE8F0
:104EE800384001F022B8000070B504461E4684F828
:104EF800291090F92A3080F8282001330D4625D052
:104F080090F92C00012180B201F0CCF994F92E001F
:104F1800012180B201F0C6F994F82F305BB994F9F9
:104F28002A00012180B201F0BDF994F92B0001217A
:104F380080B201F0B7F994F82F305BB16B4800F0FC
:104F4800CBFB0421694800F013FC03E001F00EFAE2
:104F580000F0DAFFFEB194F92D0000281BDB0121D7
:104F680080B201F09FF994F92D00012180B201F07F
:104F7800AAF9012000F084FD94F92D00002180B2E7
:104F880001F0A1F90A2000F07BFD94F92D00012120
:104F980080B201F098F9AE212046FFF767FFD521CE
:104FA8002046FFF763FF80212046FFF75FFFA82117
:104FB8002046FFF75BFF616A0139C9B22046FFF757
:104FC80055FFD3212046FFF751FF00212046FFF768
:104FD8004DFF40212046FFF749FF8D212046FFF76E
:104FE80045FF012D0CBF102114212046FFF73EFF7D
:104FF80020212046FFF73AFF00212046FFF736FF21
:10500800A1212046FFF732FFC8212046FFF72EFFD7
:10501800236A802B12D1636A202B0FD1DA21204614
:10502800FFF724FF02212046FFF720FF81212046B9
:10503800FFF71CFF8F212046FFF718FF236A802BFC
:1050480015D1636A402B12D1DA212046FFF70EFFF3
:1050580012212046FFF70AFF81212046FFF706FFAD
:10506800012D0CBF9F21CF212046FFF7FFFE236AA9
:10507800602B15D1666A102E12D1DA212046FFF76F
:10508800F5FE02212046FFF7F1FE81212046FFF7B9
:10509800EDFE012D0CBF3146AF212046FFF7E6FE9D
:1050A800D9212046FFF7E2FE012D0CBF2221F12174
:1050B8002046FFF7DBFE2046DB21FFF7D7FE204620
:1050C8004021FFF7D3FE2046A421FFF7CFFE20465C
:1050D800A621FFF7CBFE20462E21FFF7C7FE20466C
:1050E800AF21BDE87040FFF7C1BE00BF14E7032041
:1050F800F8B521210446FFF7B9FE00212046FFF745
:10510800B5FE216A0139C9B22046FFF7AFFE222158
:105118002046FFF7ABFE00212046FFF7A7FE636A93
:10512800402B03D107212046FFF7A0FE636A202BFE
:1051380003D103212046FFF799FE636A102B03D1A0
:1051480001212046FFF792FE94F92A30013301D15C
:1051580000253BE094F92E00012180B201F0B3F85C
:1051680094F92C00012180B201F0ADF894F92E00D9
:10517800002180B201F0A7F80025216A636AAAB26B
:105188004B43B2EBD30F05F1010505D2236B204643
:10519800995CFFF741FEF0E794F92E00012180B2F7
:1051A800BDE8F84001F08FB801F0E0F8AF19226BC4
:1051B8000368BFB29B68D15D01369847102EF3D1C2
:1051C8001035ADB201F0D2F800F0AFFE226A636A82
:1051D8005343B5EBD30F0DD201F0C8F894F928105A
:1051E80000F09CFE01F0C2F8036840219B689847D4
:1051F8000026D9E7F8BD00F011B8000008B5024B49
:105208001B689B68019308BD6802030008B5024B40
:105218001B68DB68019308BD6802030008B5024BF0
:105228001B681B68019308BD2C02030008B5024BDC
:105238001B685B68019308BD2C02030008B5024B8C
:105248001B689B68019308BD2C02030008B5024B3C
:105258001B68DB68019308BD2C02030008B5024BEC
:105268001B681B69019308BD2C02030008B5024B9B
:105278001B681B6B019308BD2C02030008B5024B89
:105288001B681B68019308BD3002030008B5024B78
:105298001B681B69019308BD3002030008B5024B67
:1052A8001B685B69019308BD3002030008B5024B17
:1052B8001B68DB69019308BD3002030008B5024B87
:1052C8001B681B6A019308BD3002030008B5024B36
:1052D8001B685B6A019308BD3002030008B5024BE6
:1052E8001B685B68019308BD1802030008B5024BF0
:1052F8001B68DB68019308BD1802030008B5024B60
:105308001B685B69019308BD1802030008B5024BCE
:105318001B689B68019308BD4802030008B5024B4F
:105328001B681B69019308BD4802030008B5024BBE
:105338001B685B69019308BD4802030008B5024B6E
:105348001B681B6B019308BD4802030008B5024B9C
:105358001B685B6C019308BD4802030008B5024B4B
:105368001B685B69019308BD6402030008B5024B22
:105378001B681B68019308BD3C02030008B5024B7B
:105388001B68DB68019308BD3C02030008B5024BAB
:105398001B681B69019308BD3C02030008B5024B5A
:1053A8001B685B69019308BD3C02030008B5024B0A
:1053B8001B689B69019308BD3C02030008B5024BBA
:1053C8001B68DB69019308BD3C02030008B5024B6A
:1053D8001B681B6A019308BD3C02030008B5024B19
:1053E8001B689B6A019308BD3C02030008B5024B89
:1053F8001B68DB68019308BD2802030008B5024B4F
:105408001B689B69019308BD2802030008B5024B7D
:105418001B68DB69019308BD2802030008B5024B2D
:105428001B681B6A019308BD2802030008B5024BDC
:105438001B685B6A019308BD2802030008B5024B8C
:105448001B689B6A019308BD2802030008B5024B3C
:105458001B68DB6A019308BD2802030008B5024BEC
:105468001B681B6B019308BD2802030008B5024B9B
:105478001B685B6B019308BD2802030008B5024B4B
:105488001B681B6C019308BD2802030008B5024B7A
:105498001B681B68019308BD4C02030008B5024B4A
:1054A8001B685B68019308BD4C02030008B5024BFA
:1054B8001B681B69019308BD4C02030008B5024B29
:1054C8001B685B69019308BD4C02030008B5024BD9
:1054D8001B689B69019308BD4C02030008B5024B89
:1054E8001B68DB69019308BD4C02030008B5024B39
:1054F8001B681B6A019308BD4C02030008B5024BE8
:105508001B685B6B019308BD6002030008B5024B82
:105518001B685B68019308BD2002030008B5024BB5
:105528001B685B69019308BD2002030008B5034BA3
:105538001B68D3F88830019308BD000020020300DF
:1055480008B5034B1B68D3F89430019308BD0000DD
:105558002002030008B5024B1B685B68019308BD75
:105568004002030008B5024B1B689B68019308BD05
:105578004002030008B5024B1B68DB68019308BDB5
:105588004002030008B5024B1B681B69019308BD64
:105598004002030008B5024B1B685B69019308BD14
:1055A8004002030008B5024B1B689B69019308BDC4
:1055B8004002030008B5024B1B68DB69019308BD74
:1055C8004002030008B5024B1B681B6A019308BD23
:1055D8004002030008B5024B1B681B6B019308BD12
:1055E8004002030008B5024B1B685B6B019308BDC2
:1055F8004002030008B5024B1B68DB6B019308BD32
:105608004402030008B5024B1B681B68019308BDE0
:105618001C02030008B5024B1B685B68019308BDB8
:105628001C020300002211464068FFF7CBBF00228E
:1056380011464068FFF7D6BF00224068FFF7CABF8F
:10564800002281F001014068FFF7B4BF00231A4629
:1056580019464068FFF7A6BF00231A461946406856
:10566800FFF798BF002211464068FFF78BBF002262
:1056780011464068FFF776BF002202214068FFF715
:1056880079BF00231A464068FFF764BF024B032224
:105698005A60024A1A607047CCE30320C4760D00B2
:1056A800704710B51021044600F085FE204610BD55
:1056B80070B5084B0360044600250E4640F80C5FA1
:1056C800FFF73CFE30462671FFF7F0FDA560204647
:1056D80070BD00BFF8760D004FF6FF710079FFF737
:1056E800CDBD0000054A0023995C814202D00133F8
:1056F800082BF9D1581CC0B2704700BF00770D00C5
:10570800400830B51860002418688842E5B206D908
:105718000134082C02D040081860F5E70725024B31
:105728005B5D137030BD00BF00770D0070B588B0A9
:10573800067902FB01F504461422002103A801F0B2
:105748009EFC0B2303A930460022ADF80C30FFF76E
:10575800BDFD02AB0DF1070229460498FFF7D0FF03
:1057680020799DF80710FFF791FD029808B070BDE9
:1057780038B504460846A5684DB1FFF7B3FF0122C6
:1057880025FA00F12046BDE83840FFF7CFBF207961
:10579800BDE83840FFF77ABD08B50079FFF77EFD10
:1057A800C0B208BD0079FFF789BD0000044B002096
:1057B8004FF6FF72187058809A80FFF7A7BE00BF97
:1057C800D4E30320024800230360FFF7BFBD00BFF6
:1057D800DCE30320F8B506460D468F180024BD42C9
:1057E8000CD0336815F8011B9B6830469847002891
:1057F80001DB0444F3E7002C08BF04462046F8BD4B
:1058080070B505460C46084649B101F069FC2B689D
:10581800024621462846DB68BDE87040184770BD3F
:1058280003689B68184738B50D210546FFF7F8FF50
:105838000A2104462846FFF7F3FF204438BD30B557
:105848008BB00B4600218DF82410012A98BF0A223C
:105858000DF12304B3FBF2F505FB123303F0FF034C
:10586800092B94BF30333733DBB2214604F80139B2
:105878002B46002DEED1FFF7C3FF0BB030BD10B49F
:105888002AB903685DF8044B9B68C9B21847D2B2BD
:105898005DF8044BFFF7D3BFFFF7F1BF2DE9F041E7
:1058A80007460E4615462AB90368C9B29B68BDE883
:1058B800F04118470A2A02D1002901DA04E0D2B2DD
:1058C800BDE8F041FFF7BBBF2D21FFF7A9FF2A462E
:1058D800044671423846FFF7B2FF2044BDE8F08124
:1058E8002DE9F04757EC106B82460D4610EE102A52
:1058F8003B4610EE100A394601F0FAFA08B1484959
:1059080012E027F000494FF0FF32464B3046494637
:1059180001F0EEFA68B94FF0FF32424B3046494683
:1059280001F0C8FA28B940495046FFF769FFBDE8B9
:10593800F0874FF060423D4B3046394601F0CEFAD1
:1059480008B13B49F0E74FF060423A4B30463946E0
:1059580001F0A6FA0028F4D1002200233046394687
:1059680001F09EFA40B12D215046FFF759FF07F18B
:10597800004304461F4600E004462F494FF0000844
:1059880000205FFA88F39D4206D900222B4B01F0D4
:105998003FF908F10108F4E732463B4600F05CFEA7
:1059A8000F46064601F0E2FA0A22014680465046B2
:1059B800FFF745FF04447DB3404600F089FF0246E7
:1059C8000B463046394600F045FE06460F4650461F
:1059D8001B49FFF715FF0444184B0022304639468F
:1059E80000F0ECFF0F46064601F098FA0A2201463D
:1059F80080465046FFF752FF0444404600F078FFC7
:105A080002460B463046394600F024FE013D15F0AB
:105A1800FF0506460F46DFD12046BDE8F08700BFE8
:105A280008770D00FFFFEF7F12770D00FFFFEF41B2
:105A38000C770D00FFFFEFC10000E03F000024409D
:105A480010770D0038B5C9B20546FFF749FF04467F
:105A58002846FFF7E8FE204438BD0000014B024A03
:105A68001A607047E0E30320CC770D00024B1A68F8
:105A7800024B1A60704700BF24E30320E4E30320CD
:105A88000021FFF74BBD10B58368044613B103220C
:105A980001469847204610BD10B50446FFF7F3FFAE
:105AA800204610BD0348044A04490023836000F0DF
:105AB8007DBC00BFE8E303208CE30320A15A0D005E
:105AC80008B50C4B33B100F039F903681B699847E6
:105AD800002809DC084B63B100F0B2F903681B69C0
:105AE8009847002803DC08BDAFF30080F2E7AFF366
:105AF800008008BD000000000000000008B5FFF7A6
:105B0800DFFFFFF7FBFB014B186008BD34E70320FC
:105B180007B5002300931A466FF07701FFF710FDD1
:105B280003B05DF804FB000007B543880A2B08D0D2
:105B3800502B09D1094B1B683BB103B05DF804EB4E
:105B48001847FFF7E5FF06E0002300931A466FF0B9
:105B58007701FFF7F5FC03B05DF804FBF8E30320D9
:105B680010B5FFF7BBFB044601F092FA074B13B1DF
:105B78002046AFF3008000210448FFF73BFD0021D9
:105B88000348BDE81040FFF7D1BC00BF000000008B
:105B9800315B0D00704710B51821044600F00BFC6E
:105BA800204610BDF0B5037D062B8DB00E4600F1E2
:105BB80004074FF0000402D000F1080518E00CAD0E
:105BC800394605F8304D2F232A460A20FFF7C6FB31
:105BD800284601F085FA33680246DB6829463046D4
:105BE80098470FE024B12E213046FFF719FE0444F0
:105BF80015F8011D0A223046FFF74EFEBD42044447
:105C0800F0D120460DB0F0BD10B5054B0446112269
:105C180040F8043B002101F032FA204610BD00BFD5
:105C280028780D000346074A10B543F8042B01F104
:105C3800100251F8044B43F8044B9142F9D10A7809
:105C48001A7010BD28780D0010B59DF8084044EA78
:105C5800032343EA024242EA0161042341600375D7
:105C680010BD37B50D788B784A78C97800912946E8
:105C7800FFF7EAFF03B030BD41747047704708B5BD
:105C88000021007CFFF722FC30EA200028BF4FF0FB
:105C9800FF3008BD08B50121007CFFF717FC30EA8A
:105CA800200028BF4FF0FF3008BD08B5007CFFF783
:105CB80005FC20EAE07008BD08B5007CFFF7F6FB9C
:105CC80020EAE07008BD007CFFF710BC10B5142175
:105CD800044600F070FB204610BD38B50446007C31
:105CE8000D46FFF7EBFB002801DC607C28B1294654
:105CF800207CFFF7F3FB20EAE07038BD10B50446BE
:105D0800002363604FF47A73A360054B236001237B
:105D18000846217463741146FFF7B8FB204610BD8E
:105D28003C780D000022007CFFF7B8BB10B51422A8
:105D38000446002101F0A3F9204610BD30B50E4DF0
:105D480087B001A8FFF7F2FF296811F0010410D10C
:105D58002846FEF7ADF960B101AA21460748FFF7CA
:105D6800CDFF2846FEF7A9F9054A0649034800F081
:105D78001DFB024807B030BDFCE3032000E403200C
:105D88008CE30320855C0D0070474174704708B5AB
:105D9800007CFFF723FB20EAE07008BD08B5007C13
:105DA800FFF7F4FA20EAE07008BD08B5007CFFF7B9
:105DB800FDFA30EA200028BF4FF0FF3008BD08B5D3
:105DC800007CFFF7EBFA30EA200028BF4FF0FF30E5
:105DD80008BD007CFFF7F2BA10B51421044600F0A4
:105DE800EAFA204610BD70B5457C04460E4625B932
:105DF800007CFFF7F3FA002805DD3146207CBDE87A
:105E08007040FFF7BBBA284670BD000010B50446C5
:105E180008461146002262604FF47A72A260054A71
:105E280022600122207462741A46FFF79FFA204606
:105E380010BD00BF6C780D00007CFFF7C7BA0000EA
:105E480038B50C4D296811F0010411D12846FEF728
:105E58002FF968B1084A094B09482146FFF7D6FFD0
:105E68002846FEF72AF9074A0749054800F09EFA2E
:105E7800034838BDACE40320B0E4032028E4032041
:105E880014E403208CE30320915D0D007047F8B5FE
:105E9800064615460C468F18BC4206D0336814F8DF
:105EA800011B9B6830469847F6E72846F8BD002254
:105EB800007CFFF7B3BA0021007CFFF7B7BA0021D6
:105EC800007CFFF7BBBA0021007CFFF7BFBA0021B6
:105ED800007CFFF7C3BA10B51421044600F06BFA32
:105EE800204610BD10B504464FF47A730846A360E7
:105EF8000021044B207461602360FFF7BFFA20463D
:105F080010BD00BF9C780D0000231A461946007C7E
:105F1800FFF76CBA0022007CFFF770BAC9B2FFF72E
:105F2800F9BF0022007CFFF771BA0121FFF7F9BF22
:105F38000021007CFFF79ABA002211464068FFF75B
:105F480041BB002211464068FFF74CBB0022406865
:105F5800FFF740BB002281F001014068FFF72ABB30
:105F680000231A4619464068FFF71CBB00231A464F
:105F780019464068FFF70EBB002211464068FFF73C
:105F880001BB002211464068FFF7ECBA002202214B
:105F98004068FFF7EFBA00231A464068FFF7DABAFD
:105FA80038B5054688B104684CB1A3681BB1032213
:105FB8002146204698471021204600F0FCF9284643
:105FC8001421BDE8384000F0F6B938BD10B10368B7
:105FD8005B681847704710B503680446BBB158683A
:105FE800FFF794F978B923685A7C12B95868FFF713
:105FF80095F923685868FFF799F92068002323600A
:1060080028B1FFF7CDFF206808B1FFF7C9FF204688
:1060180010BD000038B50C4B03600446D0F8CC0125
:1060280008B1FEF738F8D4F8C45135B12846FFF75F
:10603800D2FF0421284600F0BEF9A06808B1FFF796
:10604800C5FF204638BD00BFC4780D0038B50D4CDB
:106058000D4B23600025022304F5E4706360A560FE
:10606800C4F8C451C4F8C851FFF770F9074BC4F815
:10607800CC5123602046064A0649BDE8384000F066
:1060880095B900BF34E503202C790D00C4780D00C4
:106098008CE303201D600D00002211464068FFF7C5
:1060A80071BA002211464068FFF78CBA00221146E7
:1060B8004068FFF797BA00224068FFF78BBA0022C2
:1060C80081F001014068FFF775BA00231A461946A6
:1060D8004068FFF767BA00231A4619464068FFF779
:1060E80059BA002211464068FFF73CBA0022022143
:1060F8004068FFF73FBA00231A464068FFF72ABAFC
:10610800024B04225A60024A1A60704704E70320CF
:10611800F8780D0000231A464068FFF71BBA0022E2
:1061280002214068FFF726BA002211464068FFF7AF
:1061380019BA002211464068FFF724BA00231A460C
:1061480019464068FFF726BA00231A4619464068E0
:10615800FFF728BA002281F001014068FFF72ABA48
:1061680000224068FFF736BA002211464068FFF760
:1061780039BA002211464068FFF724BA2DE9F043E6
:10618800002495B016460D460746FFF73DFD21460B
:1061980020220CA8009400F072FF40230C932146A3
:1061A8006B460CAA3046FFF731F80446002844D164
:1061B800024601216868FFF7E5F902218046224678
:1061C8006868FFF7DFF9009E81462146002E34D02B
:1061D800002932D17368022B02D00A2B09D02AE099
:1061E800B8F1000F27D0716938460431FFF739FD3F
:1061F80020E0B9F1000F1ED07469112201A800F047
:106208003EFF06238DF8143001AD04F1080318345D
:10621800186859682A4603C20833A3421546F7D1BD
:1062280001A906A807ADFFF7FDFC0FCD3C1D0FC463
:106238002B6823700121F669C8E70098FEF7DEFF96
:10624800384615B0BDE8F083024B034A1A600022B5
:106258005A6070470CE703202C790D0010B50446EE
:106268000F48FFF79FFA28B1A4F10B03022B01D8BE
:10627800002010BD00F07AF8FFF75AFE08B1012C93
:10628800F6D9FFF7DDFDFFF7D7FD18B1A4F1090333
:10629800012BEDD9232C8CBF0020012010BD00BF9D
:1062A80014E70320232838B504460D460AD8FF29E9
:1062B80008D0FFF7D3FF28B129462046BDE838406B
:1062C800FEF7BCBF38BD38B504460D46FEF7BEFF25
:1062D800FF2810D0062804D84D2323FA00F0C3075E
:1062E80009D42046FFF7BAFF28B129462046BDE861
:1062F8003840FEF7B3BF38BD0D2810B504469CBF23
:106308000E34A4B22046FFF7A9FF50B1032120465E
:10631800FEF78CFF032804D12046BDE81040FEF7A5
:10632800A5BF002010BD000070B50C4C0C4E0D4DE3
:1063380000212046FFF7BCF920460B4C324629467F
:1063480000F034F801212046FFF7B2F93246294619
:106358002046BDE8704000F029B800BF14E70320CC
:106368008CE30320A9560D0024E7032038B50B4D14
:10637800296811F001040FD12846FDF799FE58B19C
:1063880021460748FFF7AEFD2846FDF796FE054A69
:106398000549034800F00AF8014838BD38E70320EA
:1063A8003CE703208CE30320955E0D000B46014675
:1063B800184600F04BBEFDF76CBE0000184B1A687B
:1063C800D1075CBF01221A60164B1A68D2075CBF5E
:1063D80001221A60144B1A68D0075CBF01221A60A8
:1063E800124B1A68D1075CBF01221A60104B1A6859
:1063F800D2075CBF01221A600E4B1A68D0075CBF37
:1064080001221A600C4B1A68D1075CBF01221A607E
:106418000A4B1A68D2075CBF01221A60704700BF96
:106428006CE7032068E7032064E7032060E70320A4
:106438005CE7032058E7032054E7032050E70320D4
:10644800244B1A68D0075CBF01221A60224B1A68D5
:10645800D1075CBF01221A60204B1A68D2075CBFC3
:1064680001221A601E4B1A68D0075CBF01221A600D
:106478001C4B1A68D1075CBF01221A601A4B1A68B4
:10648800D2075CBF01221A60184B1A68D0075CBF9C
:1064980001221A60164B1A68D1075CBF01221A60E4
:1064A800144B1A68D2075CBF01221A60124B1A6893
:1064B800D0075CBF01221A60104B1A68D1075CBF75
:1064C80001221A600E4B1A68D2075CBF01221A60BB
:1064D800704700BF9CE7032098E7032094E7032058
:1064E80090E703208CE7032088E7032084E7032054
:1064F80080E703207CE7032078E7032074E7032084
:1065080070E70320244B1A68D0075CBF01221A6089
:10651800224B1A68D1075CBF01221A60204B1A6807
:10652800D2075CBF01221A601E4B1A68D0075CBFF5
:1065380001221A601C4B1A68D1075CBF01221A603D
:106548001A4B1A68D2075CBF01221A60184B1A68E6
:10655800D0075CBF01221A60164B1A68D1075CBFCE
:1065680001221A60144B1A68D2075CBF01221A6014
:10657800124B1A68D0075CBF01221A60104B1A68C8
:10658800D1075CBF01221A600E4B1A68D2075CBFA4
:1065980001221A60704700BFCCE70320C8E7032038
:1065A800C4E70320C0E70320BCE70320B8E70320C3
:1065B800B4E70320B0E70320ACE70320A8E70320F3
:1065C800A4E70320A0E70320184B1A68D1075CBF93
:1065D80001221A60164B1A68D2075CBF01221A60A2
:1065E800144B1A68D0075CBF01221A60124B1A6854
:1065F800D1075CBF01221A60104B1A68D2075CBF32
:1066080001221A600E4B1A68D0075CBF01221A607B
:106618000C4B1A68D1075CBF01221A600A4B1A6832
:10662800D2075CBF01221A60704700BFECE7032065
:10663800E8E70320E4E70320E0E70320DCE70320A2
:10664800D8E70320D4E70320D0E7032081F00041F6
:1066580002E000BF83F0004330B54FEA41044FEA3F
:10666800430594EA050F08BF90EA020F1FBF54EADA
:10667800000C55EA020C7FEA645C7FEA655C00F076
:10668800E2804FEA5454D4EB5555B8BF6D420CDD47
:106698002C4480EA020281EA030382EA000083EACA
:1066A800010180EA020281EA0303362D88BF30BD6A
:1066B80011F0004F4FEA01314FF4801C4CEA1131C0
:1066C80002D0404261EB410113F0004F4FEA03331F
:1066D8004CEA133302D0524263EB430394EA050FAA
:1066E80000F0A780A4F10104D5F1200E0DDB02FA19
:1066F8000EFC22FA05F2801841F1000103FA0EF2AD
:10670800801843FA05F359410EE0A5F120050EF172
:10671800200E012A03FA0EFC28BF4CF0020C43FAA3
:1067280005F3C01851EBE37101F0004507D54FF0B0
:10673800000EDCF1000C7EEB00006EEB0101B1F500
:10674800801F1BD3B1F5001F0CD349085FEA300046
:106758004FEA3C0C04F101044FEA445212F5800F51
:1067680080F09A80BCF1004F08BF5FEA500C50F1EE
:10677800000041EB045141EA050130BD5FEA4C0CD1
:10678800404141EB010111F4801FA4F10104E9D15A
:1067980091F0000F04BF01460020B1FA81F308BF51
:1067A8002033A3F10B03B3F120020CDA0C3208DD1D
:1067B80002F1140CC2F10C0201FA0CF021FA02F1F8
:1067C8000CE002F11402D8BFC2F1200C01FA02F168
:1067D80020FA0CFCDCBF41EA0C019040E41AA2BF8D
:1067E80001EB0451294330BD6FEA04041F3C1CDA55
:1067F8000C340EDC04F11404C4F1200220FA04F075
:1068080001FA02F340EA030021FA04F345EA03011E
:1068180030BDC4F10C04C4F1200220FA02F001FAE0
:1068280004F340EA0300294630BD21FA04F0294662
:1068380030BD94F0000F83F4801306BF81F48011FB
:106848000134013D4EE77FEA645C18BF7FEA655C6E
:1068580029D094EA050F08BF90EA020F05D054EA40
:10686800000C04BF1946104630BD91EA030F1EBF45
:106878000021002030BD5FEA545C05D14000494149
:1068880028BF41F0004130BD14F580043CBF01F53C
:10689800801130BD01F0004545F0FE4141F4700122
:1068A8004FF0000030BD7FEA645C1ABF19461046FD
:1068B8007FEA655C1CBF0B46024650EA013406BFFE
:1068C80052EA033591EA030F41F4002130BD00BFBD
:1068D80090F0000F04BF0021704730B54FF480647A
:1068E80004F132044FF000054FF0000150E700BFFB
:1068F80090F0000F04BF0021704730B54FF480645A
:1069080004F1320410F0004548BF40424FF0000146
:106918003EE700BF42004FEAE2014FEA31014FEA89
:1069280002701FBF12F07F4393F07F4F81F06051D8
:10693800704792F0000F14BF93F07F4F704730B547
:106948004FF4607401F0004521F0004120E700BFDA
:1069580050EA010208BF704730B54FF000050AE061
:1069680050EA010208BF704730B511F0004502D562
:10697800404261EB41014FF4806404F132045FEA64
:10698800915C3FF4DCAE4FF003025FEADC0C18BF09
:1069980003325FEADC0C18BF033202EBDC02C2F1FF
:1069A800200300FA03FC20FA02F001FA03FE40EA91
:1069B8000E0021FA02F11444C1E600BF70B54FF091
:1069C800FF0C4CF4E06C1CEA11541DBF1CEA135573
:1069D80094EA0C0F95EA0C0F00F0DEF82C4481EADB
:1069E800030621EA4C5123EA4C5350EA013518BFFB
:1069F80052EA033541F4801143F4801338D0A0FBE8
:106A080002CE4FF00005E1FB02E506F00042E0FB94
:106A180003E54FF00006E1FB03569CF0000F18BF9A
:106A28004EF0010EA4F1FF04B6F5007F64F5407442
:106A380004D25FEA4E0E6D4146EB060642EAC621D5
:106A480041EA55514FEAC52040EA5E504FEACE2E42
:106A5800B4F1FD0C88BFBCF5E06F1ED8BEF1004F45
:106A680008BF5FEA500E50F1000041EB045170BDC1
:106A780006F0004646EA010140EA020081EA030105
:106A8800B4EB5C04C2BFD4EB0C0541EA045170BD01
:106A980041F480114FF0000E013C00F3AB8014F17B
:106AA800360FDEBF002001F0004170BDC4F10004C4
:106AB800203C35DA0C341BDC04F11404C4F1200545
:106AC80000FA05F320FA04F001FA05F240EA0200A0
:106AD80001F0004221F0004110EBD37021FA04F6D6
:106AE80042EB06015EEA430E08BF20EAD37070BD90
:106AF800C4F10C04C4F1200500FA04F320FA05F0EF
:106B080001FA04F240EA020001F0004110EBD370F0
:106B180041F100015EEA430E08BF20EAD37070BD60
:106B2800C4F1200500FA05F24EEA020E20FA04F339
:106B380001FA05F243EA020321FA04F001F00041E8
:106B480021FA04F220EA020000EBD3705EEA430E59
:106B580008BF20EAD37070BD94F0000F0FD101F088
:106B68000046400041EB010111F4801F08BF013CC1
:106B7800F7D041EA060195F0000F18BF704703F0FF
:106B88000046520043EB030313F4801F08BF013D86
:106B9800F7D043EA0603704794EA0C0F0CEA135542
:106BA80018BF95EA0C0F0CD050EA410618BF52EAFC
:106BB8004306D1D181EA030101F000414FF0000002
:106BC80070BD50EA410606BF1046194652EA430610
:106BD80019D094EA0C0F02D150EA013613D195EA84
:106BE8000C0F05D152EA03361CBF104619460AD1CC
:106BF80081EA030101F0004141F0FE4141F47001D6
:106C08004FF0000070BD41F0FE4141F4780170BDC5
:106C180070B54FF0FF0C4CF4E06C1CEA11541DBF2A
:106C28001CEA135594EA0C0F95EA0C0F00F0A7F82C
:106C3800A4EB050481EA030E52EA03354FEA013159
:106C480000F088804FEA03334FF0805545EA13136C
:106C580043EA12634FEA022245EA111545EA106534
:106C68004FEA00260EF000419D4208BF964244F1CB
:106C7800FD0404F5407402D25B084FEA3202B61AEA
:106C880065EB03055B084FEA32024FF480104FF4BE
:106C9800002CB6EB020E75EB030E22BFB61A754632
:106CA80040EA0C005B084FEA3202B6EB020E75EBC5
:106CB800030E22BFB61A754640EA5C005B084FEA2D
:106CC8003202B6EB020E75EB030E22BFB61A7546FA
:106CD80040EA9C005B084FEA3202B6EB020E75EB05
:106CE800030E22BFB61A754640EADC0055EA060EC6
:106CF80018D04FEA051545EA16754FEA06164FEA09
:106D0800C30343EA52734FEAC2025FEA1C1CC0D1B4
:106D180011F4801F0BD141EA00014FF000004FF041
:106D2800004CB6E711F4801F04BF01430020B4F102
:106D3800FD0C88BFBCF5E06F3FF6AFAEB5EB030CBA
:106D480004BFB6EB020C5FEA500C50F1000041EBB7
:106D5800045170BD0EF0004E4EEA113114EB5C0484
:106D6800C2BFD4EB0C0541EA045170BD41F4801157
:106D78004FF0000E013C90E645EA060E8DE60CEA5F
:106D8800135594EA0C0F08BF95EA0C0F3FF43BAF7C
:106D980094EA0C0F0AD150EA01347FF434AF95EA33
:106DA8000C0F7FF425AF104619462CE795EA0C0F17
:106DB80006D152EA03353FF4FDAE1046194622E7E4
:106DC80050EA410618BF52EA43067FF4C5AE50EABE
:106DD80041047FF40DAF52EA43057FF4EBAE12E7AE
:106DE8004FF0FF3C06E000BF4FF0010C02E000BF8F
:106DF8004FF0010C4DF804CD4FEA410C7FEA6C5C72
:106E08004FEA430C18BF7FEA6C5C1BD001B050EA14
:106E1800410C0CBF52EA430C91EA030F02BF90EAFF
:106E2800020F0020704710F1000F91EA030F58BFBE
:106E3800994208BF90422CBFD8176FEAE37040F020
:106E4800010070474FEA410C7FEA6C5C02D150EABE
:106E5800013C07D14FEA430C7FEA6C5CD6D152EA79
:106E6800033CD3D05DF8040B704700BF844610463E
:106E780062468C461946634600E000BF01B5FFF73D
:106E8800B7FF002848BF10F1000F01BD4DF808ED0D
:106E9800FFF7F4FF0CBF012000205DF808FB00BFDE
:106EA8004DF808EDFFF7EAFF34BF012000205DF838
:106EB80008FB00BF4DF808EDFFF7E0FF94BF012085
:106EC80000205DF808FB00BF4DF808EDFFF7CEFF86
:106ED80094BF012000205DF808FB00BF4DF808EDC5
:106EE800FFF7C4FF34BF012000205DF808FB00BF96
:106EF8004FEA410C7FEA6C5C02D150EA013C0AD1AE
:106F08004FEA430C7FEA6C5C02D152EA033C02D19F
:106F18004FF0000070474FF0010070474FEA410200
:106F280012F5001215D211D56FF47873B3EB6252D3
:106F380012D94FEAC12343F0004343EA505311F0FA
:106F4800004F23FA02F018BF404270474FF000008C
:106F5800704750EA013005D111F0004008BF6FF0CA
:106F6800004070474FF00000704700BF4A0011D240
:106F780012F5001211D20DD56FF47873B3EB62528B
:106F88000ED44FEAC12343F0004343EA505323FA97
:106F980002F070474FF00000704750EA013002D10C
:106FA8004FF0FF3070474FF0000070474FEA410242
:106FB800B2F1E04324BFB3F5001CDCF1FE5C0DD94F
:106FC80001F0004C4FEAC0024CEA5070B2F1004F99
:106FD80040EB830008BF20F00100704711F0804F9C
:106FE80021D113F13872BCBF01F00040704741F461
:106FF80080114FEA5252C2F11802C2F1200C10FA65
:107008000CF320FA02F018BF40F001004FEAC12348
:107018004FEAD32303FA0CFC40EA0C0023FA02F3EC
:107028004FEA4303CCE77FEA625307D150EA0133C2
:107038001EBF4FF0FE4040F44000704701F0004092
:1070480040F0FE4040F40000704700BF10B5054C0A
:1070580013462CB10A4601460220AFF3008010BD4A
:10706800204610BD0000000010B5431E0A4491429E
:1070780004D011F8014B03F8014FF8E710BD0244A2
:107088000346934202D003F8011BFAE77047000059
:1070980038B5124B1C68A36B0546D3B91820FEF708
:1070A800B1FA43F20E33A06303804AF6CD3343802E
:1070B80041F2342383804EF26D63C3804DF6EC6356
:1070C8000381052343810B23838101220023C0E927
:1070D8000423A36B00221D615A6138BD88E3032095
:1070E800034613F8012B002AFBD1181A0138704700
:1070F8001D400D0059400D0085400D0089400D00D0
:107108000000000000000000000000000000000077
:1071180000000000FD470D00DD570D00A5400D00E3
:107128000B430D00C1420D00F3420D00CF420D008C
:10713800E1420D0001420D000B430D00EB440D0030
:10714800E9440D000D430D004B430D0085430D0030
:10715800CB430D00E7430D0069440D00000000001B
:10716800003E5B4F5B3E3E6B4F6B3E1C3E7C3E1CC5
:10717800183C7E3C181C577D571C1C5E7F5E1C000B
:10718800183C1800FFE7C3E7FF0018241800FFE7C2
:10719800DBE7FF30483A060E2629792926407F0585
:1071A8000507407F05253F5A3CE73C5A7F3E1C1C9B
:1071B80008081C1C3E7F14227F22145F5F005F5F5B
:1071C80006097F017F006689956A60606060609447
:1071D800A2FFA29408047E040810207E201008084C
:1071E8002A1C08081C2A08081E101010100C1E0C57
:1071F8001E0C30383E3830060E3E0E0600000000E9
:107208000000005F00000007000700147F147F14CF
:10721800242A7F2A12231308646236495620500014
:1072280008070300001C2241000041221C002A1C00
:107238007F1C2A08083E08080080703000080808EB
:107248000808000060600020100804023E5149450B
:107258003E00427F400072494949462141494D3329
:107268001814127F1027454545393C4A4949314190
:10727800211109073649494936464949291E00005E
:1072880014000000403400000008142241141414B3
:107298001414004122140802015909063E415D599F
:1072A8004E7C1211127C7F494949363E41414122A8
:1072B8007F4141413E7F494949417F090909013ED2
:1072C800414151737F0808087F00417F41002040F9
:1072D800413F017F081422417F404040407F021C0B
:1072E800027F7F0408107F3E4141413E7F09090922
:1072F800063E4151215E7F091929462649494932EE
:1073080003017F01033F4040403F1F2040201F3FB3
:107318004038403F63140814630304780403615938
:10732800494D43007F41414102040810200041417A
:10733800417F040201020440404040400003070826
:107348000020545478407F28444438384444442822
:10735800384444287F385454541800087E090218C9
:10736800A4A49C787F0804047800447D4000204051
:10737800403D007F1028440000417F40007C047895
:1073880004787C080404783844444438FC182424DD
:107398001818242418FC7C0804040848545454245D
:1073A80004043F44243C4040207C1C2040201C3CDA
:1073B8004030403C44281028444C9090907C4464D1
:1073C800544C440008364100000077000000413664
:1073D800080002010204023C2623263C1EA1A161EA
:1073E800123A4040207A385454555921555579411C
:1073F8002254547842215554784020545579400CF1
:107408001E527212395555555939545454593955D3
:107418005454580000457C410002457D4200014516
:107428007C407D1211127DF0282528F07C545545AA
:10743800002054547C547C0A097F49324949493216
:107448003A4444443A324A4848303A4141217A3A27
:1074580042402078009DA0A07D3D4242423D3D40F3
:1074680040403D3C24FF2424487E4943662B2FFCA2
:107478002F2BFF0929F620C0887E09032054547950
:10748800410000447D413048484A32384040227A21
:10749800007A0A0A727D0D19317D2629292F28269E
:1074A8002929292630484D402038080808080808A6
:1074B8000808382F10C8ACBA2F102834FA00007BFF
:1074C800000008142A142222142A14085500550012
:1074D80055AA55AA55AAFF55FF55FF000000FF0001
:1074E800101010FF00141414FF001010FF00FF10FC
:1074F80010F010F0141414FC001414F700FF00002E
:10750800FF00FF1414F404FC141417101F10101FAC
:10751800101F1414141F00101010F0000000001F9A
:10752800101010101F10101010F010000000FF10A5
:107538001010101010101010FF10000000FF1400A1
:1075480000FF00FF00001F10170000FC04F41414D3
:107558001710171414F404F40000FF00F71414149F
:1075680014141414F700F7141414171410101F101F
:107578001F141414F4141010F010F000001F101F42
:107588000000001F14000000FC140000F010F010B0
:1075980010FF10FF141414FF141010101F00000027
:1075A80000F010FFFFFFFFFFF0F0F0F0F0FFFFFF2B
:1075B8000000000000FFFF0F0F0F0F0F3844443882
:1075C80044FC4A4A4A347E02020606027E027E02D1
:1075D80063554941633844443C04407E201E2006DC
:1075E800027E020299A5E7A5991C2A492A1C4C7219
:1075F80001724C304A4D4D303048784830BC625AA0
:10760800463D3E494949007E0101017E2A2A2A2A2F
:107618002A44445F444440514A444040444A51400B
:107628000000FF0103E080FF000008086B6B0836CC
:1076380012362436060F090F06000018180000003D
:107648001010003040FF0101001F01011E00191D2C
:107658001712003C3C3C3C00000000000000000009
:1076680000000000C9400D00A9410D00FD470D00B4
:10767800DD570D00ED4C0D000B430D00C1420D0010
:10768800F3420D00CF420D00E1420D0001420D0012
:107698000B430D00EB440D00E9440D00FD4A0D00BD
:1076A8000D490D0085430D00CB430D00E7430D0048
:1076B80069440D0000000000000000008B560D001A
:1076C80081560D0077560D006D560D0061560D0060
:1076D80055560D0049560D0041560D0037560D0000
:1076E8002D560D0085610D0000000000000000000F
:1076F800A9560D00AB560D00000810182028303888
:107708006E616E006F7666002E00696E66006C6EA4
:1077180000666E00636F64650064657461696C007F
:107728000D0A00253031307520005D2000256400E9
:107738002C200028293A2000205B00636F64652014
:107748003D200025690064657461696C73203D20E3
:1077580000626175640053657269616C00536572FB
:1077680069616C31007479706500706172616D00D7
:10777800636D6400696400686E64007374726D0000
:1077880066696C74006C766C0061646448616E6450
:107798006C65720072656D6F766548616E646C65C4
:1077A8007200656E756D48616E646C657273004A2F
:1077B800534F4E53747265616D4C6F6748616E64C8
:1077C8006C657200617070006E6F6E650074726136
:1077D800636500696E666F007761726E006572722C
:1077E8006F720070616E696300616C6C005A0025ED
:1077F8002B3033643A253032750025592D256D2DEF
:1078080025645425483A254D3A2553257A00617355
:107818006374696D6500000000000000000000004E
:10782800AD5B0D009D5B0D009F5B0D00000000002F
:1078380000000000855C0D00D55C0D00E35C0D00C8
:10784800DD570D00C15C0D00875C0D009D5C0D00CF
:10785800CF5C0D00B35C0D00815C0D0000000000E2
:1078680000000000915D0D00E15D0D00EF5D0D0071
:10787800DD570D00A55D0D00C75D0D00B35D0D0062
:10788800DB5D0D00935D0D00975D0D0000000000AD
:1078980000000000955E0D00DF5E0D00B75E0D0074
:1078A800975E0D00BF5E0D00C75E0D00CF5E0D0038
:1078B800D75E0D0000000000000000009F5F0D0073
:1078C800955F0D008B5F0D00815F0D00755F0D00EA
:1078D800695F0D005D5F0D00555F0D004B5F0D008A
:1078E800415F0D0085610D000000000000000000F0
:1078F800FF600D00F5600D00EB600D00A1600D004C
:10790800DF600D00D3600D00C7600D00BF600D0083
:10791800B5600D00AB600D0085610D000000000032
:10792800000000001D610D0027610D0031610D0090
:107938003B610D0045610D0051610D005D610D0059
:1079480069610D0071610D007B610D0085610D009D
:10795800000000000000000000000000000000001F
:10796800000000000000000000000000000000000F
:1079780000000000000000000000000000000000FF
:1079880000000000000000000000000000000000EF
:1079980000000000000000000000000000000000DF
:1079A80000000000000000000000000000000000CF
:1079B80043000000B9410D0009490D00FF510D00B9
:1079C80095560D00B5570D00CD570D00655A0D00A1
:1079D800755A0D00AD5A0D0055600D0009610D0076
:1079E80051620D0031630D00C5630D0049640D003F
:0879F8000D650D00D1650D00C5
:107A0000000103070F1F3F7F0080C0E0F0F8FCFE7D
:107A100016780D000000000058790D0078790D00EF
:107A200098790D0000000000000000000000000038
:107A300000000000B8790D00000000000000000008
:107A40000000000000000000000000000000000036
:107A50000000000000000000000000000000000026
:107A60000000000000000000000000000000000016
:087A70000000000028E30320E0
:107A7800FFFFFFFF00000102030405060708090ACB
:107A88000B0C0D0E0F101112131415161718191AC6
:087A98001B1C1D1E1F2028000D
:047AA00078563412CE
:04000003D0004018D1
:00000001FF
