:02000002D0002C
:1040000000400D00C46F0D00000006000C0005010B
:08401000040115050000000089
:10401800CC650D0009480A49884208B505D0094A07
:10402800824202D0121A02F0DBF90748074A00213F
:10403800121A02F0E0F9014808BD00BF00E30320AE
:10404800306F0D006CE303206CE30320F0E70320DE
:1040580070B501F02DF9074C074BE41AA4080025A8
:104068001E46A54204D056F8253098470135F8E792
:1040780070BD00BF306F0D00E86E0D0000F0F6BB9C
:1040880008B500F0F7FCBDE8084001F0DFB800F023
:1040980079BF00F07FBF00F07DBF0078B0FA80F0F4
:1040A80040097047012303707047000008B500F00D
:1040B800BDFD034B1860BDE8084000F053BF00BFCA
:1040C80034E7032038B584690A4B036005467CB1A0
:1040D8006368013B63605BB9236820469B68984727
:1040E800A368013BA3601BB923682046DB68984797
:1040F800284638BDBC6C0D0010B50446FFF7E2FF3A
:10410800204610BD10B50446FFF7DCFF20461C21F1
:1041180002F005F8204610BD03682BB142689342AF
:1041280002D2184602F046B90020704738B5056833
:10413800044645B143689D4205D2284602F096F9E7
:10414800013005442560204638BDF8B504460F46C1
:10415800466821B90368721C42609955F8BD084643
:1041680002F084F9A368451CAA199A4208D8206865
:104178002A463946304402F033F963681D446560C5
:10418800F8BD000070B504464068A6682568054A71
:104198000B46311A284400F005FF636801301844C3
:1041A800606070BD33660D0070B504464068A6684F
:1041B8002568054A0B46311A284400F0F3FE636867
:1041C80001301844606070BD36660D0008B50023E4
:1041D8004377006801F00BFDBDE8084000F096BC8D
:1041E8002DE9F0418E188EB0B14280460D46174633
:1041F8000591069680F0EC800B88ADF8123005A882
:10420800FFF794FF03689E4240F2E28005A8FFF79B
:1042180083FFBDF8123047F276229342C4B200F011
:104228009E800DD847F26122934264D047F26422FF
:10423800934239D046F67052934240F0BB802FE04B
:1042480047F26472934241D047F27672934200F08B
:10425800978047F26172934240F0AC806CE005A809
:10426800FFF75AFFC5B205A8FFF760FF059C5A493A
:10427800204602F0F1F80146002800F0A5805749D1
:10428800204602F0E9F8002800F09D8054492046B5
:1042980002F0E2F8002800F0968005A8FFF746FF34
:1042A800059B9E42DBD893E00AAB079307A810232F
:1042B80000254C4909930895FFF747FF07A82146B1
:1042C800FFF760FF204601F093FE25E005A8FFF701
:1042D8002DFF03689E427BD9A4B20121204601F03C
:1042E8005DFE05A8FFF718FF011C18BF0121204635
:1042F80001F065FE6CE00AAB07933B49102307A861
:10430800002509930895FFF720FF07A82146FFF726
:1043180039FF204601F07FFE014607A8FFF744FF5A
:10432800089B0295013B0093079B01952A4614219F
:10433800404600F0BBFA4BE005A8FFF7F7FE03681C
:104348009E4245D9A4B20121204601F027FE05A8C6
:10435800FFF7E2FE0146204601F074FE38E00EAD9C
:10436800204605F8104D00F0D3FB0346284623B13C
:104378001E4A934201D098472AE000F0C5FB27E087
:1043880005A8FFF7D3FE059B0A935D1B7D1B2046FE
:104398000B950C958DF81C4000F0C4FB03460AA948
:1043A80007A823B1124A934201D0984710E000F0C1
:1043B800ACFB0DE0002302210091B8F81A2002930B
:1043C80001931946B4E70121284601F0E7FD64E7A7
:1043D8000EB0BDE8F08100BF3A660D003D660D00E5
:1043E80041660D0045660D0048660D00114B0D0035
:1043F800134B0D002DE9F0418EB004AF05460522A0
:1044080007F10C01006800F0BCFE002800F01981DB
:10441800052801D0002019E1B7F80D20B7F80F40A2
:10442800130A43EA0222230A43EA042492B2A4B2FA
:10443800A7F80D20A7F80F40002AEBD03B7BF3B973
:1044480000F05EFB6B7FE860B7F80F209BB9B7F808
:104458000D1001290FD1042A01D0C82ADAD101246C
:1044680068616C77284600F0D9FAFFF71FFE00F064
:104478004DFB2046EAE0501F18BF0120E6E0B4F5E6
:10448800806F03D92846FFF7A1FEDAE004F108039C
:1044980023F00703E846ADEB030D04AE2246314690
:1044A800286800F06EFE84424FF0000440F0C4809B
:1044B800B7F80F30F45400F023FB3B7BE860112B76
:1044C80072D006D8062B20D00F2B60D0022B09D033
:1044D800AEE0292B25D0372B00F0B080142B40F00C
:1044E800A78054E06B7F43B901236B77284600F01F
:1044F80095FAFFF7DBFD00F009FB0023C821B7F8A8
:104508000D2002930193009106E0C823B7F80D200F
:1045180000930294019423461946284600F0C6F9F0
:104528008CE0AB681BB9202000F02CFDA860B7F820
:104538000F40FE613444A6423C6201D300207EE075
:1045480020223146A86801F099FF07F11C00FFF707
:10455800EDFD0368A34207D2F86918B13B6A984297
:1045680071D3002084B200E05024286801F03FFB9A
:104578002B68AA685A631C8700236B7700F0C0FA7F
:10458800A0F59C5008382861E860686156E0FB682F
:10459800B7F80F20C3F30F236B8331462846FFF784
:1045A8001FFE00236B8349E0B7F80F303C7133449A
:1045B8009E427E61BB6141D23068B86007F1140049
:1045C800FFF7B4FD7A69B7F80F30FA61961B9E1BA6
:1045D800204ABB683E6293427E621DD00BD802F12E
:1045E800FD3202F10222934228D107F11C01381D45
:1045F80000F08BFA22E0184A934213D002F19F622E
:1046080002F5003202F58072934217D107F11C01BE
:10461800381D00F07AFA11E007F11C01381D00F08E
:1046280074FA0BE007F11C01381D00F06EFA05E082
:104638002846FFF7CBFD01E0204600E00120C546F3
:1046480004E0012002E001F0B9FE8BE72837BD46FF
:10465800BDE8F0817274630061636F6E2DE9F0410B
:1046680004468AB00D46FFF721FD637F022B00F058
:104678009D80237F628B0133DBB22377002A41D1EF
:10468800022B3FD8206801F0DEF840B1002D40F041
:104698008F80206801F0C2FA002800F3898000F0BA
:1046A8002FFA0646206801F0CEF8677F012F0546ED
:1046B8002AD120B966612046FFF788FD72E0E368D9
:1046C80044F63822F31A934204D92046FFF77EFDB8
:1046D800002567E042F21072934203D82369F31A67
:1046E80093420FD9636940F6B832F31A934209D955
:1046F80000230293019300931A460621204600F0F6
:10470800D5F8666101254DE0002FFBD1626950B1F3
:10471800B61A40F6B8339E42F4D9206801F067FA19
:104728003D4667773EE0B21A41F288339A42E9D9AA
:10473800206801F05CFAD4F800E0DEF834C0BEF876
:104748003880BCF1000F06D02B46424661467046C1
:1047580001F0A6F80EE01F4B04930EF120070FCFCF
:1047680005AD0FC53B682B704246634604A97046E9
:1047780001F0C0F9431E5D425D410DB9666111E06B
:10478800676801262683384601F070FE00238DE80D
:104798000900029332463B460221204600F086F883
:1047A80023696361237F013B23770EE000250CE03A
:1047B8002046FFF71FFE054600287FF46AAF2068F1
:1047C80001F015FA00F0A2F9ECE728460AB0BDE8B6
:1047D800F08100BFD06B0D002DE9F04114468CB07C
:1047E8000546043440F6B8300F46984600F086F97E
:1047F8000FCC01AE0FC623686F60337000F080F9EC
:10480800A0F59C50083801AF2861E86068610FCFB7
:1048180007AE0FC63B68337007AF0FCF2C684FF059
:10482800000EC4F834E0A4F8388020340FC433688C
:10483800237042F227367446286801F0D8F96C775D
:1048480000F05EF907466B7F012B09D000F058F99C
:10485800C01BB04204D800212846FFF7FFFEF2E74C
:104868006B7F012BE8D10CB0BDE8F08100B589B0B1
:104878007C23009363229623A72102A800F0B0FDB1
:1048880041F6907302AA07490748FFF7A5FF0021E0
:10489800082001F083FB0121062001F07FFB09B00D
:1048A8005DF804FB4B660D0070E303202DE9F04F23
:1048B80083B000AF044600683D6B894616469B46A8
:1048C800EA4600F0C0FF002860D019F0FD0F00F0A4
:1048D800A080B9F1060F00F09C80637F012B55D1B1
:1048E80016B9668B002E56D0A9F10C03082B5AD99D
:1048F8007A6BBBF1000F14BFA8464FF00008002ADE
:10490800BA6B08F1050314BF90464FF000089844AD
:1049180008F1070323F00703AA18ADEB030DC2F350
:10492800072376BA43EA0223C7F804D08DF800902B
:10493800ADF80160ADF80330BBF1000F52D0002D87
:1049480050D02A4659460DF1050001F049FD681D71
:104958007B6B002B48D10025454551D2C5EB080299
:104968007B682068B2F5806F28BF4FF480625919C0
:1049780000F053FF0646002000F0C0F8002E3DD19D
:10498800206801F034F9667700F0C0F80C37D54696
:10499800BD46BDE8F08F238B01339BB203B90123D9
:1049A8002383268BA0E7E3682269934238BF134626
:1049B80003F1420800F0A4F8C0EB080000280ADB65
:1049C80000212046FFF74AFE00F09AF8C0EB0800E5
:1049D8000028F5DA8CE7217F002989D12046FFF7E6
:1049E8003DFE85E70520B3E7BB6B002BB3D01A4625
:1049F8007B68796B184401F0F3FCACE73544ABE70E
:104A080003D02046FFF7E2FBC0E700F079F8206109
:104A1800BCE7002E7FF46CAF63E700001FB50022EF
:104A28004923009302920192034B1121FFF73EFFA5
:104A380005B05DF804FB00BFE8650D0030B5ADF2C8
:104A4800244D08AB00240546059305A84FF4806360
:104A580007930694FFF779FB069B0294013B0093AA
:104A68000194059B22460E212846FFF71FFF0DF2F1
:104A7800244D30BD08B500210948FFF7EFFD082097
:104A880001F0B6FA28B907490548FFF7D7FF012111
:104A980000E000210620BDE8084001F090BA00BF00
:104AA80070E303206C660D0038B50F4D00F056F822
:104AB800284601F04FF905F11C00002400F04CFCD9
:104AC8000A4A0B496C6328462C8701F023FB094BE3
:104AD8001D605C609C60DC601C615C611C835C83A5
:104AE8001C775C7738BD00BF90E303206CE303209C
:104AF80001410D0070E3032000F030B800F068BBFE
:104B080000F094B800F02AB870477047704700006A
:104B18007F289ABF024B53F820000020704700BF3F
:104B280080680D007F289ABF024B53F820000020B0
:104B3800704700BF80660D0000F010B808B5024B42
:104B48001B689B68019308BD6802030008B5024B07
:104B58001B68DB68019308BD6802030008B5024BB7
:104B68001B681B68019308BD2C02030008B5024BA3
:104B78001B685B68019308BD2C02030008B5024B53
:104B88001B689B68019308BD2C02030008B5024B03
:104B98001B68DB68019308BD2C02030008B5024BB3
:104BA8001B681B69019308BD2C02030008B5024B62
:104BB8001B685B69019308BD2C02030008B5024B12
:104BC8001B689B6A019308BD2C02030008B5024BC1
:104BD8001B681B6B019308BD2C02030008B5024B30
:104BE8001B689B6F019308BD2C02030008B5024B9C
:104BF8001B68DB69019308BD3002030008B5024B4E
:104C08001B681B6A019308BD3002030008B5024BFC
:104C18001B685B69019308BD6C02030008B5024B71
:104C28001B685B68019308BD1802030008B5024BB6
:104C38001B685B69019308BD1802030008B5024BA5
:104C48001B689B68019308BD4802030008B5024B26
:104C58001B681B69019308BD4802030008B5024B95
:104C68001B685B69019308BD4802030008B5024B45
:104C78001B681B6B019308BD4802030008B5024B73
:104C88001B685B6C019308BD4802030008B5024B22
:104C98001B685B69019308BD6402030008B5024BF9
:104CA8001B681B6A019308BD6402030008B5024B28
:104CB8001B689B6A019308BD6402030008B5024B98
:104CC8001B681B68019308BD3C02030008B5024B32
:104CD8001B68DB68019308BD3C02030008B5024B62
:104CE8001B681B69019308BD3C02030008B5024B11
:104CF8001B685B69019308BD3C02030008B5024BC1
:104D08001B689B69019308BD3C02030008B5024B70
:104D18001B68DB69019308BD3C02030008B5024B20
:104D28001B681B6A019308BD3C02030008B5024BCF
:104D38001B689B6A019308BD3C02030008B5024B3F
:104D48001B681B6A019308BD2802030008B5024BC3
:104D58001B685B6A019308BD2802030008B5024B73
:104D68001B689B6A019308BD2802030008B5024B23
:104D78001B68DB6A019308BD2802030008B5024BD3
:104D88001B681B6B019308BD2802030008B5024B82
:104D98001B685B6B019308BD2802030008B5024B32
:104DA8001B681B6C019308BD2802030008B5024B61
:104DB8001B689B69019308BD3802030008B5024BC4
:104DC8001B68DB69019308BD3802030008B5024B74
:104DD8001B681B6A019308BD3802030008B5024B23
:104DE8001B689B6A019308BD3802030008B5024B93
:104DF8001B681B6B019308BD3802030008B5024B02
:104E08001B689B6B019308BD3802030008B5024B71
:104E18001B681B68019308BD4C02030008B5024BD0
:104E28001B681B69019308BD4C02030008B5024BBF
:104E38001B685B69019308BD4C02030008B5024B6F
:104E48001B689B69019308BD4C02030008B5024B1F
:104E58001B68DB69019308BD4C02030008B5024BCF
:104E68001B681B6A019308BD4C02030008B5024B7E
:104E78001B681B6D019308BD6002030008B5024B57
:104E88001B685B68019308BD2002030008B5024B4C
:104E98001B685B69019308BD2002030008B5034B3A
:104EA8001B68D3F88830019308BD00002002030076
:104EB80008B5034B1B68D3F89430019308BD000074
:104EC8002002030008B5024B1B685B68019308BD0C
:104ED8004002030008B5024B1B689B68019308BD9C
:104EE8004002030008B5024B1B68DB68019308BD4C
:104EF8004002030008B5024B1B681B69019308BDFB
:104F08004002030008B5024B1B685B69019308BDAA
:104F18004002030008B5024B1B689B69019308BD5A
:104F28004002030008B5024B1B68DB69019308BD0A
:104F38004002030008B5024B1B681B6A019308BDB9
:104F48004002030008B5024B1B681B6B019308BDA8
:104F58004002030008B5024B1B685B6B019308BD58
:104F68004002030008B5024B1B689B68019308BD0B
:104F78004402030008B5024B1B68DB6B019308BDB4
:104F88004402030008B5024B1B681B68019308BD67
:104F98001C02030008B5024B1B685B68019308BD3F
:104FA8001C02030008B5024B1B68DB69019308BDAE
:104FB8001C02030008B5024B1B68DB6B019308BD9C
:104FC8001C020300002211464068FFF7B3BF00220D
:104FD80011464068FFF7BEBF00224068FFF7B2BF26
:104FE800002281F001014068FFF79CBF00231A46A8
:104FF80019464068FFF78EBF00231A4619464068D5
:10500800FFF780BF002211464068FFF773BF0022F8
:1050180011464068FFF75EBF002202214068FFF793
:1050280061BF00231A464068FFF74CBF024B0322BA
:105038005A60024A1A607047CCE30320886A0D0060
:10504800704710B51021044601F069F8204610BDDC
:1050580070B5084B0360044600250E4640F80C5F07
:10506800FFF704FE30462671FFF7C0FDA560204615
:1050780070BD00BFBC6A0D000079FFF7BFBD00001E
:10508800044B00204FF6FF72187058809A80FFF783
:10509800F5BE00BFD4E30320024800230360FFF7F6
:1050A800EDBD00BFDCE30320F8B506460D468F18BA
:1050B8000024BD420CD0336815F8011B9B683046AC
:1050C8009847002801DB0444F3E7002C08BF044696
:1050D8002046F8BD70B505460C46084649B101F0B2
:1050E800C5F92B68024621462846DB68BDE87040B2
:1050F800184770BD03689B68184730B58BB00B46DE
:1051080000218DF82410012A98BF0A220DF12304EA
:10511800B3FBF2F505FB123303F0FF03092B94BF31
:1051280030333733DBB2214604F801392B46002DE2
:10513800EED1FFF7CFFF0BB030BD10B42AB903682A
:105148005DF8044B9B68C9B21847D2B25DF8044BAE
:10515800FFF7D3BFFFF7F1BF10B50446FFF766FDB1
:10516800E060236820465B699847002808DAFFF763
:105178005DFDE368C01AA3689842F2D34FF0FF3090
:1051880010BD2DE9F04180460D468F180C46BC42F3
:10519800A4EB050607D04046FFF7DEFF002802DB38
:1051A80004F8010BF3E73046BDE8F081014B024AF1
:1051B8001A607047E0E30320766B0D00024B1A6813
:1051C800024B1A60704700BF00E30320E4E30320AA
:1051D8000021FFF75BBE10B58368044613B10322B4
:1051E80001469847204610BD10B50446FFF7F3FF67
:1051F800204610BD0348044A04490023836000F098
:1052080089BF00BFE8E303206CE30320F1510D00E0
:1052180008B50C4B33B100F059F903681B6998477E
:10522800002809DC084B63B100F0D2F903681B6958
:105238009847002803DC08BDAFF30080F2E7AFF31E
:10524800008008BD000000000000000008B5FFF75E
:10525800DFFFFFF7EBFC014B186008BD34E70320C4
:1052680007B5002300931A466FF07701FFF720FE79
:1052780003B05DF804FB000007B543880A2B08D08B
:10528800502B09D1094B1B683BB103B05DF804EB07
:105298001847FFF7E5FF06E0002300931A466FF072
:1052A8007701FFF705FE03B05DF804FBF8E3032080
:1052B80010B5FFF7B3FC044601F0A6F8074B13B18D
:1052C8002046AFF3008000210448FFF753FE002179
:1052D8000348BDE81040FFF7E1BD00BF0000000033
:1052E80081520D00704710B51821044600F017FFD1
:1052F800204610BDF0B5037D062B8DB00E4600F19B
:1053080004074FF0000402D000F1080518E00CADC6
:10531800394605F8304D2F232A460A20FFF7B6FCF8
:10532800284601F0A3F833680246DB682946304670
:1053380098470FE024B12E213046FFF7DBFE0444E6
:1053480015F8011D0A223046FFF704FFBD42044448
:10535800F0D120460DB0F0BD10B5054B0446112222
:1053680040F8043B002101F046F8204610BD00BF7C
:10537800D06B0D000346074A10B543F8042B01F122
:10538800100251F8044B43F8044B9142F9D10A78C2
:105398001A7010BDD06B0D00037D042B01D140683D
:1053A80008E0062B0AD1436853B1836843B1C36848
:1053B80033B10069003018BF0120704700207047E2
:1053C8001846704710B59DF8084044EA032343EA9D
:1053D800024242EA016104234160037510BD0000E6
:1053E80037B5044D05609DF818500095FFF7EAFFA2
:1053F80003B030BDD06B0D0037B50D788B784A7887
:10540800C97800912946FFF7DDFF03B030BD41742C
:105418007047704708B50021007CFFF70FFD30EAA0
:10542800200028BF4FF0FF3008BD08B50121007CDF
:10543800FFF704FD30EA200028BF4FF0FF3008BD19
:1054480008B5007CFFF7F2FC20EAE07008BD08B55B
:10545800007CFFF7E3FC20EAE07008BD007CFFF762
:10546800FDBC10B51421044600F059FE204610BDBD
:1054780038B50446007C0D46FFF7D8FC002801DC4F
:10548800607C28B12946207CFFF7E0FC20EAE07028
:1054980038BD000010B50446002363604FF47A73EA
:1054A800A360054B236001230846217463741146E9
:1054B800FFF7ACFC204610BDE46B0D0010B51422BC
:1054C8000446002100F097FF204610BD30B50E4D70
:1054D80087B001A8FFF7F2FF296811F0010410D185
:1054E8002846FEF7DAFD60B101AA21460748FFF712
:1054F800D1FF2846FEF7D6FD054A0649034800F0C5
:1055080009FE024807B030BDFCE3032000E4032095
:105518006CE303201B540D0070474174704708B5B5
:10552800007CFFF703FC20EAE07008BD08B5007CAA
:10553800FFF7D4FB20EAE07008BD08B5007CFFF750
:10554800DDFB30EA200028BF4FF0FF3008BD08B56A
:10555800007CFFF7CBFB30EA200028BF4FF0FF307C
:1055680008BD007CFFF7D2BB10B51421044600F03B
:10557800D6FD204610BD70B5457C04460E4625B9BB
:10558800007CFFF7D3FB002805DD3146207CBDE811
:105598007040FFF79BBB284670BD000010B504465D
:1055A80008461146002262604FF47A72A260054AEA
:1055B80022600122207462741A46FFF77FFB20469E
:1055C80010BD00BF146C0D00007CFFF7A7BB0000E6
:1055D80038B50C4D296811F0010411D12846FEF7A1
:1055E8005CFD68B1084A094B09482146FFF7D6FF18
:1055F8002846FEF757FD074A0749054800F08AFD87
:10560800034838BDACE40320B0E4032028E40320B9
:1056180014E403206CE3032021550D007047F8B50E
:10562800064615460C468F18BC4206D0336814F857
:10563800011B9B6830469847F6E72846F8BD0022CC
:10564800007CFFF77BBB0021007CFFF77FBB0021BC
:10565800007CFFF783BB0021007CFFF787BB00219C
:10566800007CFFF78BBB10B51421044600F057FDF2
:10567800204610BD10B504464FF47A730846A3605F
:105688000021044B207461602360FFF787FB2046EC
:1056980010BD00BF446C0D000021007CFFF776BBF5
:1056A800002211464068FFF745BC002211464068B9
:1056B800FFF750BC00224068FFF744BC002281F08D
:1056C80001014068FFF72EBC00231A4619464068BE
:1056D800FFF720BC00231A4619464068FFF712BCA2
:1056E800002211464068FFF705BC002211464068B9
:1056F800FFF7F0BB002202214068FFF7F3BB00234D
:105708001A464068FFF7DEBB38B5054688B104681D
:105718004CB1A3681BB103222146204698471021AB
:10572800204600F0FCFC28461421BDE8384000F073
:10573800F6BC38BD10B103685B681847704710B5F0
:1057480003680446BBB15868FFF778FA78B923684C
:105758005A7C12B95868FFF779FA23685868FFF736
:105768007DFA20680023236028B1FFF7CDFF206869
:1057780008B1FFF7C9FF204610BD000038B50C4B33
:1057880003600446D0F8CC0108B1FEF784FCD4F8D5
:10579800C45135B12846FFF7D2FF0421284600F04E
:1057A800BEFCA06808B1FFF7C5FF204638BD00BFA2
:1057B8006C6C0D0038B50D4C0D4B23600025022391
:1057C80004F5E4706360A560C4F8C451C4F8C85116
:1057D800FFF754FA074BC4F8CC5123602046064A19
:1057E8000649BDE8384000F095BC00BF34E5032009
:1057F800546D0D006C6C0D006CE3032085570D0093
:1058080037B502AC036804F8011DDD6B01224FF0C7
:10581800FF332146A84703B030BD10B40368DC6BE2
:105828004FF0FF33A4465DF8044B604737B502AC30
:10583800036804F8011DDD6B214613460122A847C1
:1058480003B030BD704738B543691A68002A04466A
:1058580005DAB3F88620B3F884309A4201D00125DE
:105868000BE003681B699847002814BF0125002531
:1058780003D123682046DB6A9847284638BD436928
:105888001868C043C00F704770470020704710B5B4
:105898001421044600F043FC204610BDFEF7F9BB76
:1058A8002DE9F0439846036893B0DB6A0C46064638
:1058B8001746984712AB002543F8485D2A46294603
:1058C8002046FFF743F900283ADB009B002B39D02C
:1058D8005B69002B36D006A8FFF73EFD009B5C698C
:1058E8006378022B01D1211D13E00A2B14D1112258
:1058F800294601A800F07FFDA36833BBE36823BBFA
:105908004FF6FF702569FFF7C9F985421DD104F1EB
:10591800140106A8FFF770FD06A8FFF73DFD88B142
:10592800336807ADD3F82090184B0C930FCD0DAC0E
:105938000FC42B6823703A4643460CA93046C84723
:1059480004461CE04FF0FF3419E004F1080301ADF0
:105958001834186859682A4603C20833A342154602
:10596800F7D1062301A90CA80DAD8DF81430FFF767
:1059780001FD0FCD07AC0FC42B682370CCE700984E
:10598800FFF7DCF8204613B0BDE8F083D06B0D00BC
:105998007FB5164600224260029203925A1C0446C2
:1059A8000D4608D04FF47A72B3FBF2F1029102FB74
:1059B80011314A43039260690823009341F20502BA
:1059C8006B4440F6FF710068FFF7F0F9002808DB28
:1059D80060690023324629460068FFF707FA002865
:1059E80004DAFFF7E7FA03686360002004B070BDCB
:1059F80010B5036804469B689847A368013BA360F9
:105A08002BB923682046DB68BDE81040184710BD55
:105A180070B504464D69054B44F8043B8C35064681
:105A28000FCD0FC42B682370304670BDD06B0D00AE
:105A380010B54369B3F88620B3F884309A42044617
:105A480005D06269B2F884301344187910BD036830
:105A58001B6998470028F4D14FF0FF3010BD10B5EE
:105A68004369B3F88620B3F884309A42044608D0D4
:105A78006269B2F88430591C1344A2F8841018796A
:105A880010BD03681B6998470028F1D14FF0FF301B
:105A980010BDF8B543691746B3F88620B3F88430CB
:105AA8009A4205460E4606D103681B69984710B905
:105AB8004FF0FF3414E06969B1F88430B1F88640DA
:105AC800E41ABC4228BF3C461944224604313046F9
:105AD80000F086FC6A69B2F884302344A2F8843066
:105AE8002046F8BD42690023A2F884304269A2F832
:105AF800863070472DE9F041984603680D468AB014
:105B0800DB6A0646174698472B7D7469042B0CBF41
:105B180002200A2006220121FFF770F9206073692C
:105B28001C68002C5BDB3046FFF7DCFFB8F1000F88
:105B380017D0002303A95FFA88F00393ADF810305B
:105B4800FFF764F8002849DB70690623009341F2E7
:105B58000B0203AB40F6FF710068FFF727F9002836
:105B68003CDB1C242246002103A800F044FC2B7DCA
:105B78008DF80C40042B0CD1022338468DF80D30DB
:105B8800FFF794F8ADF80E006868FFF787F80490FF
:105B980013E00A2338468DF80D30FFF787F805AC77
:105BA800ADF80E002B1D05F1140718685968224638
:105BB80003C20833BB421446F7D173691C2203A9F8
:105BC8001868FFF703F9002808DB2C1D0FCC76694D
:105BD8008C360FC623683370012404E0044633680A
:105BE8003046DB6A984720460AB0BDE8F08110B518
:105BF800436904461868002801DBFFF7DFF863698A
:105C08004FF0FF321A606069112200218C3000F0D9
:105C1800F2FB2046BDE81040FFF764BF30B542698B
:105C2800B2F886308BB004461BB1B2F884209A4291
:105C380040D06369186800283FDBB3F886507F2D91
:105C48003BD8191DC5F1800208232944FFF7C6F87F
:105C580000280CDD6369B3F886200AB9A3F884200C
:105C68006269B2F886301844A2F8860025E0FFF78A
:105C7800A1F903680B2B20D0FFF79CF903680B2BC5
:105C88001BD02023002502930395FFF793F903689F
:105C980001930E4B009302AA2B460D493220FFF7C1
:105CA800E5F863691868FFF789F863694FF0FF3210
:105CB8001A6002E0FFF716FFBBE76269B2F88630A8
:105CC800B2F88400181A0BB030BD00BF076D0D0084
:105CD800006D0D0010B5002304460160A0F8843063
:105CE800A0F886308830FFF737FB204610BD00004B
:105CF8004FF47A7270B500238260144A43600260E0
:105D0800436183610446A0200E46FEF7C0F90546AC
:105D180010B13146FFF7DEFF1420FEF7B8F903464D
:105D280028B1012242608260094A02600561A069C7
:105D38006561A36128B14368013B43600BB9FFF774
:105D480057FE2046FFF7CEFE204670BDBC6C0D0006
:105D5800A06C0D0010B54FF0FF310446FFF7C8FFE7
:105D6800204610BD10B504460068002801DBFFF787
:105D780025F8204610BD10B504692046FFF7F2FF4C
:105D880024B12046BDE81040FEF783B910BD0022BB
:105D980011464068FFF7AEB8002211464068FFF789
:105DA800C9B8002211464068FFF7D4B800224068FD
:105DB800FFF7C8B8002281F001014068FFF7B2B8C8
:105DC80000231A4619464068FFF7A4B800231A466C
:105DD80019464068FFF796B8002211464068FFF759
:105DE80079B8002202214068FFF77CB800231A46E0
:105DF8004068FFF767B80000024B04225A60024A65
:105E08001A60704704E70320206D0D0000231A462E
:105E18004068FFF757B8002202214068FFF762B8D0
:105E2800002211464068FFF755B800221146406825
:105E3800FFF760B800231A4619464068FFF762B8B2
:105E480000231A4619464068FFF764B8002281F01B
:105E580001014068FFF766B800224068FFF772B892
:105E6800002211464068FFF775B8002211464068C5
:105E7800FFF760B82DE9F043002495B016460D46AB
:105E88000746FFF769FA214620220CA8009400F083
:105E9800B2FA40230C9321466B460CAA3046FEF713
:105EA80055FE0446002844D1024601216868FFF7E0
:105EB80021F80221804622466868FFF71BF8009EF9
:105EC80081462146002E34D0002932D17368022B36
:105ED80002D00A2B09D02AE0B8F1000F27D0716947
:105EE80038460431FFF788FA20E0B9F1000F1ED0D8
:105EF8007469112201A800F07EFA06238DF8143087
:105F080001AD04F108031834186859682A4603C219
:105F18000833A3421546F7D101A906A807ADFFF734
:105F280029FA0FCD3C1D0FC42B6823700121F66997
:105F3800C8E70098FEF702FE384615B0BDE8F083C2
:105F4800024B034A1A6000225A6070470CE703208C
:105F5800546D0D0010B504460F48FFF78DF828B1B1
:105F6800A4F10B03022B01D8002010BD00F0B2F8F9
:105F7800FFF792FB08B1012CF6D9FFF729FBFFF7D1
:105F880023FB18B1A4F10903012BEDD9232C8CBFF5
:105F98000020012010BD00BF14E70320232838B5D6
:105FA80004460D460AD8FF2908D0FFF7D3FF28B1C9
:105FB80029462046BDE83840FEF7E0BD38BD38B573
:105FC80004460D46FEF7E2FDFF2810D0062804D847
:105FD8004D2323FA00F0C30709D42046FFF7BAFF80
:105FE80028B129462046BDE83840FEF7D7BD38BD60
:105FF80010B50446FEF7CAFD0438C0B2012808D916
:106008002046FFF7A7FF20B12046BDE81040FEF765
:10601800CDBD002010BD0D2810B504469CBF0E3420
:10602800A4B22046FFF796FF50B103212046FEF7A1
:106038009DFD032804D12046BDE81040FEF7C6BDEB
:10604800002010BD38B504460D46FFF783FFF0B1B8
:1060580004212046FEF78AFD042805D1A9B220466E
:10606800BDE83840FEF7AABD02212046FEF77EFDB6
:1060780002280CD12046FEF789FD012801D004280A
:1060880005D129462046BDE83840FEF7A7BD38BDF2
:1060980070B50C4C0C4E0D4D00212046FEF7D8FF74
:1060A80020460B4C3246294600F034F801212046A0
:1060B800FEF7CEFF324629462046BDE8704000F084
:1060C80029B800BF14E703206CE3032049500D00F2
:1060D80024E7032038B50B4D296811F001040FD1CE
:1060E8002846FDF7DAFF58B121460748FFF7C2FAFC
:1060F8002846FDF7D7FF054A0549034800F00AF886
:10610800014838BD38E703203CE703206CE303204F
:1061180025560D000B460146184600F053B9FDF709
:10612800B8BF0000184B1A68D1075CBF01221A607B
:10613800164B1A68D2075CBF01221A60144B1A6802
:10614800D0075CBF01221A60124B1A68D1075CBFE6
:1061580001221A60104B1A68D2075CBF01221A602C
:106168000E4B1A68D0075CBF01221A600C4B1A68E4
:10617800D1075CBF01221A600A4B1A68D2075CBFBC
:1061880001221A60704700BF6CE7032068E703200C
:1061980064E7032060E703205CE7032058E7032057
:1061A80054E7032050E70320244B1A68D0075CBF4C
:1061B80001221A60224B1A68D1075CBF01221A60BB
:1061C800204B1A68D2075CBF01221A601E4B1A685E
:1061D800D0075CBF01221A601C4B1A68D1075CBF4C
:1061E80001221A601A4B1A68D2075CBF01221A6092
:1061F800184B1A68D0075CBF01221A60164B1A6840
:10620800D1075CBF01221A60144B1A68D2075CBF21
:1062180001221A60124B1A68D0075CBF01221A606B
:10622800104B1A68D1075CBF01221A600E4B1A681E
:10623800D2075CBF01221A60704700BF9CE70320A9
:1062480098E7032094E7032090E703208CE70320D6
:1062580088E7032084E7032080E703207CE7032006
:1062680078E7032074E7032070E70320244B1A68BB
:10627800D0075CBF01221A60224B1A68D1075CBFA5
:1062880001221A60204B1A68D2075CBF01221A60EB
:106298001E4B1A68D0075CBF01221A601C4B1A6893
:1062A800D1075CBF01221A601A4B1A68D2075CBF7B
:1062B80001221A60184B1A68D0075CBF01221A60C5
:1062C800164B1A68D1075CBF01221A60144B1A6872
:1062D800D2075CBF01221A60124B1A68D0075CBF54
:1062E80001221A60104B1A68D1075CBF01221A609C
:1062F8000E4B1A68D2075CBF01221A60704700BFB4
:10630800CCE70320C8E70320C4E70320C0E7032045
:10631800BCE70320B8E70320B4E70320B0E7032075
:10632800ACE70320A8E70320A4E70320A0E70320A5
:10633800184B1A68D1075CBF01221A60164B1A68FD
:10634800D2075CBF01221A60144B1A68D0075CBFE1
:1063580001221A60124B1A68D1075CBF01221A6029
:10636800104B1A68D2075CBF01221A600E4B1A68DC
:10637800D0075CBF01221A600C4B1A68D1075CBFBA
:1063880001221A600A4B1A68D2075CBF01221A6000
:10639800704700BFECE70320E8E70320E4E70320A9
:1063A800E0E70320DCE70320D8E70320D4E7032055
:1063B800D0E703200A22002100F0FAB80A220021BF
:1063C80000F0F6B810B5054C13462CB10A46014644
:1063D8000220AFF3008010BD204610BD0000000071
:1063E80010B5431E0A44914204D011F8014B03F83A
:1063F800014FF8E710BD02440346934202D003F868
:10640800011BFAE77047000038B5124B1C68A36BF4
:106418000546D3B91820FEF7B5FD43F20E33A06345
:1064280003804AF6CD33438041F2342383804EF211
:106438006D63C3804DF6EC630381052343810B2311
:10644800838101220023C0E90423A36B00221D617C
:106458005A6138BD68E3032010F8012B11F8013B9D
:10646800012A28BF9A42F7D0D01A7047034613F87A
:10647800012B002AFBD1181A0138704710B50346C2
:1064880042B111F8014B03F8014B013A002CF7D146
:106498001A4400E010BD934202D003F8014BFAE71A
:1064A80010BD00002DE9F04780464048D0F8009024
:1064B8000F463D4615F8014B09EB0400407800F003
:1064C800080000F0FF0608B12F46F2E72D2C03D193
:1064D800BD1C7C78012603E02B2C04BF7C78BD1CF6
:1064E80013B1102B0AD15BE0302C57D1287800F07B
:1064F800DF0058284DD16C7810230235002E14BFC8
:106508004FF0004C6FF0004C0027BCFBF3FA384604
:1065180003FB1ACC09EB040E9EF801E01EF0040FF1
:1065280001D0303C0BE01EF0030E1BD0BEF1010F72
:106538000CBF4FF0370E4FF0570ECEEB0404A342BA
:1065480010DDB7F1FF3F0AD0504506D801D16445A8
:1065580003DC03FB0040012701E04FF0FF3715F88B
:10656800014BD7E77B1C0CD1002E4FF0220314BF40
:106578004FF000406FF00040C8F800302AB9BDE87D
:10658800F08706B1404272B107B1691E1160BDE8DB
:10659800F0873024002BB1D10823AFE70A23ADE7F9
:1065A800302CA3D0AAE7BDE8F08700BF04E303209E
:1065B80013460A46014602480068FFF773BF00BF4A
:1065C80068E303201D400D0059400D0085400D0073
:1065D80089400D0000000000626C6E6B696E6600F9
:1065E80076657200302E352E3400682D6265617430
:1065F80000313000627566662D696E0031303234C4
:1066080000646576005061727469636C6500627538
:10661800696C64004A756C2020332032303139208F
:1066280031303A32343A3332000000256900256CA3
:106638006900696E006F75740070776D006477008B
:1066480061770066333337643239316535356634FE
:106658003836626165643334383936616239633695
:10666800356435004D6F74696F6E204465746563D9
:106678007465642100000000134B0D00134B0D00DE
:10668800134B0D00134B0D00134B0D00134B0D0056
:10669800134B0D00134B0D00134B0D00134B0D0046
:1066A800134B0D00134B0D00134B0D00134B0D0036
:1066B800134B0D00134B0D00134B0D00134B0D0026
:1066C800134B0D00134B0D00134B0D00134B0D0016
:1066D800134B0D00134B0D00134B0D00134B0D0006
:1066E800134B0D00134B0D00134B0D00134B0D00F6
:1066F800134B0D00134B0D00134B0D00134B0D00E6
:10670800134B0D00134B0D00134B0D00134B0D00D5
:10671800134B0D00134B0D00134B0D00134B0D00C5
:10672800134B0D00134B0D00134B0D00134B0D00B5
:10673800134B0D00134B0D00134B0D00134B0D00A5
:10674800134B0D00134B0D00134B0D00134B0D0095
:10675800134B0D00134B0D00134B0D00134B0D0085
:10676800134B0D00134B0D00134B0D00134B0D0075
:10677800134B0D00134B0D00134B0D00134B0D0065
:10678800134B0D00134B0D00134B0D00134B0D0055
:10679800134B0D00134B0D00134B0D00134B0D0045
:1067A800134B0D00134B0D00134B0D00134B0D0035
:1067B800134B0D00134B0D00134B0D00134B0D0025
:1067C800134B0D00134B0D00134B0D00134B0D0015
:1067D800134B0D00134B0D00134B0D00134B0D0005
:1067E800134B0D00134B0D00134B0D00134B0D00F5
:1067F800134B0D00134B0D00134B0D00134B0D00E5
:10680800134B0D00134B0D00134B0D00134B0D00D4
:10681800134B0D00134B0D00134B0D00134B0D00C4
:10682800134B0D00134B0D00134B0D00134B0D00B4
:10683800134B0D00134B0D00134B0D00134B0D00A4
:10684800134B0D00134B0D00134B0D00134B0D0094
:10685800134B0D00134B0D00134B0D00134B0D0084
:10686800134B0D00134B0D00134B0D00134B0D0074
:10687800134B0D00134B0D00114B0D00114B0D0068
:10688800114B0D00114B0D00114B0D00114B0D005C
:10689800114B0D00114B0D00114B0D00114B0D004C
:1068A800114B0D00114B0D00114B0D00114B0D003C
:1068B800114B0D00114B0D00114B0D00114B0D002C
:1068C800114B0D00114B0D00114B0D00114B0D001C
:1068D800114B0D00114B0D00114B0D00114B0D000C
:1068E800114B0D00114B0D00114B0D00114B0D00FC
:1068F800114B0D00114B0D00114B0D00114B0D00EC
:10690800114B0D00114B0D00114B0D00114B0D00DB
:10691800114B0D00114B0D00114B0D00114B0D00CB
:10692800114B0D00114B0D00114B0D00114B0D00BB
:10693800114B0D00114B0D00114B0D00114B0D00AB
:10694800114B0D00114B0D00114B0D00114B0D009B
:10695800114B0D00114B0D00114B0D00114B0D008B
:10696800114B0D00114B0D00114B0D00114B0D007B
:10697800114B0D00114B0D00114B0D00114B0D006B
:10698800114B0D00114B0D00114B0D00114B0D005B
:10699800114B0D00114B0D00114B0D00114B0D004B
:1069A800114B0D00114B0D00114B0D00114B0D003B
:1069B800114B0D00114B0D00114B0D00114B0D002B
:1069C800114B0D00114B0D00114B0D00114B0D001B
:1069D800114B0D00114B0D00114B0D00114B0D000B
:1069E800114B0D00114B0D00114B0D00114B0D00FB
:1069F800114B0D00114B0D00114B0D00114B0D00EB
:106A0800114B0D00114B0D00114B0D00114B0D00DA
:106A1800114B0D00114B0D00114B0D00114B0D00CA
:106A2800114B0D00114B0D00114B0D00114B0D00BA
:106A3800114B0D00114B0D00114B0D00114B0D00AA
:106A4800114B0D00114B0D00114B0D00114B0D009A
:106A5800114B0D00114B0D00114B0D00114B0D008A
:106A6800114B0D00114B0D00114B0D00114B0D007A
:106A7800114B0D00114B0D0000000000000000003C
:106A88002B500D0021500D0017500D000D500D001A
:106A980001500D00F54F0D00E94F0D00E14F0D00BD
:106AA800D74F0D00CD4F0D007D5E0D00000000009A
:106AB8000000000049500D004B500D0066006C6E40
:106AC80000666E00636F64650064657461696C00DC
:106AD8000D0A00253031307520005D20002C200083
:106AE80028293A2000205B00636F6465203D200060
:106AF80064657461696C73203D200062617564008F
:106B080053657269616C0053657269616C31007418
:106B180079706500706172616D00636D640069640D
:106B280000686E64007374726D0066696C74006C42
:106B3800766C0061646448616E646C6572007265AD
:106B48006D6F766548616E646C657200656E756D13
:106B580048616E646C657273004A534F4E53747289
:106B680065616D4C6F6748616E646C657200617039
:106B780070006E6F6E6500747261636500696E66A1
:106B88006F007761726E006572726F720070616E6D
:106B9800696300616C6C005A00252B3033643A2518
:106BA8003032750025592D256D2D25645425483A18
:106BB800254D3A2553257A0061736374696D650024
:106BC8000000000000000000FD520D00ED520D0015
:106BD800EF520D0000000000000000001B540D00E3
:106BE8006B540D0079540D00B1500D0057540D0031
:106BF8001D540D0033540D0065540D0049540D000B
:106C080017540D00000000000000000021550D0081
:106C180071550D007F550D00B1500D0035550D0013
:106C280057550D0043550D006B550D0023550D00AC
:106C380027550D00000000000000000025560D003B
:106C48006F560D0047560D0027560D004F560D0084
:106C580057560D005F560D0067560D0000000000E6
:106C68000000000007570D00FD560D00F3560D00FB
:106C7800E9560D00DD560D00D1560D00C5560D0024
:106C8800BD560D00B3560D00A9560D007D5E0D00D2
:106C9800000000000000000091580D0097580D00FA
:106CA8007F5D0D00A5580D0093580D0000000000F1
:106CB80000000000CD400D000D410D0009580D00E9
:106CC80023580D00255C0D00675A0D00395A0D0038
:106CD8004D580D00FD5A0D00A9580D009B5A0D0086
:106CE800F75B0D004F580D0087580D0035580D0003
:106CF80099590D00195A0D00776972696E6700720B
:106D0800656376206572726F72203D2025640000ED
:106D18000000000000000000F55D0D00EB5D0D00B7
:106D2800E15D0D00975D0D00D55D0D00C95D0D009D
:106D3800BD5D0D00B55D0D00AB5D0D00A15D0D00E5
:106D48007D5E0D000000000000000000155E0D00D3
:106D58001F5E0D00295E0D00335E0D003D5E0D00C7
:106D6800495E0D00555E0D00615E0D00695E0D0007
:106D7800735E0D007D5E0D00002020202020202065
:106D880020202828282828202020202020202020D3
:106D980020202020202020202088101010101010E3
:106DA800101010101010101010040404040404042F
:106DB80004040410101010101010414141414141C9
:106DC80001010101010101010101010101010101AB
:106DD80001010101101010101010424242424242BB
:106DE800020202020202020202020202020202027B
:106DF8000202020210101010200000000000000023
:106E0800000000000000000000000000000000007A
:106E1800000000000000000000000000000000006A
:106E2800000000000000000000000000000000005A
:106E3800000000000000000000000000000000004A
:106E4800000000000000000000000000000000003A
:106E5800000000000000000000000000000000002A
:106E6800000000000000000000000000000000001A
:106E7800000000000000000000000000000000000A
:106E880000000000000000000000000000000000FA
:106E980000000000000000000000000000000000EA
:106EA80000000000000000000000000000000000DA
:106EB80000000000000000000000000000000000CA
:106EC80000000000000000000000000000000000BA
:106ED8000000000000000000000000004300000067
:106EE800B14A0D00014B0D000D4B0D00414B0D003B
:106EF80035500D0089500D00A1500D00B5510D0001
:106F0800C5510D00FD510D00BD570D00015E0D006E
:106F1800495F0D0099600D002D610D00B1610D00F4
:086F280075620D0039630D00D4
:106F3000C06B0D00806D0D0000000000846E0D0020
:106F4000A46E0D00C46E0D000000000000000000E3
:106F50000000000000000000E46E0D0000000000D2
:106F60000000000000000000000000000000000021
:106F70000000000000000000000000000000000011
:106F80000000000000000000000000000000000001
:0C6F9000000000000000000008E30320E7
:106F9C00FFFFFFFF00000102030405060708090AB2
:106FAC000B0C0D0E0F101112131415161718191AAD
:086FBC001B1C1D1E1F202800F4
:046FC40078563412B5
:04000003D0004018D1
:00000001FF
