:02000002D0002C
:1040000000400D0040560D00000006000C000501A8
:08401000040115050000000089
:1040180074520D0009480A49884208B505D0094A72
:10402800824202D0121A01F0DDF80748074A00213F
:10403800121A01F0E2F8014808BD00BF58E3032056
:10404800B0550D00C0E30320C0E30320F0E70320D0
:1040580070B500F05FFB074C074BE41AA408002575
:104068001E46A54204D056F8253098470135F8E792
:1040780070BD00BFB0550D0074550D0000F013B8A9
:1040880008B500F01BF8BDE8084000F011BB00F0CF
:10409800EDB900F0EBB90078B0FA80F0400970474C
:1040A80001230370704708B50121062000F0BCFE0B
:1040B80000210820BDE8084000F0B6BE08B5082079
:1040C80000F0DCFE012818BF01214FF0060008BFF0
:1040D800002100F0BAFE6420BDE8084000F0AABA4A
:1040E80008B500F01FF8064B00221A705A804FF6E8
:1040F800FF729A800320BDE8084000F033B900BF82
:10410800C4E3032008B5024B1B689B68019308BDF4
:104118006802030008B5024B1B68DB68019308BD01
:104128006802030008B5024B1B681B68019308BDB1
:104138002C02030008B5024B1B689B68019308BD5D
:104148002C02030008B5024B1B68DB68019308BD0D
:104158002C02030008B5024B1B681B69019308BDBC
:104168002C02030008B5024B1B685B69019308BD6C
:104178002C02030008B5024B1B68DB69019308BDDC
:104188003002030008B5024B1B681B6A019308BD87
:104198003002030008B5024B1B685B68019308BD39
:1041A8001802030008B5024B1B685B69019308BD40
:1041B8001802030008B5024B1B689B68019308BDF1
:1041C8004802030008B5024B1B681B69019308BD30
:1041D8004802030008B5024B1B685B69019308BDE0
:1041E8004802030008B5024B1B681B6B019308BD0E
:1041F8004802030008B5024B1B685B6C019308BDBD
:104208004802030008B5024B1B685B69019308BDAF
:104218006402030008B5024B1B681B68019308BDC4
:104228003C02030008B5024B1B68DB68019308BD1C
:104238003C02030008B5024B1B681B69019308BDCB
:104248003C02030008B5024B1B685B69019308BD7B
:104258003C02030008B5024B1B689B69019308BD2B
:104268003C02030008B5024B1B68DB69019308BDDB
:104278003C02030008B5024B1B681B6A019308BD8A
:104288003C02030008B5024B1B689B6A019308BDFA
:104298003C02030008B5024B1B681B6A019308BD6A
:1042A8002802030008B5024B1B685B6A019308BD2E
:1042B8002802030008B5024B1B689B6A019308BDDE
:1042C8002802030008B5024B1B68DB6A019308BD8E
:1042D8002802030008B5024B1B681B6B019308BD3D
:1042E8002802030008B5024B1B685B6B019308BDED
:1042F8002802030008B5024B1B681B6C019308BD1C
:104308002802030008B5024B1B681B68019308BD0F
:104318004C02030008B5024B1B681B69019308BDDA
:104328004C02030008B5024B1B685B69019308BD8A
:104338004C02030008B5024B1B689B69019308BD3A
:104348004C02030008B5024B1B68DB69019308BDEA
:104358004C02030008B5024B1B681B6A019308BD99
:104368004C02030008B5024B1B685B68019308BD4B
:104378002002030008B5024B1B685B69019308BD66
:104388002002030008B5034B1B68D3F8883001935B
:1043980008BD00002002030008B5034B1B68D3F8D2
:1043A8009430019308BD00002002030008B5024BB9
:1043B8001B685B68019308BD4002030008B5024B07
:1043C8001B689B68019308BD4002030008B5024BB7
:1043D8001B68DB68019308BD4002030008B5024B67
:1043E8001B681B69019308BD4002030008B5024B16
:1043F8001B685B69019308BD4002030008B5024BC6
:104408001B689B69019308BD4002030008B5024B75
:104418001B68DB69019308BD4002030008B5024B25
:104428001B681B6A019308BD4002030008B5024BD4
:104438001B681B6B019308BD4002030008B5024BC3
:104448001B685B6B019308BD4002030008B5024B73
:104458001B68DB6B019308BD4402030008B5024BDF
:104468001B681B68019308BD1C02030008B5024BBA
:104478001B685B68019308BD1C02030000221146FB
:104488004068FFF7CBBF002211464068FFF7D6BF50
:1044980000224068FFF7CABF002281F0010140688E
:1044A800FFF7B4BF00231A4619464068FFF7A6BFB6
:1044B80000231A4619464068FFF798BF00221146A4
:1044C8004068FFF78BBF002211464068FFF776BFB0
:1044D800002202214068FFF779BF00231A4640688E
:1044E800FFF764BF024B03225A60024A1A60704702
:1044F800CCE3032090520D00704710B510210446FC
:1045080000F017FD204610BD70B5084B0360044647
:1045180000250E4640F80C5FFFF764FE3046267112
:10452800FFF728FEA560204670BD00BFC4520D00ED
:104538000079FFF727BE0000044B00204FF6FF72FA
:10454800187058809A80FFF70DBF00BFD4E303208E
:10455800024800230360FFF74DBE00BFDCE30320E1
:10456800F8B506460D468F180024BD420CD03368B6
:1045780015F8011B9B6830469847002801DB044466
:10458800F3E7002C08BF04462046F8BD70B5054681
:104598000C46084649B100F061FE2B6802462146E8
:1045A8002846DB68BDE87040184770BD03689B6803
:1045B800184730B58BB00B4600218DF82410012A1E
:1045C80098BF0A220DF12304B3FBF2F505FB123361
:1045D80003F0FF03092B94BF30333733DBB2214696
:1045E80004F801392B46002DEED1FFF7CFFF0BB0B1
:1045F80030BD10B42AB903685DF8044B9B68C9B292
:104608001847D2B25DF8044BFFF7D3BFFFF7F1BFED
:10461800014B024A1A607047E0E3032084530D00FF
:10462800024B1A68024B1A60704700BF58E3032018
:10463800E4E303200021FFF79DBE10B5836804461C
:1046480013B1032201469847204610BD10B5044611
:10465800FFF7F3FF204610BD0348044A044900232E
:10466800836000F061BC00BFE8E30320C0E30320DF
:1046780055460D0008B50C4B33B100F035F9036809
:104688001B699847002809DC084B63B100F0AEF9B4
:1046980003681B699847002803DC08BDAFF3008056
:1046A800F2E7AFF3008008BD000000000000000042
:1046B80008B5FFF7DFFFFFF775FD014B186008BD70
:1046C80034E7032007B5002300931A466FF07701FB
:1046D800FFF762FE03B05DF804FB000007B54388EE
:1046E8000A2B08D0502B09D1094B1B683BB103B0EA
:1046F8005DF804EB1847FFF7E5FF06E00023009399
:104708001A466FF07701FFF747FE03B05DF804FB28
:10471800F8E3032010B5FFF73DFD044600F076FDF1
:10472800074B13B12046AFF3008000210448FFF780
:104738008DFE00210348BDE81040FFF723BE00BFEF
:1047480000000000E5460D00704710B5182104462A
:1047580000F0EFFB204610BDF0B5037D062B8DB0B1
:104768000E4600F104074FF0000402D000F10805DE
:1047780018E00CAD394605F8304D2F232A460A209B
:10478800FFF740FD284600F069FD33680246DB6804
:104798002946304698470FE024B12E213046FFF7CE
:1047A80005FF044415F8011D0A223046FFF72EFFC5
:1047B800BD420444F0D120460DB0F0BD10B5054B04
:1047C8000446112240F8043B002100F016FD204663
:1047D80010BD00BFE0530D000346074A10B543F86B
:1047E800042B01F1100251F8044B43F8044B914299
:1047F800F9D10A781A7010BDE0530D0010B59DF874
:10480800084044EA032343EA024242EA01610423DE
:104818004160037510BD37B50D788B784A78C97833
:1048280000912946FFF7EAFF03B030BD4174704795
:10483800704708B50021007CFFF77CFD30EA2000B6
:1048480028BF4FF0FF3008BD08B50121007CFFF7F5
:1048580071FD30EA200028BF4FF0FF3008BD08B5D1
:10486800007CFFF75FFD20EAE07008BD08B5007C1A
:10487800FFF750FD20EAE07008BD007CFFF76ABD35
:1048880010B51421044600F054FB204610BD38B57D
:104898000446007C0D46FFF745FD002801DC607CDE
:1048A80028B12946207CFFF74DFD20EAE07038BD8D
:1048B80010B50446002363604FF47A73A360054B78
:1048C800236001230846217463741146FFF71AFD1B
:1048D800204610BDF4530D0010B5142204460021E3
:1048E80000F08BFC204610BD30B50E4D87B001A8F6
:1048F800FFF7F2FF296811F0010410D12846FFF7ED
:10490800CAFB60B101AA21460748FFF7D1FF284634
:10491800FFF7C6FB054A0649034800F005FB0248B5
:1049280007B030BDFCE3032000E40320C0E303200C
:1049380039480D0070474174704708B5007CFFF78F
:10494800A1FC20EAE07008BD08B5007CFFF772FC06
:1049580020EAE07008BD08B5007CFFF77BFC30EA70
:10496800200028BF4FF0FF3008BD08B5007CFFF7D6
:1049780069FC30EA200028BF4FF0FF3008BD007CFA
:10498800FFF770BC10B51421044600F0D2FA204697
:1049980010BD70B5457C04460E4625B9007CFFF76E
:1049A80071FC002805DD3146207CBDE87040FFF72A
:1049B80039BC284670BD000010B5044608461146AB
:1049C800002262604FF47A72A260054A22600122D6
:1049D800207462741A46FFF71DFC204610BD00BF04
:1049E80024540D00007CFFF745BC000038B50C4D81
:1049F800296811F0010411D12846FFF74CFB68B172
:104A0800084A094B09482146FFF7D6FF2846FFF711
:104A180047FB074A0749054800F086FA034838BDAE
:104A2800ACE40320B0E4032028E4032014E40320CA
:104A3800C0E303203D490D007047F8B5064615460A
:104A48000C468F18BC4206D0336814F8011B9B68CB
:104A580030469847F6E72846F8BD0022007CFFF765
:104A680019BC0021007CFFF71DBC0021007CFFF76A
:104A780021BC0021007CFFF725BC0021007CFFF74A
:104A880029BC10B51421044600F053FA204610BD85
:104A980010B504464FF47A730846A3600021044B0E
:104AA800207461602360FFF725FC204610BD00BF1D
:104AB80054540D000021007CFFF714BC002211465D
:104AC8004068FFF7ABBC002211464068FFF7B6BC50
:104AD80000224068FFF7AABC002281F0010140686B
:104AE800FFF794BC00231A4619464068FFF786BCB6
:104AF80000231A4619464068FFF778BC0022114681
:104B08004068FFF76BBC002211464068FFF756BCAF
:104B1800002202214068FFF759BC00231A4640686A
:104B2800FFF744BC38B5054688B104684CB1A368A2
:104B38001BB103222146204698471021204600F049
:104B4800F8F928461421BDE8384000F0F2B938BD1C
:104B580010B103685B681847704710B503680446CE
:104B6800BBB15868FFF726FB78B923685A7C12B99D
:104B78005868FFF727FB23685868FFF72BFB206866
:104B88000023236028B1FFF7CDFF206808B1FFF7A5
:104B9800C9FF204610BD000038B50C4B0360044621
:104BA800D0F8CC0108B1FFF774FAD4F8C45135B184
:104BB8002846FFF7D2FF0421284600F0BAF9A0687A
:104BC80008B1FFF7C5FF204638BD00BF7C540D0073
:104BD80038B50D4C0D4B23600025022304F5E47015
:104BE8006360A560C4F8C451C4F8C851FFF702FB5C
:104BF800074BC4F8CC5123602046064A0649BDE855
:104C0800384000F091B900BF34E50320E4540D00AA
:104C18007C540D00C0E30320A14B0D000022114677
:104C28004068FFF7DBBB002211464068FFF7F6BB80
:104C3800002211464068FFF701BC00224068FFF7D8
:104C4800F5BB002281F001014068FFF7DFBB0023BC
:104C58001A4619464068FFF7D1BB00231A46194681
:104C68004068FFF7C3BB002211464068FFF7A6BBA8
:104C7800002202214068FFF7A9BB00231A464068BA
:104C8800FFF794BB024B04225A60024A1A6070472D
:104C980004E70320B0540D0000231A464068FFF7CC
:104CA80085BB002202214068FFF790BB0022114615
:104CB8004068FFF783BB002211464068FFF78EBBB0
:104CC80000231A4619464068FFF790BB00231A468E
:104CD80019464068FFF792BB002281F00101406845
:104CE800FFF794BB00224068FFF7A0BB00221146E3
:104CF8004068FFF7A3BB002211464068FFF78EBB50
:104D08002DE9F043002495B016460D460746FFF7F7
:104D180055FD214620220CA8009400F06EFA40238D
:104D28000C9321466B460CAA3046FFF7F3F904466C
:104D3800002844D1024601216868FFF74FFB022191
:104D4800804622466868FFF749FB009E8146214657
:104D5800002E34D0002932D17368022B02D00A2BDE
:104D680009D02AE0B8F1000F27D07169384604311C
:104D7800FFF751FD20E0B9F1000F1ED07469112230
:104D880001A800F03AFA06238DF8143001AD04F1B9
:104D980008031834186859682A4603C20833A3421E
:104DA8001546F7D101A906A807ADFFF715FD0FCDE8
:104DB8003C1D0FC42B6823700121F669C8E70098D1
:104DC800FFF7A0F9384615B0BDE8F083024B034A57
:104DD8001A6000225A6070470CE70320E4540D0063
:104DE80010B504460F48FFF7A3FB28B1A4F10B0345
:104DF800022B01D8002010BD00F076F8FFF75AFE0C
:104E080008B1012CF6D9FFF7F1FDFFF7EBFD18B15A
:104E1800A4F10903012BEDD9232C8CBF002001201C
:104E280010BD00BF14E70320232838B504460D46FB
:104E38000AD8FF2908D0FFF7D3FF28B12946204612
:104E4800BDE83840FFF776B938BD38B504460D4699
:104E5800FFF778F9FF2810D0062804D84D2323FA45
:104E680000F0C30709D42046FFF7BAFF28B1294646
:104E78002046BDE83840FFF76DB938BD10B5044687
:104E8800FFF760F90438C0B2012808D92046FFF7B7
:104E9800A7FF20B12046BDE81040FFF763B9002006
:104EA80010BD000070B50C4C0C4E0D4D0021204675
:104EB800FFF72AFB20460B4C3246294600F034F80F
:104EC80001212046FFF720FB324629462046BDE84F
:104ED800704000F029B800BF14E70320C0E30320A6
:104EE80001450D0024E7032038B50B4D296811F062
:104EF80001040FD12846FFF7CEF858B121460748DC
:104F0800FFF7C6FD2846FFF7CBF8054A05490348D1
:104F180000F00AF8014838BD38E703203CE70320D1
:104F2800C0E30320414A0D000B460146184600F035
:104F38004BB9FFF7ACB80000184B1A68D1075CBF33
:104F480001221A60164B1A68D2075CBF01221A6048
:104F5800144B1A68D0075CBF01221A60124B1A68FA
:104F6800D1075CBF01221A60104B1A68D2075CBFD8
:104F780001221A600E4B1A68D0075CBF01221A6022
:104F88000C4B1A68D1075CBF01221A600A4B1A68D9
:104F9800D2075CBF01221A60704700BF6CE703208C
:104FA80068E7032064E7032060E703205CE7032049
:104FB80058E7032054E7032050E70320244B1A68DE
:104FC800D0075CBF01221A60224B1A68D1075CBF68
:104FD80001221A60204B1A68D2075CBF01221A60AE
:104FE8001E4B1A68D0075CBF01221A601C4B1A6856
:104FF800D1075CBF01221A601A4B1A68D2075CBF3E
:1050080001221A60184B1A68D0075CBF01221A6087
:10501800164B1A68D1075CBF01221A60144B1A6834
:10502800D2075CBF01221A60124B1A68D0075CBF16
:1050380001221A60104B1A68D1075CBF01221A605E
:105048000E4B1A68D2075CBF01221A60704700BF76
:105058009CE7032098E7032094E7032090E70320C8
:105068008CE7032088E7032084E7032080E70320F8
:105078007CE7032078E7032074E7032070E7032028
:10508800244B1A68D0075CBF01221A60224B1A68A9
:10509800D1075CBF01221A60204B1A68D2075CBF97
:1050A80001221A601E4B1A68D0075CBF01221A60E1
:1050B8001C4B1A68D1075CBF01221A601A4B1A6888
:1050C800D2075CBF01221A60184B1A68D0075CBF70
:1050D80001221A60164B1A68D1075CBF01221A60B8
:1050E800144B1A68D2075CBF01221A60124B1A6867
:1050F800D0075CBF01221A60104B1A68D1075CBF49
:1051080001221A600E4B1A68D2075CBF01221A608E
:10511800704700BFCCE70320C8E70320C4E703209B
:10512800C0E70320BCE70320B8E70320B4E7032067
:10513800B0E70320ACE70320A8E70320A4E7032097
:10514800A0E70320184B1A68D1075CBF01221A6038
:10515800164B1A68D2075CBF01221A60144B1A68F2
:10516800D0075CBF01221A60124B1A68D1075CBFD6
:1051780001221A60104B1A68D2075CBF01221A601C
:105188000E4B1A68D0075CBF01221A600C4B1A68D4
:10519800D1075CBF01221A600A4B1A68D2075CBFAC
:1051A80001221A60704700BFECE70320E8E70320FC
:1051B800E4E70320E0E70320DCE70320D8E7032047
:1051C800D4E70320D0E7032010B5054C13462CB1D3
:1051D8000A4601460220AFF3008010BD204610BDEC
:1051E8000000000010B5431E0A44914204D011F893
:1051F800014B03F8014FF8E710BD02440346934200
:1052080002D003F8011BFAE77047000038B5124BCB
:105218001C68A36B0546D3B91820FFF71FF943F2A2
:105228000E33A06303804AF6CD33438041F2342322
:1052380083804EF26D63C3804DF6EC6303810523D2
:1052480043810B23838101220023C0E90423A36B3C
:1052580000221D615A6138BDBCE30320034613F8E0
:10526800012B002AFBD1181A013870471D400D0088
:1052780059400D0085400D0089400D0000000000D8
:105288000000000000000000E3440D00D9440D00B8
:10529800CF440D00C5440D00B9440D00AD440D00C8
:1052A800A1440D0099440D008F440D0085440D0064
:1052B800094D0D00000000000000000001450D0030
:1052C80003450D0066006C6E00666E00636F6465D2
:1052D8000064657461696C000D0A00253031307511
:1052E80020005D20002564002C200028293A200099
:1052F800205B00636F6465203D20002569006465BC
:105308007461696C73203D200062617564005365A7
:105318007269616C0053657269616C3100747970EF
:105328006500706172616D00636D64006964006896
:105338006E64007374726D0066696C74006C766CD0
:105348000061646448616E646C65720072656D6FBB
:10535800766548616E646C657200656E756D48614E
:105368006E646C657273004A534F4E537472656174
:105378006D4C6F6748616E646C6572006170700097
:105388006E6F6E6500747261636500696E666F00AA
:105398007761726E006572726F720070616E696318
:1053A80000616C6C005A00252B3033643A2530328A
:1053B800750025592D256D2D25645425483A254D10
:1053C8003A2553257A0061736374696D650000009E
:1053D800000000000000000061470D0051470D006B
:1053E80053470D00000000000000000039480D0080
:1053F80089480D0097480D0069450D0075480D0056
:105408003B480D0051480D0083480D0067480D00CA
:1054180035480D0000000000000000003D490D0067
:105428008D490D009B490D0069450D0051490D003E
:1054380073490D005F490D0087490D003F490D0074
:1054480043490D000000000000000000414A0D0023
:105458008B4A0D00634A0D00434A0D006B4A0D004C
:10546800734A0D007B4A0D00834A0D0000000000BE
:1054780000000000234B0D00194B0D000F4B0D00D1
:10548800054B0D00F94A0D00ED4A0D00E14A0D00EB
:10549800D94A0D00CF4A0D00C54A0D00094D0D002F
:1054A8000000000000000000834C0D00794C0D0046
:1054B8006F4C0D00254C0D00634C0D00574C0D0032
:1054C8004B4C0D00434C0D00394C0D002F4C0D007A
:1054D800094D0D000000000000000000A14C0D0067
:1054E800AB4C0D00B54C0D00BF4C0D00C94C0D0068
:1054F800D54C0D00E14C0D00ED4C0D00F54C0D00A8
:10550800FF4C0D00094D0D000000000000000000D8
:105518000000000000000000000000000000000083
:105528000000000000000000000000000000000073
:105538000000000000000000000000000000000063
:105548000000000000000000000000000000000053
:105558000000000000000000000000000000000043
:10556800000000000000000043000000E9400D00BA
:10557800ED440D0041450D0059450D0019460D003B
:1055880029460D0061460D00D94B0D008D4C0D00CC
:10559800D54D0D00AD4E0D00414F0D00C54F0D000E
:0855A80089500D004D510D006A
:1055B000CE530D000000000010550D0030550D00B9
:1055C00050550D0000000000000000000000000029
:1055D0000000000070550D000000000000000000F9
:1055E00000000000000000000000000000000000BB
:1055F00000000000000000000000000000000000AB
:10560000000000000000000000000000000000009A
:08561000000000005CE3032030
:10561800FFFFFFFF00000102030405060708090A4F
:105628000B0C0D0E0F101112131415161718191A4A
:085638001B1C1D1E1F20280091
:045640007856341252
:04000003D0004018D1
:00000001FF
