:02000002D0002C
:1040000000400D0000620D00000006000C000501DC
:08401000040115050000000089
:10401800205E0D0009480A49884208B505D0094ABA
:10402800824202D0121A01F0B3FE0748074A002163
:10403800121A01F0B8FE014808BD00BF58E303207A
:1040480070610D00C0E30320C0E30320F0E7032004
:1040580070B500F00FFE074C074BE41AA4080025C2
:104068001E46A54204D056F8253098470135F8E792
:1040780070BD00BF68610D002C610D0000F013B821
:1040880008B500F021F8BDE8084000F0C1BD00F017
:1040980021BA00F01FBA0078B0FA80F040097047E2
:1040A80001230370704708B50121082001F022F8A8
:1040B80000210F2001F01EF800F0EAFC4FF4165121
:1040C800BDE8084000F0D8BC10B52DED028B0F20DC
:1040D80082B001F039F807EE900AB8EEE78A00F0EE
:1040E800D7FC044618EE100A01F0F8FA41EC100B60
:1040F8000221204600F03AFF0121082001F00BF8C8
:10410800FCEEC87A17EE900ACDED017A00F0F2FDC8
:104118000021082000F0FFFF019802B0BDEC028BDF
:10412800BDE8104000F0E6BD08B500F00FF9064BF9
:1041380000221A705A804FF6FF729A800320BDE859
:10414800084000F09BB900BFC4E3032008B5024B48
:104158001B681B68019308BD4C02030008B5024B9D
:104168001B685B68019308BD4C02030008B5024B4D
:104178001B681B69019308BD4C02030008B5024B7C
:104188001B685B69019308BD4C02030008B5024B2C
:104198001B689B69019308BD4C02030008B5024BDC
:1041A8001B68DB69019308BD4C02030008B5024B8C
:1041B8001B681B6A019308BD4C02030008B5024B3B
:1041C8001B681B6A019308BD2802030008B5024B4F
:1041D8001B685B6A019308BD2802030008B5024BFF
:1041E8001B689B6A019308BD2802030008B5024BAF
:1041F8001B68DB6A019308BD2802030008B5024B5F
:104208001B681B6B019308BD2802030008B5024B0D
:104218001B685B6B019308BD2802030008B5024BBD
:104228001B681B6C019308BD2802030008B5024BEC
:104238001B681B68019308BD3C02030008B5024BCC
:104248001B68DB68019308BD3C02030008B5024BFC
:104258001B681B69019308BD3C02030008B5024BAB
:104268001B685B69019308BD3C02030008B5024B5B
:104278001B689B69019308BD3C02030008B5024B0B
:104288001B68DB69019308BD3C02030008B5024BBB
:104298001B681B6A019308BD3C02030008B5024B6A
:1042A8001B689B6A019308BD3C02030008B5024BDA
:1042B8001B685B69019308BD6402030008B5024BE3
:1042C8001B689B68019308BD4802030008B5024BB0
:1042D8001B681B69019308BD4802030008B5024B1F
:1042E8001B685B69019308BD4802030008B5024BCF
:1042F8001B681B6B019308BD4802030008B5024BFD
:104308001B685B6C019308BD4802030008B5024BAB
:104318001B685B68019308BD1802030008B5024BCF
:104328001B685B69019308BD1802030008B5024BBE
:104338001B68DB69019308BD3002030008B5024B16
:104348001B681B6A019308BD3002030008B5024BC5
:104358001B681B68019308BD2C02030008B5024BBB
:104368001B685B68019308BD2C02030008B5024B6B
:104378001B689B68019308BD2C02030008B5024B1B
:104388001B68DB68019308BD2C02030008B5024BCB
:104398001B681B69019308BD2C02030008B5024B7A
:1043A8001B681B6B019308BD2C02030008B5024B68
:1043B8001B689B68019308BD6802030008B5024B9F
:1043C8001B68DB68019308BD6802030008B5024B4F
:1043D8001B68DB6B019308BD4402030008B5024B60
:1043E8001B685B68019308BD4002030008B5024BD7
:1043F8001B689B68019308BD4002030008B5024B87
:104408001B68DB68019308BD4002030008B5024B36
:104418001B681B69019308BD4002030008B5024BE5
:104428001B685B69019308BD4002030008B5024B95
:104438001B689B69019308BD4002030008B5024B45
:104448001B68DB69019308BD4002030008B5024BF5
:104458001B681B6A019308BD4002030008B5024BA4
:104468001B681B6B019308BD4002030008B5024B93
:104478001B685B6B019308BD4002030008B5024B43
:104488001B685B68019308BD2002030008B5024B56
:104498001B685B69019308BD2002030008B5034B44
:1044A8001B68D3F88830019308BD00002002030080
:1044B80008B5034B1B68D3F89430019308BD00007E
:1044C8002002030008B5024B1B681B68019308BD56
:1044D8001C02030008B5024B1B685B68019308BD0A
:1044E8001C02030000231A464068FFF777BF00222A
:1044F80002214068FFF782BF002211464068FFF79B
:1045080075BF002211464068FFF780BF00231A4696
:1045180019464068FFF782BF00231A4619464068CB
:10452800FFF784BF002281F001014068FFF786BFD2
:1045380000224068FFF792BF002211464068FFF74B
:1045480095BF002211464068FFF780BF2DE9F04370
:10455800002495B016460D46074600F0F9FA2146A4
:1045680020220CA8009401F01EFC40230C93214645
:104578006B460CAA3046FFF721FF0446002844D1B9
:10458800024601216868FFF741FF02218046224662
:104598006868FFF73BFF009E81462146002E34D015
:1045A800002932D17368022B02D00A2B09D02AE0E5
:1045B800B8F1000F27D071693846043100F0F5FAD8
:1045C80020E0B9F1000F1ED07469112201A801F092
:1045D800EAFB06238DF8143001AD04F10803183402
:1045E800186859682A4603C20833A3421546F7D10A
:1045F80001A906A807AD00F0B9FA0FCD3C1D0FC4FC
:104608002B6823700121F669C8E70098FFF7CEFEF2
:10461800384615B0BDE8F083024B034A1A60002201
:104628005A607047CCE303203C5E0D00002211461F
:104638004068FFF7EBBE002211464068FFF706BF4F
:10464800002211464068FFF711BF00224068FFF7BB
:1046580005BF002281F001014068FFF7EFBE00238B
:104668001A4619464068FFF7E1BE00231A46194664
:104678004068FFF7D3BE002211464068FFF7B6BE78
:10468800002202214068FFF7B9BE00231A4640689D
:10469800FFF7A4BE024B04225A60024A1A60704710
:1046A800D4E30320705E0D00002211464068FFF736
:1046B800CDBE002211464068FFF7D8BE00224068F0
:1046C800FFF7CCBE002281F001014068FFF7B6BEBB
:1046D80000231A4619464068FFF7A8BE00231A4669
:1046E80019464068FFF79ABE002211464068FFF756
:1046F8008DBE002211464068FFF778BE00220221D5
:104708004068FFF77BBE00231A464068FFF766BE85
:1047180038B5054688B104684CB1A3681BB10322BB
:104728002146204698471021204600F029FD2846BA
:104738001421BDE8384000F023BD38BD10B103682E
:104748005B681847704710B503680446BBB15868E2
:10475800FFF7B4FD78B923685A7C12B95868FFF797
:10476800B5FD23685868FFF7B9FD2068002323606A
:1047780028B1FFF7CDFF206808B1FFF7C9FF204631
:1047880010BD000038B50C4B03600446D0F8CC01CE
:1047980008B1FFF77EFCD4F8C45135B12846FFF7BD
:1047A800D2FF0421284600F0EBFCA06808B1FFF70F
:1047B800C5FF204638BD00BFA45E0D0038B50D4CBE
:1047C8000D4B23600025022304F5E4706360A560A7
:1047D800C4F8C451C4F8C851FFF790FD074BC4F89A
:1047E800CC5123602046064A0649BDE8384000F00F
:1047F800C2BC00BFDCE303203C5E0D00A45E0D00DC
:10480800C0E303208D470D00704710B51021044602
:1048180000F0B6FC204610BD70B5084B0360044696
:1048280000250E4640F80C5FFFF760FD3046267104
:10483800FFF77CFDA560204670BD00BFD85E0D0067
:104848000079FFF77BBD70474174704708B5007C5D
:10485800FFF724FD20EAE07008BD08B5007CFFF7EB
:10486800F5FC20EAE07008BD08B5007CFFF7FEFC07
:1048780030EA200028BF4FF0FF3008BD08B5007CA3
:10488800FFF7ECFC30EA200028BF4FF0FF3008BDEE
:10489800007CFFF7F3BC10B51421044600F070FC4F
:1048A800204610BD70B5457C04460E4625B9007CEF
:1048B800FFF7F4FC002805DD3146207CBDE8704098
:1048C800FFF7BCBC284670BD10B504460846114623
:1048D800002262604FF47A72A260054A22600122C7
:1048E800207462741A46FFF7A1FC204610BD00BF71
:1048F800E85E0D00007CFFF7C9BC000038B50C4D20
:10490800296811F0010411D12846FFF7C4FB68B1EA
:10491800084A094B09482146FFF7D6FF2846FFF702
:10492800BFFB074A0749054800F025FC034838BD86
:1049380044E6032048E60320C0E50320ACE5032055
:10494800C0E303204F480D007047F8B506461546EA
:104958000C468F18BC4206D0336814F8011B9B68BC
:1049680030469847F6E72846F8BD0022007CFFF756
:1049780025BC0021007CFFF729BC0021007CFFF743
:104988002DBC0021007CFFF731BC0021007CFFF723
:1049980035BC10B51421044600F0F2FB204610BDCA
:1049A80010B504464FF47A730846A3600021044BFF
:1049B800207461602360FFF731FC204610BD00BF02
:1049C800185F0D000021007CFFF720BC4174704780
:1049D800704708B50021007CFFF7D8FB30EA2000BB
:1049E80028BF4FF0FF3008BD08B50121007CFFF754
:1049F800CDFB30EA200028BF4FF0FF3008BD08B5D6
:104A0800007CFFF7BBFB20EAE07008BD08B5007C1E
:104A1800FFF7ACFB20EAE07008BD007CFFF7C6BBDF
:104A280010B51421044600F0ABFB204610BD38B584
:104A38000446007C0D46FFF7A1FB002801DC607CE2
:104A480028B12946207CFFF7A9FB20EAE07038BD91
:104A580010B50446002363604FF47A73A360054BD6
:104A6800236001230846217463741146FFF76EFB27
:104A7800204610BD405F0D000022007CFFF76EBB92
:104A880010B514220446002101F08DF9204610BD0E
:104A980030B50E4D87B001A8FFF7F2FF296811F075
:104AA800010410D12846FFF7F6FA60B101AA2146A1
:104AB8000748FFF7CDFF2846FFF7F2FA054A0649EF
:104AC800034800F058FB024807B030BDCCE603208D
:104AD800D0E60320C0E30320D9490D00704710B584
:104AE8001821044600F04CFB204610BDF0B5037DAC
:104AF800062B8DB00E4600F104074FF0000402D0DB
:104B080000F1080518E00CAD394605F8304D2F23A3
:104B18002A460A20FFF7CAFB284601F075F93368D0
:104B28000246DB682946304698470FE024B12E211B
:104B3800304600F008F9044415F8011D0A223046F1
:104B480000F03DF9BD420444F0D120460DB0F0BD5F
:104B580010B5054B0446112240F8043B002101F032
:104B680022F9204610BD00BF705F0D000346074ABA
:104B780010B543F8042B01F1100251F8044B43F827
:104B8800044B9142F9D10A781A7010BD705F0D007C
:104B980010B59DF8084044EA032343EA024242EA7A
:104BA800016104234160037510BD37B50D788B781A
:104BB8004A78C97800912946FFF7EAFF03B030BD6B
:104BC80010B58368044613B103220146984720466E
:104BD80010BD000008B50C4B33B1FFF759FF03684F
:104BE8001B699847002809DC084B63B1FFF786FE6C
:104BF80003681B699847002803DC08BDAFF30080F1
:104C0800F2E7AFF3008008BD0000000000000000DC
:104C180008B5FFF7DFFFFFF781FB014B186008BD00
:104C28002CE7032007B5002300931A466FF077019D
:104C3800FFF73EFC03B05DF804FB000007B54388AE
:104C48000A2B08D0502B09D1094B1B683BB103B084
:104C58005DF804EB1847FFF7E5FF06E00023009333
:104C68001A466FF07701FFF723FC03B05DF804FBE9
:104C7800E4E6032010B5FFF749FB044601F09CF871
:104C8800074B13B12046AFF3008000210448FFF71B
:104C98009DFB00210348BDE81040FFF7FFBB00BFA4
:104CA80000000000454C0D0010B50446FFF788FFD2
:104CB800204610BD0348044A04490023836000F0DD
:104CC8005ABA00BFE8E60320C0E30320B14C0D0048
:104CD800024B1A68024B1A60704700BF58E3032062
:104CE800F8E60320014B024A1A607047FCE60320ED
:104CF8005B600D000021FFF7C9BBF8B506460D46FD
:104D08008F180024BD420CD0336815F8011B9B682E
:104D180030469847002801DB0444F3E7002C08BF1D
:104D280004462046F8BD70B505460C46084649B10C
:104D380001F06AF82B68024621462846DB68BDE880
:104D48007040184770BD03689B68184738B50D2137
:104D58000546FFF7F8FF0A2104462846FFF7F3FF48
:104D6800204438BD30B58BB00B4600218DF8241097
:104D7800012A98BF0A220DF12304B3FBF2F505FBC3
:104D8800123303F0FF03092B94BF30333733DBB200
:104D9800214604F801392B46002DEED1FFF7C3FF59
:104DA8000BB030BD10B42AB903685DF8044B9B689A
:104DB800C9B21847D2B25DF8044BFFF7D3BFFFF76B
:104DC800F1BF2DE9F04107460E4615462AB903689A
:104DD800C9B29B68BDE8F04118470A2A02D10029E8
:104DE80001DA04E0D2B2BDE8F041FFF7BBBF2D21E4
:104DF800FFF7A9FF2A46044671423846FFF7B2FF7B
:104E08002044BDE8F08100002DE9F04757EC106B15
:104E180082460D4610EE102A3B4610EE100A39461F
:104E280000F04AFF08B1484912E027F000494FF066
:104E3800FF32464B3046494600F03EFF68B94FF016
:104E4800FF32424B3046494600F018FF28B9404926
:104E58005046FFF768FFBDE8F0874FF060423D4BD2
:104E68003046394600F01EFF08B13B49F0E74FF0E5
:104E780060423A4B3046394600F0F6FE0028F4D13D
:104E8800002200233046394600F0EEFE40B12D21C5
:104E98005046FFF758FF07F1004304461F4600E05D
:104EA80004462F494FF0000800205FFA88F39D421E
:104EB80006D900222B4B00F08FFD08F10108F4E71A
:104EC80032463B4600F0ACFA0F46064600F032FF89
:104ED8000A22014680465046FFF744FF04447DB34A
:104EE800404600F0D9FB02460B463046394600F0F2
:104EF80095FA06460F4650461B49FFF714FF04442F
:104F0800184B00223046394600F03CFC0F46064656
:104F180000F0E8FE0A22014680465046FFF751FF9E
:104F28000444404600F0C8FB02460B46304639466A
:104F380000F074FA013D15F0FF0506460F46DFD173
:104F48002046BDE8F08700BF84600D00FFFFEF7FBB
:104F58008E600D00FFFFEF4188600D00FFFFEFC17D
:104F68000000E03F000024408C600D0038B5C9B255
:104F78000546FFF749FF04462846FFF7E7FE2044A9
:104F880038BD0000024800230360FFF7B7B900BF2F
:104F980000E70320044B00204FF6FF72187058807A
:104FA8009A80FFF76BBA00BF04E70320002211467E
:104FB8004068FFF74BBA002211464068FFF756BA1F
:104FC80000224068FFF74ABA002281F001014068D8
:104FD800FFF734BA00231A4619464068FFF726BA85
:104FE80000231A4619464068FFF718BA00221146EE
:104FF8004068FFF70BBA002211464068FFF7F6B980
:10500800002202214068FFF7F9B900231A464068D8
:10501800FFF7E4B9024B03225A60024A1A6070474C
:105028000CE703209C600D0038B50B4D296811F082
:1050380001040FD12846FFF72EF858B1214607483A
:10504800FFF7AEFC2846FFF72BF8054A0549034849
:1050580000F091F8014838BD14E7032018E7032051
:10506800C0E3032051490D0070B50C4C0C4E0D4D9A
:1050780000212046FFF7D0FB20460B4C324629463C
:1050880000F079F801212046FFF7C6FB3246294691
:105098002046BDE8704000F06EB800BF30E703203E
:1050A800C0E3032011480D0040E7032010B5044673
:1050B8000F48FFF7C5FB28B1A4F10B03022B01D859
:1050C800002010BDFFF7B0FFFFF77CFC08B1012CF2
:1050D800F6D9FFF713FCFFF70DFC18B1A4F109038B
:1050E800012BEDD9232C8CBF0020012010BD00BF5F
:1050F80030E70320232838B504460D460AD8FF298F
:1051080008D0FFF7D3FF28B129462046BDE838402C
:10511800FFF72CB938BD38B504460D46FFF72EF910
:10512800FF2810D0062804D84D2323FA00F0C3071F
:1051380009D42046FFF7BAFF28B129462046BDE822
:105148003840FFF723B938BD0D2810B504469CBF79
:105158000E34A4B22046FFF7A9FF50B10321204620
:10516800FFF7FCF8032804D12046BDE81040FFF7FC
:1051780015B9002010BD0B460146184600F0FABDCF
:10518800FEF785BF184B1A68D1075CBF01221A6069
:10519800164B1A68D2075CBF01221A60144B1A68B2
:1051A800D0075CBF01221A60124B1A68D1075CBF96
:1051B80001221A60104B1A68D2075CBF01221A60DC
:1051C8000E4B1A68D0075CBF01221A600C4B1A6894
:1051D800D1075CBF01221A600A4B1A68D2075CBF6C
:1051E80001221A60704700BF6CE7032068E70320BC
:1051F80064E7032060E703205CE7032058E7032007
:1052080054E7032050E70320244B1A68D0075CBFFB
:1052180001221A60224B1A68D1075CBF01221A606A
:10522800204B1A68D2075CBF01221A601E4B1A680D
:10523800D0075CBF01221A601C4B1A68D1075CBFFB
:1052480001221A601A4B1A68D2075CBF01221A6041
:10525800184B1A68D0075CBF01221A60164B1A68EF
:10526800D1075CBF01221A60144B1A68D2075CBFD1
:1052780001221A60124B1A68D0075CBF01221A601B
:10528800104B1A68D1075CBF01221A600E4B1A68CE
:10529800D2075CBF01221A60704700BF9CE7032059
:1052A80098E7032094E7032090E703208CE7032086
:1052B80088E7032084E7032080E703207CE70320B6
:1052C80078E7032074E7032070E70320244B1A686B
:1052D800D0075CBF01221A60224B1A68D1075CBF55
:1052E80001221A60204B1A68D2075CBF01221A609B
:1052F8001E4B1A68D0075CBF01221A601C4B1A6843
:10530800D1075CBF01221A601A4B1A68D2075CBF2A
:1053180001221A60184B1A68D0075CBF01221A6074
:10532800164B1A68D1075CBF01221A60144B1A6821
:10533800D2075CBF01221A60124B1A68D0075CBF03
:1053480001221A60104B1A68D1075CBF01221A604B
:105358000E4B1A68D2075CBF01221A60704700BF63
:10536800CCE70320C8E70320C4E70320C0E70320F5
:10537800BCE70320B8E70320B4E70320B0E7032025
:10538800ACE70320A8E70320A4E70320A0E7032055
:10539800184B1A68D1075CBF01221A60164B1A68AD
:1053A800D2075CBF01221A60144B1A68D0075CBF91
:1053B80001221A60124B1A68D1075CBF01221A60D9
:1053C800104B1A68D2075CBF01221A600E4B1A688C
:1053D800D0075CBF01221A600C4B1A68D1075CBF6A
:1053E80001221A600A4B1A68D2075CBF01221A60B0
:1053F800704700BFECE70320E8E70320E4E7032059
:10540800E0E70320DCE70320D8E70320D4E7032004
:10541800D0E7032081F0004102E000BF83F00043A1
:1054280030B54FEA41044FEA430594EA050F08BF37
:1054380090EA020F1FBF54EA000C55EA020C7FEAFB
:10544800645C7FEA655C00F0E2804FEA5454D4EB78
:105458005555B8BF6D420CDD2C4480EA020281EA42
:10546800030382EA000083EA010180EA020281EA7A
:105478000303362D88BF30BD11F0004F4FEA0131CC
:105488004FF4801C4CEA113102D0404261EB4101DB
:1054980013F0004F4FEA03334CEA133302D0524261
:1054A80063EB430394EA050F00F0A780A4F101041D
:1054B800D5F1200E0DDB02FA0EFC22FA05F2801857
:1054C80041F1000103FA0EF2801843FA05F359413D
:1054D8000EE0A5F120050EF1200E012A03FA0EFCBC
:1054E80028BF4CF0020C43FA05F3C01851EBE371E6
:1054F80001F0004507D54FF0000EDCF1000C7EEB03
:1055080000006EEB0101B1F5801F1BD3B1F5001F40
:105518000CD349085FEA30004FEA3C0C04F101045F
:105528004FEA445212F5800F80F09A80BCF1004F88
:1055380008BF5FEA500C50F1000041EB045141EA0A
:10554800050130BD5FEA4C0C404141EB010111F40B
:10555800801FA4F10104E9D191F0000F04BF0146B6
:105568000020B1FA81F308BF2033A3F10B03B3F194
:1055780020020CDA0C3208DD02F1140CC2F10C0224
:1055880001FA0CF021FA02F10CE002F11402D8BF82
:10559800C2F1200C01FA02F120FA0CFCDCBF41EA4E
:1055A8000C019040E41AA2BF01EB0451294330BD1D
:1055B8006FEA04041F3C1CDA0C340EDC04F11404FA
:1055C800C4F1200220FA04F001FA02F340EA0300D1
:1055D80021FA04F345EA030130BDC4F10C04C4F117
:1055E800200220FA02F001FA04F340EA03002946F7
:1055F80030BD21FA04F0294630BD94F0000F83F441
:10560800801306BF81F480110134013D4EE77FEA23
:10561800645C18BF7FEA655C29D094EA050F08BF6F
:1056280090EA020F05D054EA000C04BF1946104650
:1056380030BD91EA030F1EBF0021002030BD5FEA94
:10564800545C05D14000494128BF41F0004130BDBC
:1056580014F580043CBF01F5801130BD01F0004510
:1056680045F0FE4141F470014FF0000030BD7FEA83
:10567800645C1ABF194610467FEA655C1CBF0B467E
:10568800024650EA013406BF52EA033591EA030F95
:1056980041F4002130BD00BF90F0000F04BF00218D
:1056A800704730B54FF4806404F132044FF00005C0
:1056B8004FF0000150E700BF90F0000F04BF002139
:1056C800704730B54FF4806404F1320410F000459F
:1056D80048BF40424FF000013EE700BF42004FEA9A
:1056E800E2014FEA31014FEA02701FBF12F07F4317
:1056F80093F07F4F81F06051704792F0000F14BF14
:1057080093F07F4F704730B54FF4607401F0004557
:1057180021F0004120E700BF50EA010208BF7047AE
:1057280030B54FF000050AE050EA010208BF7047A3
:1057380030B511F0004502D5404261EB41014FF40C
:10574800806404F132045FEA915C3FF4DCAE4FF010
:1057580003025FEADC0C18BF03325FEADC0C18BFF7
:10576800033202EBDC02C2F1200300FA03FC20FA48
:1057780002F001FA03FE40EA0E0021FA02F1144495
:10578800C1E600BF70B54FF0FF0C4CF4E06C1CEAAA
:1057980011541DBF1CEA135594EA0C0F95EA0C0F1F
:1057A80000F0DEF82C4481EA030621EA4C5123EA92
:1057B8004C5350EA013518BF52EA033541F48011C1
:1057C80043F4801338D0A0FB02CE4FF00005E1FB74
:1057D80002E506F00042E0FB03E54FF00006E1FBBE
:1057E80003569CF0000F18BF4EF0010EA4F1FF0401
:1057F800B6F5007F64F5407404D25FEA4E0E6D4141
:1058080046EB060642EAC62141EA55514FEAC52051
:1058180040EA5E504FEACE2EB4F1FD0C88BFBCF5CD
:10582800E06F1ED8BEF1004F08BF5FEA500E50F17E
:10583800000041EB045170BD06F0004646EA010144
:1058480040EA020081EA0301B4EB5C04C2BFD4EB76
:105858000C0541EA045170BD41F480114FF0000E6F
:10586800013C00F3AB8014F1360FDEBF002001F0DD
:10587800004170BDC4F10004203C35DA0C341BDC57
:1058880004F11404C4F1200500FA05F320FA04F029
:1058980001FA05F240EA020001F0004221F000415D
:1058A80010EBD37021FA04F642EB06015EEA430ED0
:1058B80008BF20EAD37070BDC4F10C04C4F1200500
:1058C80000FA04F320FA05F001FA04F240EA0200B3
:1058D80001F0004110EBD37041F100015EEA430E84
:1058E80008BF20EAD37070BDC4F1200500FA05F2A4
:1058F8004EEA020E20FA04F301FA05F243EA020323
:1059080021FA04F001F0004121FA04F220EA020031
:1059180000EBD3705EEA430E08BF20EAD37070BD77
:1059280094F0000F0FD101F00046400041EB010157
:1059380011F4801F08BF013CF7D041EA060195F039
:10594800000F18BF704703F00046520043EB0303F3
:1059580013F4801F08BF013DF7D043EA06037047E0
:1059680094EA0C0F0CEA135518BF95EA0C0F0CD0EB
:1059780050EA410618BF52EA4306D1D181EA030131
:1059880001F000414FF0000070BD50EA410606BF2B
:105998001046194652EA430619D094EA0C0F02D170
:1059A80050EA013613D195EA0C0F05D152EA0336B5
:1059B8001CBF104619460AD181EA030101F00041D3
:1059C80041F0FE4141F470014FF0000070BD41F01C
:1059D800FE4141F4780170BD70B54FF0FF0C4CF4F6
:1059E800E06C1CEA11541DBF1CEA135594EA0C0F15
:1059F80095EA0C0F00F0A7F8A4EB050481EA030E62
:105A080052EA03354FEA013100F088804FEA033348
:105A18004FF0805545EA131343EA12634FEA022216
:105A280045EA111545EA10654FEA00260EF00041D7
:105A38009D4208BF964244F1FD0404F5407402D229
:105A48005B084FEA3202B61A65EB03055B084FEABA
:105A580032024FF480104FF4002CB6EB020E75EBB7
:105A6800030E22BFB61A754640EA0C005B084FEADF
:105A78003202B6EB020E75EB030E22BFB61A75465C
:105A880040EA5C005B084FEA3202B6EB020E75EBA7
:105A9800030E22BFB61A754640EA9C005B084FEA1F
:105AA8003202B6EB020E75EB030E22BFB61A75462C
:105AB80040EADC0055EA060E18D04FEA051545EA1B
:105AC80016754FEA06164FEAC30343EA52734FEAC4
:105AD800C2025FEA1C1CC0D111F4801F0BD141EA3D
:105AE80000014FF000004FF0004CB6E711F4801FA2
:105AF80004BF01430020B4F1FD0C88BFBCF5E06F82
:105B08003FF6AFAEB5EB030C04BFB6EB020C5FEA91
:105B1800500C50F1000041EB045170BD0EF0004EE6
:105B28004EEA113114EB5C04C2BFD4EB0C0541EA18
:105B3800045170BD41F480114FF0000E013C90E615
:105B480045EA060E8DE60CEA135594EA0C0F08BFD9
:105B580095EA0C0F3FF43BAF94EA0C0F0AD150EAD8
:105B680001347FF434AF95EA0C0F7FF425AF10466B
:105B780019462CE795EA0C0F06D152EA03353FF493
:105B8800FDAE1046194622E750EA410618BF52EA10
:105B980043067FF4C5AE50EA41047FF40DAF52EAE4
:105BA80043057FF4EBAE12E74FF0FF3C06E000BF81
:105BB8004FF0010C02E000BF4FF0010C4DF804CD8E
:105BC8004FEA410C7FEA6C5C4FEA430C18BF7FEA4E
:105BD8006C5C1BD001B050EA410C0CBF52EA430C7C
:105BE80091EA030F02BF90EA020F0020704710F1FC
:105BF800000F91EA030F58BF994208BF90422CBF8B
:105C0800D8176FEAE37040F0010070474FEA410C83
:105C18007FEA6C5C02D150EA013C07D14FEA430CA1
:105C28007FEA6C5CD6D152EA033CD3D05DF8040B12
:105C3800704700BF8446104662468C461946634644
:105C480000E000BF01B5FFF7B7FF002848BF10F11B
:105C5800000F01BD4DF808EDFFF7F4FF0CBF012060
:105C680000205DF808FB00BF4DF808EDFFF7EAFFDC
:105C780034BF012000205DF808FB00BF4DF808ED97
:105C8800FFF7E0FF94BF012000205DF808FB00BF8C
:105C98004DF808EDFFF7CEFF94BF012000205DF816
:105CA80008FB00BF4DF808EDFFF7C4FF34BF012023
:105CB80000205DF808FB00BF4FEA410C7FEA6C5CEE
:105CC80002D150EA013C0AD14FEA430C7FEA6C5CEE
:105CD80002D152EA033C02D14FF0000070474FF066
:105CE800010070474FEA410212F5001215D211D592
:105CF8006FF47873B3EB625212D94FEAC12343F0C1
:105D0800004343EA505311F0004F23FA02F018BF42
:105D1800404270474FF00000704750EA013005D10B
:105D280011F0004008BF6FF0004070474FF00000CE
:105D3800704700BF4A0011D212F5001211D20DD5DA
:105D48006FF47873B3EB62520ED44FEAC12343F079
:105D5800004343EA505323FA02F070474FF0000023
:105D6800704750EA013002D14FF0FF3070474FF0D2
:105D78000000704710B5054C13462CB10A46014681
:105D88000220AFF3008010BD204610BD00000000C7
:105D980010B5431E0A44914204D011F8014B03F890
:105DA800014FF8E710BD02440346934202D003F8BE
:105DB800011BFAE77047000038B5124B1C68A36B4B
:105DC8000546D3B91820FEF77DFB43F20E33A063D6
:105DD80003804AF6CD33438041F2342383804EF268
:105DE8006D63C3804DF6EC630381052343810B2368
:105DF800838101220023C0E90423A36B00221D61D3
:105E08005A6138BDBCE30320034613F8012B002A6E
:105E1800FBD1181A013870471D400D0059400D007C
:105E280085400D0089400D000000000000000000C2
:105E380000000000ED440D00F7440D0001450D0081
:105E48000B450D0015450D0021450D002D450D0094
:105E580039450D0041450D004B450D0055450D00D8
:105E6800000000000000000093460D0089460D0068
:105E78007F460D0035460D0073460D0067460D0040
:105E88005B460D0053460D0049460D003F460D0088
:105E980055450D0000000000000000000F470D00F0
:105EA80005470D00FB460D00F1460D00E5460D00C7
:105EB800D9460D00CD460D00C5460D00BB460D0068
:105EC800B1460D0055450D0000000000000000001F
:105ED80011480D0013480D000000000000000000EC
:105EE8004F480D009F480D00AD480D00034D0D00B3
:105EF80063480D0085480D0071480D0099480D0054
:105F080051480D0055480D00000000000000000039
:105F180051490D009B490D0073490D0053490D006F
:105F28007B490D0083490D008B490D0093490D00F5
:105F38000000000000000000D9490D00294A0D00AA
:105F4800374A0D00034D0D00154A0D00DB490D00C1
:105F5800F1490D00234A0D00074A0D00D5490D00EF
:105F68000000000000000000F54A0D00E54A0D00A1
:105F7800E74A0D005A00252B3033643A2530327534
:105F88000025592D256D2D25645425483A254D3A6F
:105F98002553257A0061736374696D65006C6E0022
:105FA800666E00636F64650064657461696C000DFA
:105FB8000A00253031307520005D20002564002C52
:105FC800200028293A2000205B00636F6465203D8B
:105FD800200025690064657461696C73203D2000A8
:105FE800626175640053657269616C00536572691A
:105FF800616C31007479706500706172616D006365
:106008006D6400696400686E64007374726D006684
:10601800696C74006C766C0061646448616E646CD1
:1060280065720072656D6F766548616E646C657245
:1060380000656E756D48616E646C657273004A53D5
:106048004F4E53747265616D4C6F6748616E646C36
:10605800657200617070006E6F6E650074726163C6
:106068006500696E666F007761726E006572726FA7
:10607800720070616E696300616C6C006E616E0025
:106088006F7666002E00696E660000000000000052
:106098000000000013500D0009500D00FF4F0D00C7
:1060A800F54F0D00E94F0D00DD4F0D00D14F0D00EC
:1060B800C94F0D00BF4F0D00B54F0D0055450D00E0
:1060C80000000000000000000000000000000000C8
:1060D80000000000000000000000000000000000B8
:1060E80000000000000000000000000000000000A8
:1060F8000000000000000000000000000000000098
:106108000000000000000000000000000000000087
:106118000000000000000000000000000000000077
:106128004300000031410D0021460D009D460D0041
:10613800C5470D00BD4C0D00D94C0D00ED4C0D00B0
:106148008D4F0D009D4F0D001D500D0071500D001D
:106158008D510D0011520D00D5520D0099530D00AF
:0861680000000000000000002F
:106170009D5F0D0000000000C8600D00E8600D008C
:1061800008610D0000000000000000000000000099
:106190000000000028610D00000000000000000069
:1061A00000000000000000000000000000000000EF
:1061B00000000000000000000000000000000000DF
:1061C00000000000000000000000000000000000CF
:0861D000000000005CE3032065
:1061D800FFFFFFFF00000102030405060708090A84
:1061E8000B0C0D0E0F101112131415161718191A7F
:0861F8001B1C1D1E1F202800C6
:046200007856341286
:04000003D0004018D1
:00000001FF
