:02000002D0002C
:1040000000400D0000620D00000006000C000501DC
:08401000040115050000000089
:10401800245E0D0009480A49884208B505D0094AB6
:10402800824202D0121A01F0B5FE0748074A002161
:10403800121A01F0BAFE014808BD00BF58E3032078
:1040480070610D00C0E30320C0E30320F0E7032004
:1040580070B500F07FFC074C074BE41AA408002554
:104068001E46A54204D056F8253098470135F8E792
:1040780070BD00BF6C610D0030610D0000F013B819
:1040880008B500F021F8BDE8084000F031BC00F0A8
:1040980021BA00F01FBA0078B0FA80F040097047E2
:1040A80001230370704708B50121082000F0E0FFE4
:1040B80000210F2000F0DCFF00F03AFD4FF416510C
:1040C800BDE8084000F028BD10B52DED028B0F208B
:1040D80082B000F0F7FF07EE900AB8EEE78A00F02A
:1040E80027FD044618EE100A01F0FAFA41EC100B0D
:1040F8000221204600F0A0FB0121082000F0C9FFA2
:10410800FCEEC87A17EE900ACDED017A00F0B2FB0A
:104118000021082000F0BDFF019802B0BDEC028B21
:10412800BDE8104000F0A6BB08B500F01FF8064B2C
:1041380000221A705A804FF6FF729A800320BDE859
:10414800084000F043B900BFC4E3032008B5024BA0
:104158001B689B68019308BD6802030008B5024B01
:104168001B68DB68019308BD6802030008B5024BB1
:104178001B681B68019308BD2C02030008B5024B9D
:104188001B685B68019308BD2C02030008B5024B4D
:104198001B689B68019308BD2C02030008B5024BFD
:1041A8001B68DB68019308BD2C02030008B5024BAD
:1041B8001B681B69019308BD2C02030008B5024B5C
:1041C8001B681B6B019308BD2C02030008B5024B4A
:1041D8001B68DB69019308BD3002030008B5024B78
:1041E8001B681B6A019308BD3002030008B5024B27
:1041F8001B685B68019308BD1802030008B5024BF1
:104208001B685B69019308BD1802030008B5024BDF
:104218001B689B68019308BD4802030008B5024B60
:104228001B681B69019308BD4802030008B5024BCF
:104238001B685B69019308BD4802030008B5024B7F
:104248001B681B6B019308BD4802030008B5024BAD
:104258001B685B6C019308BD4802030008B5024B5C
:104268001B685B69019308BD6402030008B5024B33
:104278001B681B68019308BD3C02030008B5024B8C
:104288001B68DB68019308BD3C02030008B5024BBC
:104298001B681B69019308BD3C02030008B5024B6B
:1042A8001B685B69019308BD3C02030008B5024B1B
:1042B8001B689B69019308BD3C02030008B5024BCB
:1042C8001B68DB69019308BD3C02030008B5024B7B
:1042D8001B681B6A019308BD3C02030008B5024B2A
:1042E8001B689B6A019308BD3C02030008B5024B9A
:1042F8001B681B6A019308BD2802030008B5024B1E
:104308001B685B6A019308BD2802030008B5024BCD
:104318001B689B6A019308BD2802030008B5024B7D
:104328001B68DB6A019308BD2802030008B5024B2D
:104338001B681B6B019308BD2802030008B5024BDC
:104348001B685B6B019308BD2802030008B5024B8C
:104358001B681B6C019308BD2802030008B5024BBB
:104368001B681B68019308BD4C02030008B5024B8B
:104378001B685B68019308BD4C02030008B5024B3B
:104388001B681B69019308BD4C02030008B5024B6A
:104398001B685B69019308BD4C02030008B5024B1A
:1043A8001B689B69019308BD4C02030008B5024BCA
:1043B8001B68DB69019308BD4C02030008B5024B7A
:1043C8001B681B6A019308BD4C02030008B5024B29
:1043D8001B685B68019308BD2002030008B5024B07
:1043E8001B685B69019308BD2002030008B5034BF5
:1043F8001B68D3F88830019308BD00002002030031
:1044080008B5034B1B68D3F89430019308BD00002E
:104418002002030008B5024B1B685B68019308BDC6
:104428004002030008B5024B1B689B68019308BD56
:104438004002030008B5024B1B68DB68019308BD06
:104448004002030008B5024B1B681B69019308BDB5
:104458004002030008B5024B1B685B69019308BD65
:104468004002030008B5024B1B689B69019308BD15
:104478004002030008B5024B1B68DB69019308BDC5
:104488004002030008B5024B1B681B6A019308BD74
:104498004002030008B5024B1B681B6B019308BD63
:1044A8004002030008B5024B1B685B6B019308BD13
:1044B8004002030008B5024B1B68DB6B019308BD83
:1044C8004402030008B5024B1B681B68019308BD32
:1044D8001C02030008B5024B1B685B68019308BD0A
:1044E8001C020300002211464068FFF7CBBF0022E0
:1044F80011464068FFF7D6BF00224068FFF7CABFE1
:10450800002281F001014068FFF7B4BF00231A467A
:1045180019464068FFF7A6BF00231A4619464068A7
:10452800FFF798BF002211464068FFF78BBF0022B3
:1045380011464068FFF776BF002202214068FFF766
:1045480079BF00231A464068FFF764BF024B032275
:104558005A60024A1A607047CCE30320405E0D009F
:10456800704710B51021044600F00BFE204610BD20
:1045780070B5084B0360044600250E4640F80C5FF2
:10458800FFF75CFE30462671FFF720FEA560204647
:1045980070BD00BF745E0D000079FFF71FBE0000FC
:1045A800044B00204FF6FF72187058809A80FFF76E
:1045B8000DBF00BFD4E30320024800230360FFF7C8
:1045C80045BE00BFDCE30320F8B506460D468F184C
:1045D8000024BD420CD0336815F8011B9B68304697
:1045E8009847002801DB0444F3E7002C08BF044681
:1045F8002046F8BD70B505460C46084649B101F09D
:1046080005FC2B68024621462846DB68BDE8704059
:10461800184770BD03689B68184738B50D210546D3
:10462800FFF7F8FF0A2104462846FFF7F3FF204466
:1046380038BD30B58BB00B4600218DF82410012A07
:1046480098BF0A220DF12304B3FBF2F505FB1233E0
:1046580003F0FF03092B94BF30333733DBB2214615
:1046680004F801392B46002DEED1FFF7C3FF0BB03C
:1046780030BD10B42AB903685DF8044B9B68C9B211
:104688001847D2B25DF8044BFFF7D3BFFFF7F1BF6D
:104698002DE9F04107460E4615462AB90368C9B206
:1046A8009B68BDE8F04118470A2A02D1002901DABF
:1046B80004E0D2B2BDE8F041FFF7BBBF2D21FFF700
:1046C800A9FF2A46044671423846FFF7B2FF204444
:1046D800BDE8F0812DE9F04757EC106B82460D4696
:1046E80010EE102A3B4610EE100A394601F0E6FAA1
:1046F80008B1484912E027F000494FF0FF32464B15
:104708003046494601F0DAFA68B94FF0FF32424BB9
:104718003046494601F0B4FA28B940495046FFF7F7
:1047280069FFBDE8F0874FF060423D4B304639469F
:1047380001F0BAFA08B13B49F0E74FF060423A4B52
:104748003046394601F092FA0028F4D100220023BD
:104758003046394601F08AFA40B12D215046FFF71C
:1047680059FF07F1004304461F4600E004462F495D
:104778004FF0000800205FFA88F39D4206D9002216
:104788002B4B01F02BF908F10108F4E732463B46C0
:1047980000F048FE0F46064601F0CEFA0A2201460E
:1047A80080465046FFF745FF04447DB3404600F07D
:1047B80075FF02460B463046394600F031FE064684
:1047C8000F4650461B49FFF715FF0444184B0022BB
:1047D8003046394600F0D8FF0F46064601F084FA05
:1047E8000A22014680465046FFF752FF04444046DD
:1047F80000F064FF02460B463046394600F010FED2
:10480800013D15F0FF0506460F46DFD12046BDE8FD
:10481800F08700BF7C5E0D00FFFFEF7F865E0D0016
:10482800FFFFEF41805E0D00FFFFEFC10000E03F9A
:1048380000002440845E0D0038B5C9B20546FFF774
:1048480049FF04462846FFF7E8FE204438BD00002B
:10485800014B024A1A607047E0E30320405F0D00F5
:10486800024B1A68024B1A60704700BF58E30320D6
:10487800E4E303200021FFF7B1BD10B583680446C7
:1048880013B1032201469847204610BD10B50446CF
:10489800FFF7F3FF204610BD0348044A04490023EC
:1048A800836000F069BC00BFE8E30320C0E3032095
:1048B80095480D0008B50C4B33B100F039F9036881
:1048C8001B699847002809DC084B63B100F0B2F96E
:1048D80003681B699847002803DC08BDAFF3008014
:1048E800F2E7AFF3008008BD000000000000000000
:1048F80008B5FFF7DFFFFFF781FC014B186008BD23
:1049080034E7032007B5002300931A466FF07701B8
:10491800FFF776FD03B05DF804FB000007B5438898
:104928000A2B08D0502B09D1094B1B683BB103B0A7
:104938005DF804EB1847FFF7E5FF06E00023009356
:104948001A466FF07701FFF75BFD03B05DF804FBD3
:10495800F8E3032010B5FFF749FC044601F02EFAEE
:10496800074B13B12046AFF3008000210448FFF73E
:10497800A1FD00210348BDE81040FFF737BD00BF87
:104988000000000025490D00704710B518210446A5
:1049980000F0F7FB204610BDF0B5037D062B8DB067
:1049A8000E4600F104074FF0000402D000F108059C
:1049B80018E00CAD394605F8304D2F232A460A2059
:1049C800FFF74CFC284601F021FA33680246DB6801
:1049D8002946304698470FE024B12E213046FFF78C
:1049E80019FE044415F8011D0A223046FFF74EFE51
:1049F800BD420444F0D120460DB0F0BD10B5054BC2
:104A08000446112240F8043B002101F0CEF920466B
:104A180010BD00BF9C5F0D000346074A10B543F860
:104A2800042B01F1100251F8044B43F8044B914256
:104A3800F9D10A781A7010BD9C5F0D0010B59DF869
:104A4800084044EA032343EA024242EA016104239C
:104A58004160037510BD37B50D788B784A78C978F1
:104A680000912946FFF7EAFF03B030BD4174704753
:104A7800704708B50021007CFFF790FC30EA200061
:104A880028BF4FF0FF3008BD08B50121007CFFF7B3
:104A980085FC30EA200028BF4FF0FF3008BD08B57C
:104AA800007CFFF773FC20EAE07008BD08B5007CC5
:104AB800FFF764FC20EAE07008BD007CFFF77EBCCD
:104AC80010B51421044600F05CFB204610BD38B533
:104AD8000446007C0D46FFF759FC002801DC607C89
:104AE80028B12946207CFFF761FC20EAE07038BD38
:104AF80010B50446002363604FF47A73A360054B36
:104B0800236001230846217463741146FFF726FCCD
:104B1800204610BDB05F0D000022007CFFF726BCC8
:104B280010B514220446002101F03FF9204610BDBB
:104B380030B50E4D87B001A8FFF7F2FF296811F0D4
:104B4800010410D12846FFF7A6FA60B101AA214650
:104B58000748FFF7CDFF2846FFF7A2FA054A06499E
:104B6800034800F009FB024807B030BDFCE303200E
:104B780000E40320C0E30320794A0D007047417424
:104B8800704708B5007CFFF7A9FB20EAE07008BD74
:104B980008B5007CFFF77AFB20EAE07008BD08B58D
:104BA800007CFFF783FB30EA200028BF4FF0FF307E
:104BB80008BD08B5007CFFF771FB30EA200028BF6C
:104BC8004FF0FF3008BD007CFFF778BB10B514210B
:104BD800044600F0D6FA204610BD70B5457C044660
:104BE8000E4625B9007CFFF779FB002805DD314624
:104BF800207CBDE87040FFF741BB284670BD00002F
:104C080010B5044608461146002262604FF47A72D5
:104C1800A260054A22600122207462741A46FFF7D6
:104C280025FB204610BD00BFE05F0D00007CFFF7AC
:104C38004DBB000038B50C4D296811F0010411D1A5
:104C48002846FFF728FA68B1084A094B094821465F
:104C5800FFF7D6FF2846FFF723FA074A0749054812
:104C680000F08AFA034838BDACE40320B0E403201E
:104C780028E4032014E40320C0E30320854B0D003F
:104C88007047F8B5064615460C468F18BC4206D044
:104C9800336814F8011B9B6830469847F6E72846A6
:104CA800F8BD0022007CFFF721BB0021007CFFF744
:104CB80025BB0021007CFFF729BB0021007CFFF702
:104CC8002DBB0021007CFFF731BB10B51421044631
:104CD80000F057FA204610BD10B504464FF47A7319
:104CE8000846A3600021044B207461602360FFF72D
:104CF8002DFB204610BD00BF10600D000021007C78
:104D0800FFF71CBB002211464068FFF7BBBB00221F
:104D180011464068FFF7C6BB00224068FFF7BABBE0
:104D2800002281F001014068FFF7A4BB00231A4666
:104D380019464068FFF796BB00231A461946406893
:104D4800FFF788BB002211464068FFF77BBB0022B3
:104D580011464068FFF766BB002202214068FFF752
:104D680069BB00231A464068FFF754BB38B50546AF
:104D780088B104684CB1A3681BB1032221462046C0
:104D880098471021204600F0FCF928461421BDE878
:104D9800384000F0F6B938BD10B103685B681847B1
:104DA800704710B503680446BBB15868FFF72EFA80
:104DB80078B923685A7C12B95868FFF72FFA236824
:104DC8005868FFF733FA20680023236028B1FFF7FB
:104DD800CDFF206808B1FFF7C9FF204610BD0000CD
:104DE80038B50C4B03600446D0F8CC0108B1FFF786
:104DF80050F9D4F8C45135B12846FFF7D2FF042141
:104E0800284600F0BEF9A06808B1FFF7C5FF2046A4
:104E180038BD00BF38600D0038B50D4C0D4B236010
:104E28000025022304F5E4706360A560C4F8C4514A
:104E3800C4F8C851FFF70AFA074BC4F8CC512360ED
:104E48002046064A0649BDE8384000F095B900BF3B
:104E580034E50320A0600D0038600D00C0E3032096
:104E6800E94D0D00002211464068FFF7EBBA002219
:104E780011464068FFF706BB002211464068FFF75D
:104E880011BB00224068FFF705BB002281F0010139
:104E98004068FFF7EFBA00231A4619464068FFF743
:104EA800E1BA00231A4619464068FFF7D3BA002230
:104EB80011464068FFF7B6BA002202214068FFF7A2
:104EC800B9BA00231A464068FFF7A4BA024B042275
:104ED8005A60024A1A60704704E703206C600D00AC
:104EE80000231A464068FFF795BA0022022140685D
:104EF800FFF7A0BA002211464068FFF793BA0022D4
:104F080011464068FFF79EBA00231A4619464068C2
:104F1800FFF7A0BA00231A4619464068FFF7A2BA5D
:104F2800002281F001014068FFF7A4BA002240681E
:104F3800FFF7B0BA002211464068FFF7B3BA002263
:104F480011464068FFF79EBA2DE9F043002495B05A
:104F580016460D460746FFF751FD214620220CA8AC
:104F6800009400F022FF40230C9321466B460CAAC4
:104F78003046FFF7F3F80446002844D102460121E1
:104F88006868FFF75FFA0221804622466868FFF7E3
:104F980059FA009E81462146002E34D0002932D18C
:104FA8007368022B02D00A2B09D02AE0B8F1000F4F
:104FB80027D0716938460431FFF74DFD20E0B9F17B
:104FC800000F1ED07469112201A800F0EEFE06231E
:104FD8008DF8143001AD04F10803183418685968C5
:104FE8002A4603C20833A3421546F7D101A906A8E9
:104FF80007ADFFF711FD0FCD3C1D0FC42B682370C3
:105008000121F669C8E70098FFF7A0F8384615B0FF
:10501800BDE8F083024B034A1A6000225A607047C9
:105028000CE70320A0600D0010B504460F48FFF7F9
:10503800B3FA28B1A4F10B03022B01D8002010BD4C
:1050480000F07AF8FFF75AFE08B1012CF6D9FFF7FD
:10505800F1FDFFF7EBFD18B1A4F10903012BEDD920
:10506800232C8CBF0020012010BD00BF14E70320B3
:10507800232838B504460D460AD8FF2908D0FFF77B
:10508800D3FF28B129462046BDE83840FFF77EB84F
:1050980038BD38B504460D46FFF780F8FF2810D014
:1050A800062804D84D2323FA00F0C30709D4204664
:1050B800FFF7BAFF28B129462046BDE83840FFF778
:1050C80075B838BD0D2810B504469CBF0E34A4B27F
:1050D8002046FFF7A9FF50B103212046FFF74EF8FD
:1050E800032804D12046BDE81040FFF767B8002028
:1050F80010BD000070B50C4C0C4E0D4D0021204623
:10510800FFF736FA20460B4C3246294600F034F8B1
:1051180001212046FFF72CFA324629462046BDE8F1
:10512800704000F029B800BF14E70320C0E3032053
:1051380069450D0024E7032038B50B4D296811F0A7
:1051480001040FD12846FEF7A6FF58B121460748AB
:10515800FFF7C2FD2846FEF7A3FF054A05490348A5
:1051680000F00AF8014838BD38E703203CE703207F
:10517800C0E30320894C0D000B460146184600F099
:10518800FBBDFEF784BF0000184B1A68D1075CBF4F
:1051980001221A60164B1A68D2075CBF01221A60F6
:1051A800144B1A68D0075CBF01221A60124B1A68A8
:1051B800D1075CBF01221A60104B1A68D2075CBF86
:1051C80001221A600E4B1A68D0075CBF01221A60D0
:1051D8000C4B1A68D1075CBF01221A600A4B1A6887
:1051E800D2075CBF01221A60704700BF6CE703203A
:1051F80068E7032064E7032060E703205CE70320F7
:1052080058E7032054E7032050E70320244B1A688B
:10521800D0075CBF01221A60224B1A68D1075CBF15
:1052280001221A60204B1A68D2075CBF01221A605B
:105238001E4B1A68D0075CBF01221A601C4B1A6803
:10524800D1075CBF01221A601A4B1A68D2075CBFEB
:1052580001221A60184B1A68D0075CBF01221A6035
:10526800164B1A68D1075CBF01221A60144B1A68E2
:10527800D2075CBF01221A60124B1A68D0075CBFC4
:1052880001221A60104B1A68D1075CBF01221A600C
:105298000E4B1A68D2075CBF01221A60704700BF24
:1052A8009CE7032098E7032094E7032090E7032076
:1052B8008CE7032088E7032084E7032080E70320A6
:1052C8007CE7032078E7032074E7032070E70320D6
:1052D800244B1A68D0075CBF01221A60224B1A6857
:1052E800D1075CBF01221A60204B1A68D2075CBF45
:1052F80001221A601E4B1A68D0075CBF01221A608F
:105308001C4B1A68D1075CBF01221A601A4B1A6835
:10531800D2075CBF01221A60184B1A68D0075CBF1D
:1053280001221A60164B1A68D1075CBF01221A6065
:10533800144B1A68D2075CBF01221A60124B1A6814
:10534800D0075CBF01221A60104B1A68D1075CBFF6
:1053580001221A600E4B1A68D2075CBF01221A603C
:10536800704700BFCCE70320C8E70320C4E7032049
:10537800C0E70320BCE70320B8E70320B4E7032015
:10538800B0E70320ACE70320A8E70320A4E7032045
:10539800A0E70320184B1A68D1075CBF01221A60E6
:1053A800164B1A68D2075CBF01221A60144B1A68A0
:1053B800D0075CBF01221A60124B1A68D1075CBF84
:1053C80001221A60104B1A68D2075CBF01221A60CA
:1053D8000E4B1A68D0075CBF01221A600C4B1A6882
:1053E800D1075CBF01221A600A4B1A68D2075CBF5A
:1053F80001221A60704700BFECE70320E8E70320AA
:10540800E4E70320E0E70320DCE70320D8E70320F4
:10541800D4E70320D0E7032081F0004102E000BF79
:1054280083F0004330B54FEA41044FEA430594EA5C
:10543800050F08BF90EA020F1FBF54EA000C55EA97
:10544800020C7FEA645C7FEA655C00F0E2804FEA68
:105458005454D4EB5555B8BF6D420CDD2C4480EA4A
:10546800020281EA030382EA000083EA010180EA7A
:10547800020281EA0303362D88BF30BD11F0004FC8
:105488004FEA01314FF4801C4CEA113102D04042FE
:1054980061EB410113F0004F4FEA03334CEA133339
:1054A80002D0524263EB430394EA050F00F0A78051
:1054B800A4F10104D5F1200E0DDB02FA0EFC22FA4C
:1054C80005F2801841F1000103FA0EF2801843FA40
:1054D80005F359410EE0A5F120050EF1200E012A31
:1054E80003FA0EFC28BF4CF0020C43FA05F3C0186F
:1054F80051EBE37101F0004507D54FF0000EDCF1E8
:10550800000C7EEB00006EEB0101B1F5801F1BD390
:10551800B1F5001F0CD349085FEA30004FEA3C0C94
:1055280004F101044FEA445212F5800F80F09A808A
:10553800BCF1004F08BF5FEA500C50F1000041EB8E
:10554800045141EA050130BD5FEA4C0C404141EB92
:10555800010111F4801FA4F10104E9D191F0000FB9
:1055680004BF01460020B1FA81F308BF2033A3F13C
:105578000B03B3F120020CDA0C3208DD02F1140C33
:10558800C2F10C0201FA0CF021FA02F10CE002F16E
:105598001402D8BFC2F1200C01FA02F120FA0CFC67
:1055A800DCBF41EA0C019040E41AA2BF01EB0451B0
:1055B800294330BD6FEA04041F3C1CDA0C340EDCAE
:1055C80004F11404C4F1200220FA04F001FA02F3F1
:1055D80040EA030021FA04F345EA030130BDC4F1AF
:1055E8000C04C4F1200220FA02F001FA04F340EAA4
:1055F8000300294630BD21FA04F0294630BD94F055
:10560800000F83F4801306BF81F480110134013D3B
:105618004EE77FEA645C18BF7FEA655C29D094EAAC
:10562800050F08BF90EA020F05D054EA000C04BF2A
:105638001946104630BD91EA030F1EBF0021002015
:1056480030BD5FEA545C05D14000494128BF41F0B4
:10565800004130BD14F580043CBF01F5801130BD18
:1056680001F0004545F0FE4141F470014FF00000A3
:1056780030BD7FEA645C1ABF194610467FEA655C54
:105688001CBF0B46024650EA013406BF52EA0335F6
:1056980091EA030F41F4002130BD00BF90F0000FE4
:1056A80004BF0021704730B54FF4806404F1320420
:1056B8004FF000054FF0000150E700BF90F0000FD9
:1056C80004BF0021704730B54FF4806404F1320400
:1056D80010F0004548BF40424FF000013EE700BFD0
:1056E80042004FEAE2014FEA31014FEA02701FBF60
:1056F80012F07F4393F07F4F81F06051704792F032
:10570800000F14BF93F07F4F704730B54FF46074AB
:1057180001F0004521F0004120E700BF50EA0102F6
:1057280008BF704730B54FF000050AE050EA0102A3
:1057380008BF704730B511F0004502D5404261EB13
:1057480041014FF4806404F132045FEA915C3FF454
:10575800DCAE4FF003025FEADC0C18BF03325FEAED
:10576800DC0C18BF033202EBDC02C2F1200300FAA2
:1057780003FC20FA02F001FA03FE40EA0E0021FAC7
:1057880002F11444C1E600BF70B54FF0FF0C4CF4B1
:10579800E06C1CEA11541DBF1CEA135594EA0C0F67
:1057A80095EA0C0F00F0DEF82C4481EA030621EAA2
:1057B8004C5123EA4C5350EA013518BF52EA0335DD
:1057C80041F4801143F4801338D0A0FB02CE4FF08F
:1057D8000005E1FB02E506F00042E0FB03E54FF0BF
:1057E8000006E1FB03569CF0000F18BF4EF0010EB7
:1057F800A4F1FF04B6F5007F64F5407404D25FEAB3
:105808004E0E6D4146EB060642EAC62141EA555165
:105818004FEAC52040EA5E504FEACE2EB4F1FD0CA7
:1058280088BFBCF5E06F1ED8BEF1004F08BF5FEA25
:10583800500E50F1000041EB045170BD06F00046D7
:1058480046EA010140EA020081EA0301B4EB5C0484
:10585800C2BFD4EB0C0541EA045170BD41F480117C
:105868004FF0000E013C00F3AB8014F1360FDEBFA1
:10587800002001F0004170BDC4F10004203C35DA7D
:105888000C341BDC04F11404C4F1200500FA05F300
:1058980020FA04F001FA05F240EA020001F00042A1
:1058A80021F0004110EBD37021FA04F642EB060117
:1058B8005EEA430E08BF20EAD37070BDC4F10C0441
:1058C800C4F1200500FA04F320FA05F001FA04F205
:1058D80040EA020001F0004110EBD37041F10001F1
:1058E8005EEA430E08BF20EAD37070BDC4F12005FC
:1058F80000FA05F24EEA020E20FA04F301FA05F264
:1059080043EA020321FA04F001F0004121FA04F20B
:1059180020EA020000EBD3705EEA430E08BF20EADB
:10592800D37070BD94F0000F0FD101F00046400015
:1059380041EB010111F4801F08BF013CF7D041EA97
:10594800060195F0000F18BF704703F0004652009B
:1059580043EB030313F4801F08BF013DF7D043EA6C
:105968000603704794EA0C0F0CEA135518BF95EA22
:105978000C0F0CD050EA410618BF52EA4306D1D1A9
:1059880081EA030101F000414FF0000070BD50EAC8
:10599800410606BF1046194652EA430619D094EA52
:1059A8000C0F02D150EA013613D195EA0C0F05D13C
:1059B80052EA03361CBF104619460AD181EA030190
:1059C80001F0004141F0FE4141F470014FF0000048
:1059D80070BD41F0FE4141F4780170BD70B54FF0E3
:1059E800FF0C4CF4E06C1CEA11541DBF1CEA135563
:1059F80094EA0C0F95EA0C0F00F0A7F8A4EB050445
:105A080081EA030E52EA03354FEA013100F088803B
:105A18004FEA03334FF0805545EA131343EA126304
:105A28004FEA022245EA111545EA10654FEA0026B9
:105A38000EF000419D4208BF964244F1FD0404F572
:105A4800407402D25B084FEA3202B61A65EB0305CE
:105A58005B084FEA32024FF480104FF4002CB6EB8B
:105A6800020E75EB030E22BFB61A754640EA0C000B
:105A78005B084FEA3202B6EB020E75EB030E22BF4B
:105A8800B61A754640EA5C005B084FEA3202B6EB8C
:105A9800020E75EB030E22BFB61A754640EA9C004B
:105AA8005B084FEA3202B6EB020E75EB030E22BF1B
:105AB800B61A754640EADC0055EA060E18D04FEAD9
:105AC800051545EA16754FEA06164FEAC30343EA79
:105AD80052734FEAC2025FEA1C1CC0D111F4801F46
:105AE8000BD141EA00014FF000004FF0004CB6E73F
:105AF80011F4801F04BF01430020B4F1FD0C88BFDE
:105B0800BCF5E06F3FF6AFAEB5EB030C04BFB6EBE8
:105B1800020C5FEA500C50F1000041EB045170BDDB
:105B28000EF0004E4EEA113114EB5C04C2BFD4EB08
:105B38000C0541EA045170BD41F480114FF0000E8C
:105B4800013C90E645EA060E8DE60CEA135594EA08
:105B58000C0F08BF95EA0C0F3FF43BAF94EA0C0F0B
:105B68000AD150EA01347FF434AF95EA0C0F7FF480
:105B780025AF104619462CE795EA0C0F06D152EAD4
:105B880003353FF4FDAE1046194622E750EA4106B8
:105B980018BF52EA43067FF4C5AE50EA41047FF4C9
:105BA8000DAF52EA43057FF4EBAE12E74FF0FF3C2E
:105BB80006E000BF4FF0010C02E000BF4FF0010CFF
:105BC8004DF804CD4FEA410C7FEA6C5C4FEA430C78
:105BD80018BF7FEA6C5C1BD001B050EA410C0CBFC7
:105BE80052EA430C91EA030F02BF90EA020F002029
:105BF800704710F1000F91EA030F58BF994208BF90
:105C080090422CBFD8176FEAE37040F0010070474C
:105C18004FEA410C7FEA6C5C02D150EA013C07D1A3
:105C28004FEA430C7FEA6C5CD6D152EA033CD3D0EE
:105C38005DF8040B704700BF8446104662468C46E8
:105C48001946634600E000BF01B5FFF7B7FF00281B
:105C580048BF10F1000F01BD4DF808EDFFF7F4FF44
:105C68000CBF012000205DF808FB00BF4DF808EDCF
:105C7800FFF7EAFF34BF012000205DF808FB00BFF2
:105C88004DF808EDFFF7E0FF94BF012000205DF814
:105C980008FB00BF4DF808EDFFF7CEFF94BF0120C9
:105CA80000205DF808FB00BF4DF808EDFFF7C4FFC2
:105CB80034BF012000205DF808FB00BF4FEA410C0B
:105CC8007FEA6C5C02D150EA013C0AD14FEA430CEE
:105CD8007FEA6C5C02D152EA033C02D14FF000002B
:105CE80070474FF0010070474FEA410212F5001269
:105CF80015D211D56FF47873B3EB625212D94FEA0B
:105D0800C12343F0004343EA505311F0004F23FAF4
:105D180002F018BF404270474FF00000704750EA49
:105D2800013005D111F0004008BF6FF00040704706
:105D38004FF00000704700BF4A0011D212F5001260
:105D480011D20DD56FF47873B3EB62520ED44FEACB
:105D5800C12343F0004343EA505323FA02F070474B
:105D68004FF00000704750EA013002D14FF0FF3089
:105D780070474FF00000704710B5054C13462CB122
:105D88000A4601460220AFF3008010BD204610BD30
:105D98000000000010B5431E0A44914204D011F8D7
:105DA800014B03F8014FF8E710BD02440346934244
:105DB80002D003F8011BFAE77047000038B5124B10
:105DC8001C68A36B0546D3B91820FEF77BFB43F28A
:105DD8000E33A06303804AF6CD33438041F2342367
:105DE80083804EF26D63C3804DF6EC630381052317
:105DF80043810B23838101220023C0E90423A36B81
:105E080000221D615A6138BDBCE30320034613F824
:105E1800012B002AFBD1181A013870471D400D00CC
:105E280059400D0085400D0089400D00000000001C
:105E380000000000000000004B450D0041450D002A
:105E480037450D002D450D0021450D0015450D0068
:105E580009450D0001450D00F7440D00ED440D0006
:105E6800514F0D00000000000000000069450D00C2
:105E78006B450D006E616E006F7666002E00696ED0
:105E880066006C6E00666E00636F6465006465741E
:105E980061696C000D0A00253031307520005D20E5
:105EA800002564002C200028293A2000205B00638C
:105EB8006F6465203D200025690064657461696C24
:105EC80073203D2000626175640053657269616CDE
:105ED8000053657269616C31007479706500706196
:105EE80072616D00636D6400696400686E640073BC
:105EF80074726D0066696C74006C766C0061646421
:105F080048616E646C65720072656D6F7665486194
:105F18006E646C657200656E756D48616E646C6563
:105F28007273004A534F4E53747265616D4C6F67BC
:105F380048616E646C657200617070006E6F6E65AA
:105F480000747261636500696E666F007761726ED6
:105F5800006572726F720070616E696300616C6CCB
:105F6800005A00252B3033643A2530327500255904
:105F78002D256D2D25645425483A254D3A25532560
:105F88007A0061736374696D6500000000000000A9
:105F980000000000A1490D0091490D0093490D0032
:105FA8000000000000000000794A0D00C94A0D00F9
:105FB800D74A0D00D1450D00B54A0D007B4A0D00AA
:105FC800914A0D00C34A0D00A74A0D00754A0D00FD
:105FD8000000000000000000854B0D00D54B0D00AF
:105FE800E34B0D00D1450D00994B0D00BB4B0D0047
:105FF800A74B0D00CF4B0D00874B0D008B4B0D00B1
:106008000000000000000000894C0D00D34C0D007A
:10601800AB4C0D008B4C0D00B34C0D00BB4C0D0070
:10602800C34C0D00CB4C0D00000000000000000028
:106038006B4D0D00614D0D00574D0D004D4D0D0080
:10604800414D0D00354D0D00294D0D00214D0D0020
:10605800174D0D000D4D0D00514F0D0000000000B3
:1060680000000000CB4E0D00C14E0D00B74E0D00D4
:106078006D4E0D00AB4E0D009F4E0D00934E0D0062
:106088008B4E0D00814E0D00774E0D00514F0D00C7
:106098000000000000000000E94E0D00F34E0D0066
:1060A800FD4E0D00074F0D00114F0D001D4F0D0047
:1060B800294F0D00354F0D003D4F0D00474F0D0086
:1060C800514F0D000000000000000000000000001B
:1060D80000000000000000000000000000000000B8
:1060E80000000000000000000000000000000000A8
:1060F8000000000000000000000000000000000098
:106108000000000000000000000000000000000087
:106118000000000000000000000000000000000077
:10612800000000004300000031410D0055450D00FE
:10613800A9450D00C1450D0059480D0069480D00DD
:10614800A1480D00214E0D00D54E0D001D500D002B
:10615800FD500D0091510D0015520D00D9520D0042
:086168009D530D000000000032
:106170008A5F0D0000000000CC600D00EC600D0097
:106180000C610D0000000000000000000000000095
:10619000000000002C610D00000000000000000065
:1061A00000000000000000000000000000000000EF
:1061B00000000000000000000000000000000000DF
:1061C00000000000000000000000000000000000CF
:0861D000000000005CE3032065
:1061D800FFFFFFFF00000102030405060708090A84
:1061E8000B0C0D0E0F101112131415161718191A7F
:0861F8001B1C1D1E1F202800C6
:046200007856341286
:04000003D0004018D1
:00000001FF
