:02000002D0002C
:1040000000400D0090560D00000006000C00050158
:08401000040115050000000089
:10401800BC520D0009480A49884208B505D0094A2A
:10402800824202D0121A01F001F90748074A00211A
:10403800121A01F006F9014808BD00BF58E3032031
:1040480000560D00C0E30320C0E30320F0E703207F
:1040580070B500F073FB074C074BE41AA408002561
:104068001E46A54204D056F8253098470135F8E792
:1040780070BD00BFF8550D00BC550D0000F013B819
:1040880008B500F01BF8BDE8084000F025BB00F0BB
:10409800F7B900F0F5B90078B0FA80F04009704738
:1040A80001230370704708B50121062000F0D0FEF7
:1040B80000211320BDE8084000F0CABE07B5132050
:1040C80000F0D7FEFF2300930023194640F6FF7245
:1040D80000F0BAFA0146062003B05DF804EB00F0E0
:1040E800DFBE000008B500F01FF8064B00221A706A
:1040F8005A804FF6FF729A800320BDE8084000F00E
:1041080043B900BFC4E3032008B5024B1B689B6892
:10411800019308BD6802030008B5024B1B68DB6801
:10412800019308BD6802030008B5024B1B681B68B1
:10413800019308BD2C02030008B5024B1B685B689D
:10414800019308BD2C02030008B5024B1B689B684D
:10415800019308BD2C02030008B5024B1B68DB68FD
:10416800019308BD2C02030008B5024B1B689B6A2B
:10417800019308BD2C02030008B5024B1B681B6B9A
:10418800019308BD2C02030008B5024B1B689B6F06
:10419800019308BD2C02030008B5024B1B68DB69BC
:1041A800019308BD3002030008B5024B1B681B6A67
:1041B800019308BD3002030008B5024B1B685B6819
:1041C800019308BD1802030008B5024B1B685B6920
:1041D800019308BD1802030008B5024B1B689B68D1
:1041E800019308BD4802030008B5024B1B681B6910
:1041F800019308BD4802030008B5024B1B685B69C0
:10420800019308BD4802030008B5024B1B681B6BED
:10421800019308BD4802030008B5024B1B685B6C9C
:10422800019308BD4802030008B5024B1B685B698F
:10423800019308BD6402030008B5024B1B681B68A4
:10424800019308BD3C02030008B5024B1B68DB68FC
:10425800019308BD3C02030008B5024B1B681B69AB
:10426800019308BD3C02030008B5024B1B685B695B
:10427800019308BD3C02030008B5024B1B689B690B
:10428800019308BD3C02030008B5024B1B68DB69BB
:10429800019308BD3C02030008B5024B1B681B6A6A
:1042A800019308BD3C02030008B5024B1B689B6ADA
:1042B800019308BD3C02030008B5024B1B681B6A4A
:1042C800019308BD2802030008B5024B1B685B6A0E
:1042D800019308BD2802030008B5024B1B689B6ABE
:1042E800019308BD2802030008B5024B1B68DB6A6E
:1042F800019308BD2802030008B5024B1B681B6B1D
:10430800019308BD2802030008B5024B1B685B6BCC
:10431800019308BD2802030008B5024B1B681B6CFB
:10432800019308BD2802030008B5024B1B681B68EF
:10433800019308BD4C02030008B5024B1B681B69BA
:10434800019308BD4C02030008B5024B1B685B696A
:10435800019308BD4C02030008B5024B1B689B691A
:10436800019308BD4C02030008B5024B1B68DB69CA
:10437800019308BD4C02030008B5024B1B681B6A79
:10438800019308BD4C02030008B5024B1B685B682B
:10439800019308BD2002030008B5034B1B68D3F83E
:1043A8008830019308BD00002002030008B5034BC4
:1043B8001B68D3F89430019308BD00002002030065
:1043C80008B5024B1B685B68019308BD40020300F7
:1043D80008B5024B1B689B68019308BD40020300A7
:1043E80008B5024B1B68DB68019308BD4002030057
:1043F80008B5024B1B681B69019308BD4002030006
:1044080008B5024B1B685B69019308BD40020300B5
:1044180008B5024B1B689B69019308BD4002030065
:1044280008B5024B1B68DB69019308BD4002030015
:1044380008B5024B1B681B6A019308BD40020300C4
:1044480008B5024B1B681B6B019308BD40020300B3
:1044580008B5024B1B685B6B019308BD4002030063
:1044680008B5024B1B68DB6B019308BD44020300CF
:1044780008B5024B1B681B68019308BD1C020300AA
:1044880008B5024B1B685B68019308BD1C0203005A
:10449800002211464068FFF7CBBF00221146406852
:1044A800FFF7D6BF00224068FFF7CABF002281F09D
:1044B80001014068FFF7B4BF00231A461946406857
:1044C800FFF7A6BF00231A4619464068FFF798BFB2
:1044D800002211464068FFF78BBF00221146406852
:1044E800FFF776BF002202214068FFF779BF00235B
:1044F8001A464068FFF764BF024B03225A60024A1B
:104508001A607047CCE30320D8520D00704710B5ED
:104518001021044600F031FD204610BD70B5084B4F
:104528000360044600250E4640F80C5FFFF76CFE5A
:1045380030462671FFF730FEA560204670BD00BFEB
:104548000C530D000079FFF72FBE0000044B00202C
:104558004FF6FF72187058809A80FFF715BF00BF9A
:10456800D4E30320024800230360FFF755BE00BFD1
:10457800DCE30320F8B506460D468F180024BD423B
:104588000CD0336815F8011B9B6830469847002803
:1045980001DB0444F3E7002C08BF04462046F8BDBD
:1045A80070B505460C46084649B100F07BFE2B68FD
:1045B800024621462846DB68BDE87040184770BDB2
:1045C80003689B68184730B58BB00B4600218DF8FF
:1045D8002410012A98BF0A220DF12304B3FBF2F537
:1045E80005FB123303F0FF03092B94BF3033373335
:1045F800DBB2214604F801392B46002DEED1FFF736
:10460800CFFF0BB030BD10B42AB903685DF8044B76
:104618009B68C9B21847D2B25DF8044BFFF7D3BF05
:10462800FFF7F1BF014B024A1A607047E0E303202D
:10463800CC530D00024B1A68024B1A60704700BF3A
:1046480058E30320E4E303208A4230B507D0039DF2
:10465800441AED1A6C43521A94FBF2F4E01830BD78
:1046680010B58368044613B10322014698472046D3
:1046780010BD10B50446FFF7F3FF204610BD00003B
:104688000348044A04490023836000F071BC00BF5A
:10469800E8E30320C0E303207B460D0008B50C4B7C
:1046A80033B100F035F903681B699847002809DC25
:1046B800084B63B100F0AEF903681B6998470028FE
:1046C80003DC08BDAFF30080F2E7AFF3008008BD5C
:1046D800000000000000000008B5FFF7DFFFFFF74B
:1046E80073FD014B186008BD34E7032007B50023AC
:1046F80000931A466FF07701FFF758FE03B05DF894
:1047080004FB000007B543880A2B08D0502B09D1B9
:10471800094B1B683BB103B05DF804EB1847FFF782
:10472800E5FF06E0002300931A466FF07701FFF7D4
:104738003DFE03B05DF804FBF8E3032010B5FFF776
:104748003BFD044600F086FD074B13B12046AFF34E
:10475800008000210448FFF783FE00210348BDE8DC
:104768001040FFF719BE00BF000000000D470D0004
:10477800704710B51821044600F0FFFB204610BD15
:10478800F0B5037D062B8DB00E4600F104074FF0FF
:10479800000402D000F1080518E00CAD394605F810
:1047A800304D2F232A460A20FFF73EFD284600F009
:1047B80079FD33680246DB682946304698470FE0A2
:1047C80024B12E213046FFF7FBFE044415F8011DE5
:1047D8000A223046FFF724FFBD420444F0D12046A8
:1047E8000DB0F0BD10B5054B0446112240F8043B4E
:1047F800002100F026FD204610BD00BF28540D0002
:104808000346074A10B543F8042B01F1100251F88A
:10481800044B43F8044B9142F9D10A781A7010BD41
:1048280028540D0010B59DF8084044EA032343EAD4
:10483800024242EA016104234160037510BD37B5A5
:104848000D788B784A78C97800912946FFF7EAFFF6
:1048580003B030BD41747047704708B50021007C33
:10486800FFF77AFD30EA200028BF4FF0FF3008BD7F
:1048780008B50121007CFFF76FFD30EA200028BF52
:104888004FF0FF3008BD08B5007CFFF75DFD20EA5A
:10489800E07008BD08B5007CFFF74EFD20EAE07027
:1048A80008BD007CFFF768BD10B51421044600F070
:1048B80064FB204610BD38B50446007C0D46FFF762
:1048C80043FD002801DC607C28B12946207CFFF7E5
:1048D8004BFD20EAE07038BD10B504460023636044
:1048E8004FF47A73A360054B2360012308462174B3
:1048F80063741146FFF718FD204610BD3C540D00A7
:1049080010B514220446002100F09BFC204610BD7F
:1049180030B50E4D87B001A8FFF7F2FF296811F0F6
:10492800010410D12846FFF7B6FB60B101AA214661
:104938000748FFF7D1FF2846FFF7B2FB054A0649AB
:10494800034800F015FB024807B030BDFCE3032024
:1049580000E40320C0E3032061480D007047417460
:10496800704708B5007CFFF79FFC20EAE07008BD9F
:1049780008B5007CFFF770FC20EAE07008BD08B5B8
:10498800007CFFF779FC30EA200028BF4FF0FF30A9
:1049980008BD08B5007CFFF767FC30EA200028BF97
:1049A8004FF0FF3008BD007CFFF76EBC10B5142136
:1049B800044600F0E2FA204610BD70B5457C044676
:1049C8000E4625B9007CFFF76FFC002805DD31464F
:1049D800207CBDE87040FFF737BC284670BD00005A
:1049E80010B5044608461146002262604FF47A72F8
:1049F800A260054A22600122207462741A46FFF7F9
:104A08001BFC204610BD00BF6C540D00007CFFF756
:104A180043BC000038B50C4D296811F0010411D1D0
:104A28002846FFF738FB68B1084A094B0948214670
:104A3800FFF7D6FF2846FFF733FB074A0749054823
:104A480000F096FA034838BDACE40320B0E4032034
:104A580028E4032014E40320C0E3032065490D0083
:104A68007047F8B5064615460C468F18BC4206D066
:104A7800336814F8011B9B6830469847F6E72846C8
:104A8800F8BD0022007CFFF717BC0021007CFFF76F
:104A98001BBC0021007CFFF71FBC0021007CFFF736
:104AA80023BC0021007CFFF727BC10B51421044665
:104AB80000F063FA204610BD10B504464FF47A732F
:104AC8000846A3600021044B207461602360FFF74F
:104AD80023FC204610BD00BF9C540D000021007C23
:104AE800FFF712BC002211464068FFF7A1BC002264
:104AF80011464068FFF7ACBC00224068FFF7A0BC35
:104B0800002281F001014068FFF78ABC00231A46A1
:104B180019464068FFF77CBC00231A4619464068CE
:104B2800FFF76EBC002211464068FFF761BC002207
:104B380011464068FFF74CBC002202214068FFF78D
:104B48004FBC00231A464068FFF73ABC38B5054603
:104B580088B104684CB1A3681BB1032221462046E2
:104B680098471021204600F008FA28461421BDE88D
:104B7800384000F002BA38BD10B103685B681847C6
:104B8800704710B503680446BBB15868FFF724FBAB
:104B980078B923685A7C12B95868FFF725FB23684F
:104BA8005868FFF729FB20680023236028B1FFF726
:104BB800CDFF206808B1FFF7C9FF204610BD0000EF
:104BC80038B50C4B03600446D0F8CC0108B1FFF7A8
:104BD80060FAD4F8C45135B12846FFF7D2FF042152
:104BE800284600F0CAF9A06808B1FFF7C5FF2046BB
:104BF80038BD00BFC4540D0038B50D4C0D4B2360B3
:104C08000025022304F5E4706360A560C4F8C4516C
:104C1800C4F8C851FFF700FB074BC4F8CC51236018
:104C28002046064A0649BDE8384000F0A1B900BF51
:104C380034E503202C550D00C4540D00C0E30320B7
:104C4800C94B0D00002211464068FFF7D1BB002276
:104C580011464068FFF7ECBB002211464068FFF799
:104C6800F7BB00224068FFF7EBBB002281F001018F
:104C78004068FFF7D5BB00231A4619464068FFF77E
:104C8800C7BB00231A4619464068FFF7B9BB002284
:104C980011464068FFF79CBB002202214068FFF7DD
:104CA8009FBB00231A464068FFF78ABB024B0422C9
:104CB8005A60024A1A60704704E70320F8540D004E
:104CC80000231A464068FFF77BBB00220221406898
:104CD800FFF786BB002211464068FFF779BB002228
:104CE80011464068FFF784BB00231A4619464068FE
:104CF800FFF786BB00231A4619464068FFF788BBB2
:104D0800002281F001014068FFF78ABB0022406859
:104D1800FFF796BB002211464068FFF799BB0022B7
:104D280011464068FFF784BB2DE9F043002495B095
:104D380016460D460746FFF755FD214620220CA8CA
:104D4800009400F07EFA40230C9321466B460CAA8F
:104D58003046FFF7E1F90446002844D10246012114
:104D68006868FFF745FB0221804622466868FFF71E
:104D78003FFB009E81462146002E34D0002932D1C7
:104D88007368022B02D00A2B09D02AE0B8F1000F71
:104D980027D0716938460431FFF751FD20E0B9F199
:104DA800000F1ED07469112201A800F04AFA0623E8
:104DB8008DF8143001AD04F10803183418685968E7
:104DC8002A4603C20833A3421546F7D101A906A80B
:104DD80007ADFFF715FD0FCD3C1D0FC42B682370E1
:104DE8000121F669C8E70098FFF78EF9384615B033
:104DF800BDE8F083024B034A1A6000225A607047EC
:104E08000CE703202C550D0010B504460F48FFF79A
:104E180099FB28B1A4F10B03022B01D8002010BD87
:104E280000F086F8FFF75AFE08B1012CF6D9FFF713
:104E3800F1FDFFF7EBFD18B1A4F10903012BEDD942
:104E4800232C8CBF0020012010BD00BF14E70320D5
:104E5800232838B504460D460AD8FF2908D0FFF79D
:104E6800D3FF28B129462046BDE83840FFF76CB982
:104E780038BD0D2810B504469CBF0E34A4B2204698
:104E8800FFF7C2FF50B103212046FFF755F9032869
:104E980004D12046BDE81040FFF76EB9002010BDD0
:104EA80038B504460D46FFF7AFFFF0B104212046A0
:104EB800FFF742F9042805D1A9B22046BDE83840D9
:104EC800FFF752B902212046FFF736F902280CD124
:104ED8002046FFF741F9012801D0042805D12946C9
:104EE8002046BDE83840FFF74FB938BD70B50C4CC7
:104EF8000C4E0D4D00212046FFF710FB20460B4CB1
:104F08003246294600F034F801212046FFF706FB17
:104F1800324629462046BDE8704000F029B800BF57
:104F280014E70320C0E3032015450D0024E7032000
:104F380038B50B4D296811F001040FD12846FFF749
:104F4800AAF858B121460748FFF7B6FD2846FFF7EB
:104F5800A7F8054A0549034800F00AF8014838BD92
:104F680038E703203CE70320C0E30320694A0D002B
:104F78000B460146184600F04BB9FFF788B8000009
:104F8800184B1A68D1075CBF01221A60164B1A68C1
:104F9800D2075CBF01221A60144B1A68D0075CBFA5
:104FA80001221A60124B1A68D1075CBF01221A60ED
:104FB800104B1A68D2075CBF01221A600E4B1A68A0
:104FC800D0075CBF01221A600C4B1A68D1075CBF7E
:104FD80001221A600A4B1A68D2075CBF01221A60C4
:104FE800704700BF6CE7032068E7032064E70320ED
:104FF80060E703205CE7032058E7032054E7032019
:1050080050E70320244B1A68D0075CBF01221A60BE
:10501800224B1A68D1075CBF01221A60204B1A681C
:10502800D2075CBF01221A601E4B1A68D0075CBF0A
:1050380001221A601C4B1A68D1075CBF01221A6052
:105048001A4B1A68D2075CBF01221A60184B1A68FB
:10505800D0075CBF01221A60164B1A68D1075CBFE3
:1050680001221A60144B1A68D2075CBF01221A6029
:10507800124B1A68D0075CBF01221A60104B1A68DD
:10508800D1075CBF01221A600E4B1A68D2075CBFB9
:1050980001221A60704700BF9CE7032098E70320AD
:1050A80094E7032090E703208CE7032088E7032098
:1050B80084E7032080E703207CE7032078E70320C8
:1050C80074E7032070E70320244B1A68D0075CBFFD
:1050D80001221A60224B1A68D1075CBF01221A60AC
:1050E800204B1A68D2075CBF01221A601E4B1A684F
:1050F800D0075CBF01221A601C4B1A68D1075CBF3D
:1051080001221A601A4B1A68D2075CBF01221A6082
:10511800184B1A68D0075CBF01221A60164B1A6830
:10512800D1075CBF01221A60144B1A68D2075CBF12
:1051380001221A60124B1A68D0075CBF01221A605C
:10514800104B1A68D1075CBF01221A600E4B1A680F
:10515800D2075CBF01221A60704700BFCCE703206A
:10516800C8E70320C4E70320C0E70320BCE7032007
:10517800B8E70320B4E70320B0E70320ACE7032037
:10518800A8E70320A4E70320A0E70320184B1A6828
:10519800D1075CBF01221A60164B1A68D2075CBFA0
:1051A80001221A60144B1A68D0075CBF01221A60EA
:1051B800124B1A68D1075CBF01221A60104B1A689B
:1051C800D2075CBF01221A600E4B1A68D0075CBF79
:1051D80001221A600C4B1A68D1075CBF01221A60C1
:1051E8000A4B1A68D2075CBF01221A60704700BFD9
:1051F800ECE70320E8E70320E4E70320E0E70320E7
:10520800DCE70320D8E70320D4E70320D0E7032016
:1052180010B5054C13462CB10A4601460220AFF3DF
:10522800008010BD204610BD0000000010B5431ED0
:105238000A44914204D011F8014B03F8014FF8E7F2
:1052480010BD02440346934202D003F8011BFAE75B
:105258007047000038B5124B1C68A36B0546D3B9DC
:105268001820FFF705F943F20E33A06303804AF6CE
:10527800CD33438041F2342383804EF26D63C38083
:105288004DF6EC630381052343810B2383810122BF
:105298000023C0E90423A36B00221D615A6138BDB5
:1052A800BCE30320034613F8012B002AFBD1181A8C
:1052B800013870471D400D0059400D0085400D0014
:1052C80089400D0000000000000000000000000000
:1052D800F7440D00ED440D00E3440D00D9440D00E2
:1052E800CD440D00C1440D00B5440D00AD440D0082
:1052F800A3440D0099440D00314D0D00000000003D
:105308000000000015450D0017450D0066006C6E85
:1053180000666E00636F64650064657461696C00A3
:105328000D0A00253031307520005D20002564000D
:105338002C200028293A2000205B00636F64652038
:105348003D200025690064657461696C73203D2007
:1053580000626175640053657269616C005365721F
:1053680069616C31007479706500706172616D00FB
:10537800636D6400696400686E64007374726D0024
:1053880066696C74006C766C0061646448616E6474
:105398006C65720072656D6F766548616E646C65E8
:1053A8007200656E756D48616E646C657273004A53
:1053B800534F4E53747265616D4C6F6748616E64EC
:1053C8006C657200617070006E6F6E65007472615A
:1053D800636500696E666F007761726E0065727250
:1053E8006F720070616E696300616C6C005A002511
:1053F8002B3033643A253032750025592D256D2D13
:1054080025645425483A254D3A2553257A00617379
:105418006374696D65000000000000000000000072
:1054280089470D0079470D007B470D0000000000FB
:105438000000000061480D00B1480D00BF480D0094
:105448007D450D009D480D0063480D0079480D000D
:10545800AB480D008F480D005D480D0000000000AE
:105468000000000065490D00B5490D00C3490D0055
:105478007D450D0079490D009B490D0087490D00B8
:10548800AF490D0067490D006B490D000000000091
:1054980000000000694A0D00B34A0D008B4A0D0058
:1054A8006B4A0D00934A0D009B4A0D00A34A0D005C
:1054B800AB4A0D0000000000000000004B4B0D003F
:1054C800414B0D00374B0D002D4B0D00214B0D00AE
:1054D800154B0D00094B0D00014B0D00F74A0D004F
:1054E800ED4A0D00314D0D000000000000000000E5
:1054F800AB4C0D00A14C0D00974C0D004D4C0D0010
:105508008B4C0D007F4C0D00734C0D006B4C0D0047
:10551800614C0D00574C0D00314D0D00000000008E
:1055280000000000C94C0D00D34C0D00DD4C0D00EF
:10553800E74C0D00F14C0D00FD4C0D00094D0D0020
:10554800154D0D001D4D0D00274D0D00314D0D0061
:105558000000000000000000000000000000000043
:105568000000000000000000000000000000000033
:105578000000000000000000000000000000000023
:105588000000000000000000000000000000000013
:105598000000000000000000000000000000000003
:1055A80000000000000000000000000000000000F3
:1055B80043000000ED400D0001450D0055450D006C
:1055C8006D450D002D460D003D460D0089460D0028
:1055D800014C0D00B54C0D00FD4D0D00F54E0D00B4
:1055E800894F0D000D500D00D1500D0095510D0043
:0855F8000000000000000000AB
:1056000016540D000000000058550D0078550D008F
:1056100098550D0000000000000000000000000090
:1056200000000000B8550D00000000000000000060
:10563000000000000000000000000000000000006A
:10564000000000000000000000000000000000005A
:10565000000000000000000000000000000000004A
:08566000000000005CE30320E0
:10566800FFFFFFFF00000102030405060708090AFF
:105678000B0C0D0E0F101112131415161718191AFA
:085688001B1C1D1E1F20280041
:045690007856341202
:04000003D0004018D1
:00000001FF
